{
	"tests/rcclevel1/erc721.sol": {
		"ERC721": {
			"abi": [
				{
					"anonymous": false,
					"inputs": [
						{
							"indexed": true,
							"internalType": "address",
							"name": "owner",
							"type": "address"
						},
						{
							"indexed": true,
							"internalType": "address",
							"name": "approved",
							"type": "address"
						},
						{
							"indexed": true,
							"internalType": "uint256",
							"name": "tokenId",
							"type": "uint256"
						}
					],
					"name": "Approval",
					"type": "event"
				},
				{
					"anonymous": false,
					"inputs": [
						{
							"indexed": true,
							"internalType": "address",
							"name": "owner",
							"type": "address"
						},
						{
							"indexed": true,
							"internalType": "address",
							"name": "operator",
							"type": "address"
						},
						{
							"indexed": false,
							"internalType": "bool",
							"name": "approved",
							"type": "bool"
						}
					],
					"name": "ApprovalForAll",
					"type": "event"
				},
				{
					"anonymous": false,
					"inputs": [
						{
							"indexed": true,
							"internalType": "address",
							"name": "from",
							"type": "address"
						},
						{
							"indexed": true,
							"internalType": "address",
							"name": "to",
							"type": "address"
						},
						{
							"indexed": true,
							"internalType": "uint256",
							"name": "tokenId",
							"type": "uint256"
						}
					],
					"name": "Transfer",
					"type": "event"
				},
				{
					"inputs": [
						{
							"internalType": "address",
							"name": "to",
							"type": "address"
						},
						{
							"internalType": "uint256",
							"name": "tokenId",
							"type": "uint256"
						}
					],
					"name": "approve",
					"outputs": [],
					"stateMutability": "nonpayable",
					"type": "function"
				},
				{
					"inputs": [
						{
							"internalType": "address",
							"name": "owner",
							"type": "address"
						}
					],
					"name": "balanceOf",
					"outputs": [
						{
							"internalType": "uint256",
							"name": "",
							"type": "uint256"
						}
					],
					"stateMutability": "view",
					"type": "function"
				},
				{
					"inputs": [
						{
							"internalType": "uint256",
							"name": "tokenId",
							"type": "uint256"
						}
					],
					"name": "burn",
					"outputs": [],
					"stateMutability": "nonpayable",
					"type": "function"
				},
				{
					"inputs": [
						{
							"internalType": "uint256",
							"name": "tokenId",
							"type": "uint256"
						}
					],
					"name": "getApproved",
					"outputs": [
						{
							"internalType": "address",
							"name": "",
							"type": "address"
						}
					],
					"stateMutability": "view",
					"type": "function"
				},
				{
					"inputs": [
						{
							"internalType": "address",
							"name": "owner",
							"type": "address"
						},
						{
							"internalType": "address",
							"name": "operator",
							"type": "address"
						}
					],
					"name": "isApprovedForAll",
					"outputs": [
						{
							"internalType": "bool",
							"name": "",
							"type": "bool"
						}
					],
					"stateMutability": "view",
					"type": "function"
				},
				{
					"inputs": [
						{
							"internalType": "address",
							"name": "to",
							"type": "address"
						},
						{
							"internalType": "uint256",
							"name": "tokenId",
							"type": "uint256"
						}
					],
					"name": "mint",
					"outputs": [],
					"stateMutability": "nonpayable",
					"type": "function"
				},
				{
					"inputs": [
						{
							"internalType": "uint256",
							"name": "tokenId",
							"type": "uint256"
						}
					],
					"name": "ownerOf",
					"outputs": [
						{
							"internalType": "address",
							"name": "owner",
							"type": "address"
						}
					],
					"stateMutability": "view",
					"type": "function"
				},
				{
					"inputs": [
						{
							"internalType": "address",
							"name": "from",
							"type": "address"
						},
						{
							"internalType": "address",
							"name": "to",
							"type": "address"
						},
						{
							"internalType": "uint256",
							"name": "tokenId",
							"type": "uint256"
						}
					],
					"name": "safeTransferFrom",
					"outputs": [],
					"stateMutability": "nonpayable",
					"type": "function"
				},
				{
					"inputs": [
						{
							"internalType": "address",
							"name": "from",
							"type": "address"
						},
						{
							"internalType": "address",
							"name": "to",
							"type": "address"
						},
						{
							"internalType": "uint256",
							"name": "tokenId",
							"type": "uint256"
						},
						{
							"internalType": "bytes",
							"name": "_data",
							"type": "bytes"
						}
					],
					"name": "safeTransferFrom",
					"outputs": [],
					"stateMutability": "nonpayable",
					"type": "function"
				},
				{
					"inputs": [
						{
							"internalType": "address",
							"name": "operator",
							"type": "address"
						},
						{
							"internalType": "bool",
							"name": "approved",
							"type": "bool"
						}
					],
					"name": "setApprovalForAll",
					"outputs": [],
					"stateMutability": "nonpayable",
					"type": "function"
				},
				{
					"inputs": [
						{
							"internalType": "bytes4",
							"name": "interfaceId",
							"type": "bytes4"
						}
					],
					"name": "supportsInterface",
					"outputs": [
						{
							"internalType": "bool",
							"name": "",
							"type": "bool"
						}
					],
					"stateMutability": "pure",
					"type": "function"
				},
				{
					"inputs": [
						{
							"internalType": "address",
							"name": "from",
							"type": "address"
						},
						{
							"internalType": "address",
							"name": "to",
							"type": "address"
						},
						{
							"internalType": "uint256",
							"name": "tokenId",
							"type": "uint256"
						}
					],
					"name": "transferFrom",
					"outputs": [],
					"stateMutability": "nonpayable",
					"type": "function"
				}
			],
			"devdoc": {
				"kind": "dev",
				"methods": {},
				"version": 1
			},
			"evm": {
				"assembly": "    /* \"tests/rcclevel1/erc721.sol\":1283:6963  contract ERC721 is IERC721 {... */\n  mstore(0x40, 0x80)\n  callvalue\n  dup1\n  iszero\n  tag_1\n  jumpi\n  0x00\n  dup1\n  revert\ntag_1:\n  pop\n  dataSize(sub_0)\n  dup1\n  dataOffset(sub_0)\n  0x00\n  codecopy\n  0x00\n  return\nstop\n\nsub_0: assembly {\n        /* \"tests/rcclevel1/erc721.sol\":1283:6963  contract ERC721 is IERC721 {... */\n      mstore(0x40, 0x80)\n      callvalue\n      dup1\n      iszero\n      tag_1\n      jumpi\n      0x00\n      dup1\n      revert\n    tag_1:\n      pop\n      jumpi(tag_2, lt(calldatasize, 0x04))\n      shr(0xe0, calldataload(0x00))\n      dup1\n      0x42966c68\n      gt\n      tag_15\n      jumpi\n      dup1\n      0x42966c68\n      eq\n      tag_9\n      jumpi\n      dup1\n      0x6352211e\n      eq\n      tag_10\n      jumpi\n      dup1\n      0x70a08231\n      eq\n      tag_11\n      jumpi\n      dup1\n      0xa22cb465\n      eq\n      tag_12\n      jumpi\n      dup1\n      0xb88d4fde\n      eq\n      tag_13\n      jumpi\n      dup1\n      0xe985e9c5\n      eq\n      tag_14\n      jumpi\n      jump(tag_2)\n    tag_15:\n      dup1\n      0x01ffc9a7\n      eq\n      tag_3\n      jumpi\n      dup1\n      0x081812fc\n      eq\n      tag_4\n      jumpi\n      dup1\n      0x095ea7b3\n      eq\n      tag_5\n      jumpi\n      dup1\n      0x23b872dd\n      eq\n      tag_6\n      jumpi\n      dup1\n      0x40c10f19\n      eq\n      tag_7\n      jumpi\n      dup1\n      0x42842e0e\n      eq\n      tag_8\n      jumpi\n    tag_2:\n      0x00\n      dup1\n      revert\n        /* \"tests/rcclevel1/erc721.sol\":2117:2379  function supportsInterface(bytes4 interfaceId)... */\n    tag_3:\n      tag_16\n      0x04\n      dup1\n      calldatasize\n      sub\n      dup2\n      add\n      swap1\n      tag_17\n      swap2\n      swap1\n      tag_18\n      jump\t// in\n    tag_17:\n      tag_19\n      jump\t// in\n    tag_16:\n      mload(0x40)\n      tag_20\n      swap2\n      swap1\n      tag_21\n      jump\t// in\n    tag_20:\n      mload(0x40)\n      dup1\n      swap2\n      sub\n      swap1\n      return\n        /* \"tests/rcclevel1/erc721.sol\":3186:3385  function getApproved(uint tokenId) external view override returns (address) {... */\n    tag_4:\n      tag_22\n      0x04\n      dup1\n      calldatasize\n      sub\n      dup2\n      add\n      swap1\n      tag_23\n      swap2\n      swap1\n      tag_24\n      jump\t// in\n    tag_23:\n      tag_25\n      jump\t// in\n    tag_22:\n      mload(0x40)\n      tag_26\n      swap2\n      swap1\n      tag_27\n      jump\t// in\n    tag_26:\n      mload(0x40)\n      dup1\n      swap2\n      sub\n      swap1\n      return\n        /* \"tests/rcclevel1/erc721.sol\":3594:3896  function approve(address to, uint tokenId) external override {... */\n    tag_5:\n      tag_28\n      0x04\n      dup1\n      calldatasize\n      sub\n      dup2\n      add\n      swap1\n      tag_29\n      swap2\n      swap1\n      tag_30\n      jump\t// in\n    tag_29:\n      tag_31\n      jump\t// in\n    tag_28:\n      stop\n        /* \"tests/rcclevel1/erc721.sol\":4638:4978  function transferFrom(... */\n    tag_6:\n      tag_32\n      0x04\n      dup1\n      calldatasize\n      sub\n      dup2\n      add\n      swap1\n      tag_33\n      swap2\n      swap1\n      tag_34\n      jump\t// in\n    tag_33:\n      tag_35\n      jump\t// in\n    tag_32:\n      stop\n        /* \"tests/rcclevel1/erc721.sol\":6388:6693  function mint(address to, uint tokenId) external {... */\n    tag_7:\n      tag_36\n      0x04\n      dup1\n      calldatasize\n      sub\n      dup2\n      add\n      swap1\n      tag_37\n      swap2\n      swap1\n      tag_30\n      jump\t// in\n    tag_37:\n      tag_38\n      jump\t// in\n    tag_36:\n      stop\n        /* \"tests/rcclevel1/erc721.sol\":6204:6380  function safeTransferFrom(... */\n    tag_8:\n      tag_39\n      0x04\n      dup1\n      calldatasize\n      sub\n      dup2\n      add\n      swap1\n      tag_40\n      swap2\n      swap1\n      tag_34\n      jump\t// in\n    tag_40:\n      tag_41\n      jump\t// in\n    tag_39:\n      stop\n        /* \"tests/rcclevel1/erc721.sol\":6701:6960  function burn(uint tokenId) external {... */\n    tag_9:\n      tag_42\n      0x04\n      dup1\n      calldatasize\n      sub\n      dup2\n      add\n      swap1\n      tag_43\n      swap2\n      swap1\n      tag_24\n      jump\t// in\n    tag_43:\n      tag_44\n      jump\t// in\n    tag_42:\n      stop\n        /* \"tests/rcclevel1/erc721.sol\":2572:2753  function ownerOf(uint tokenId) public view override returns (address owner) {... */\n    tag_10:\n      tag_45\n      0x04\n      dup1\n      calldatasize\n      sub\n      dup2\n      add\n      swap1\n      tag_46\n      swap2\n      swap1\n      tag_24\n      jump\t// in\n    tag_46:\n      tag_47\n      jump\t// in\n    tag_45:\n      mload(0x40)\n      tag_48\n      swap2\n      swap1\n      tag_27\n      jump\t// in\n    tag_48:\n      mload(0x40)\n      dup1\n      swap2\n      sub\n      swap1\n      return\n        /* \"tests/rcclevel1/erc721.sol\":2387:2564  function balanceOf(address owner) external view override returns (uint) {... */\n    tag_11:\n      tag_49\n      0x04\n      dup1\n      calldatasize\n      sub\n      dup2\n      add\n      swap1\n      tag_50\n      swap2\n      swap1\n      tag_51\n      jump\t// in\n    tag_50:\n      tag_52\n      jump\t// in\n    tag_49:\n      mload(0x40)\n      tag_53\n      swap2\n      swap1\n      tag_54\n      jump\t// in\n    tag_53:\n      mload(0x40)\n      dup1\n      swap2\n      sub\n      swap1\n      return\n        /* \"tests/rcclevel1/erc721.sol\":2968:3178  function setApprovalForAll(address operator, bool approved) external override {... */\n    tag_12:\n      tag_55\n      0x04\n      dup1\n      calldatasize\n      sub\n      dup2\n      add\n      swap1\n      tag_56\n      swap2\n      swap1\n      tag_57\n      jump\t// in\n    tag_56:\n      tag_58\n      jump\t// in\n    tag_55:\n      stop\n        /* \"tests/rcclevel1/erc721.sol\":5814:6196  function safeTransferFrom(... */\n    tag_13:\n      tag_59\n      0x04\n      dup1\n      calldatasize\n      sub\n      dup2\n      add\n      swap1\n      tag_60\n      swap2\n      swap1\n      tag_61\n      jump\t// in\n    tag_60:\n      tag_62\n      jump\t// in\n    tag_59:\n      stop\n        /* \"tests/rcclevel1/erc721.sol\":2761:2960  function isApprovedForAll(address owner, address operator)... */\n    tag_14:\n      tag_63\n      0x04\n      dup1\n      calldatasize\n      sub\n      dup2\n      add\n      swap1\n      tag_64\n      swap2\n      swap1\n      tag_65\n      jump\t// in\n    tag_64:\n      tag_66\n      jump\t// in\n    tag_63:\n      mload(0x40)\n      tag_67\n      swap2\n      swap1\n      tag_21\n      jump\t// in\n    tag_67:\n      mload(0x40)\n      dup1\n      swap2\n      sub\n      swap1\n      return\n        /* \"tests/rcclevel1/erc721.sol\":2117:2379  function supportsInterface(bytes4 interfaceId)... */\n    tag_19:\n        /* \"tests/rcclevel1/erc721.sol\":2232:2236  bool */\n      0x00\n        /* \"tests/rcclevel1/erc721.sol\":2289:2314  type(IERC721).interfaceId */\n      0x80ac58cd00000000000000000000000000000000000000000000000000000000\n        /* \"tests/rcclevel1/erc721.sol\":2274:2314  interfaceId == type(IERC721).interfaceId */\n      not(0xffffffffffffffffffffffffffffffffffffffffffffffffffffffff)\n      and\n        /* \"tests/rcclevel1/erc721.sol\":2274:2285  interfaceId */\n      dup3\n        /* \"tests/rcclevel1/erc721.sol\":2274:2314  interfaceId == type(IERC721).interfaceId */\n      not(0xffffffffffffffffffffffffffffffffffffffffffffffffffffffff)\n      and\n      eq\n        /* \"tests/rcclevel1/erc721.sol\":2274:2371  interfaceId == type(IERC721).interfaceId ||... */\n      dup1\n      tag_69\n      jumpi\n      pop\n        /* \"tests/rcclevel1/erc721.sol\":2346:2371  type(IERC165).interfaceId */\n      0x01ffc9a700000000000000000000000000000000000000000000000000000000\n        /* \"tests/rcclevel1/erc721.sol\":2331:2371  interfaceId == type(IERC165).interfaceId */\n      not(0xffffffffffffffffffffffffffffffffffffffffffffffffffffffff)\n      and\n        /* \"tests/rcclevel1/erc721.sol\":2331:2342  interfaceId */\n      dup3\n        /* \"tests/rcclevel1/erc721.sol\":2331:2371  interfaceId == type(IERC165).interfaceId */\n      not(0xffffffffffffffffffffffffffffffffffffffffffffffffffffffff)\n      and\n      eq\n        /* \"tests/rcclevel1/erc721.sol\":2274:2371  interfaceId == type(IERC721).interfaceId ||... */\n    tag_69:\n        /* \"tests/rcclevel1/erc721.sol\":2254:2371  return... */\n      swap1\n      pop\n        /* \"tests/rcclevel1/erc721.sol\":2117:2379  function supportsInterface(bytes4 interfaceId)... */\n      swap2\n      swap1\n      pop\n      jump\t// out\n        /* \"tests/rcclevel1/erc721.sol\":3186:3385  function getApproved(uint tokenId) external view override returns (address) {... */\n    tag_25:\n        /* \"tests/rcclevel1/erc721.sol\":3253:3260  address */\n      0x00\n        /* \"tests/rcclevel1/erc721.sol\":3309:3310  0 */\n      dup1\n        /* \"tests/rcclevel1/erc721.sol\":3281:3311  _owners[tokenId] != address(0) */\n      0xffffffffffffffffffffffffffffffffffffffff\n      and\n        /* \"tests/rcclevel1/erc721.sol\":3281:3288  _owners */\n      0x00\n        /* \"tests/rcclevel1/erc721.sol\":3281:3297  _owners[tokenId] */\n      dup1\n        /* \"tests/rcclevel1/erc721.sol\":3289:3296  tokenId */\n      dup5\n        /* \"tests/rcclevel1/erc721.sol\":3281:3297  _owners[tokenId] */\n      dup2\n      mstore\n      0x20\n      add\n      swap1\n      dup2\n      mstore\n      0x20\n      add\n      0x00\n      keccak256\n      0x00\n      swap1\n      sload\n      swap1\n      0x0100\n      exp\n      swap1\n      div\n      0xffffffffffffffffffffffffffffffffffffffff\n      and\n        /* \"tests/rcclevel1/erc721.sol\":3281:3311  _owners[tokenId] != address(0) */\n      0xffffffffffffffffffffffffffffffffffffffff\n      and\n      sub\n        /* \"tests/rcclevel1/erc721.sol\":3273:3335  require(_owners[tokenId] != address(0), \"token doesn't exist\") */\n      tag_71\n      jumpi\n      mload(0x40)\n      0x08c379a000000000000000000000000000000000000000000000000000000000\n      dup2\n      mstore\n      0x04\n      add\n      tag_72\n      swap1\n      tag_73\n      jump\t// in\n    tag_72:\n      mload(0x40)\n      dup1\n      swap2\n      sub\n      swap1\n      revert\n    tag_71:\n        /* \"tests/rcclevel1/erc721.sol\":3353:3368  _tokenApprovals */\n      0x02\n        /* \"tests/rcclevel1/erc721.sol\":3353:3377  _tokenApprovals[tokenId] */\n      0x00\n        /* \"tests/rcclevel1/erc721.sol\":3369:3376  tokenId */\n      dup4\n        /* \"tests/rcclevel1/erc721.sol\":3353:3377  _tokenApprovals[tokenId] */\n      dup2\n      mstore\n      0x20\n      add\n      swap1\n      dup2\n      mstore\n      0x20\n      add\n      0x00\n      keccak256\n      0x00\n      swap1\n      sload\n      swap1\n      0x0100\n      exp\n      swap1\n      div\n      0xffffffffffffffffffffffffffffffffffffffff\n      and\n        /* \"tests/rcclevel1/erc721.sol\":3346:3377  return _tokenApprovals[tokenId] */\n      swap1\n      pop\n        /* \"tests/rcclevel1/erc721.sol\":3186:3385  function getApproved(uint tokenId) external view override returns (address) {... */\n      swap2\n      swap1\n      pop\n      jump\t// out\n        /* \"tests/rcclevel1/erc721.sol\":3594:3896  function approve(address to, uint tokenId) external override {... */\n    tag_31:\n        /* \"tests/rcclevel1/erc721.sol\":3666:3679  address owner */\n      0x00\n        /* \"tests/rcclevel1/erc721.sol\":3682:3689  _owners */\n      dup1\n        /* \"tests/rcclevel1/erc721.sol\":3682:3698  _owners[tokenId] */\n      0x00\n        /* \"tests/rcclevel1/erc721.sol\":3690:3697  tokenId */\n      dup4\n        /* \"tests/rcclevel1/erc721.sol\":3682:3698  _owners[tokenId] */\n      dup2\n      mstore\n      0x20\n      add\n      swap1\n      dup2\n      mstore\n      0x20\n      add\n      0x00\n      keccak256\n      0x00\n      swap1\n      sload\n      swap1\n      0x0100\n      exp\n      swap1\n      div\n      0xffffffffffffffffffffffffffffffffffffffff\n      and\n        /* \"tests/rcclevel1/erc721.sol\":3666:3698  address owner = _owners[tokenId] */\n      swap1\n      pop\n        /* \"tests/rcclevel1/erc721.sol\":3745:3750  owner */\n      dup1\n        /* \"tests/rcclevel1/erc721.sol\":3731:3750  msg.sender == owner */\n      0xffffffffffffffffffffffffffffffffffffffff\n      and\n        /* \"tests/rcclevel1/erc721.sol\":3731:3741  msg.sender */\n      caller\n        /* \"tests/rcclevel1/erc721.sol\":3731:3750  msg.sender == owner */\n      0xffffffffffffffffffffffffffffffffffffffff\n      and\n      eq\n        /* \"tests/rcclevel1/erc721.sol\":3731:3791  msg.sender == owner || _operatorApprovals[owner][msg.sender] */\n      dup1\n      tag_75\n      jumpi\n      pop\n        /* \"tests/rcclevel1/erc721.sol\":3754:3772  _operatorApprovals */\n      0x03\n        /* \"tests/rcclevel1/erc721.sol\":3754:3779  _operatorApprovals[owner] */\n      0x00\n        /* \"tests/rcclevel1/erc721.sol\":3773:3778  owner */\n      dup3\n        /* \"tests/rcclevel1/erc721.sol\":3754:3779  _operatorApprovals[owner] */\n      0xffffffffffffffffffffffffffffffffffffffff\n      and\n      0xffffffffffffffffffffffffffffffffffffffff\n      and\n      dup2\n      mstore\n      0x20\n      add\n      swap1\n      dup2\n      mstore\n      0x20\n      add\n      0x00\n      keccak256\n        /* \"tests/rcclevel1/erc721.sol\":3754:3791  _operatorApprovals[owner][msg.sender] */\n      0x00\n        /* \"tests/rcclevel1/erc721.sol\":3780:3790  msg.sender */\n      caller\n        /* \"tests/rcclevel1/erc721.sol\":3754:3791  _operatorApprovals[owner][msg.sender] */\n      0xffffffffffffffffffffffffffffffffffffffff\n      and\n      0xffffffffffffffffffffffffffffffffffffffff\n      and\n      dup2\n      mstore\n      0x20\n      add\n      swap1\n      dup2\n      mstore\n      0x20\n      add\n      0x00\n      keccak256\n      0x00\n      swap1\n      sload\n      swap1\n      0x0100\n      exp\n      swap1\n      div\n      0xff\n      and\n        /* \"tests/rcclevel1/erc721.sol\":3731:3791  msg.sender == owner || _operatorApprovals[owner][msg.sender] */\n    tag_75:\n        /* \"tests/rcclevel1/erc721.sol\":3709:3849  require(... */\n      tag_76\n      jumpi\n      mload(0x40)\n      0x08c379a000000000000000000000000000000000000000000000000000000000\n      dup2\n      mstore\n      0x04\n      add\n      tag_77\n      swap1\n      tag_78\n      jump\t// in\n    tag_77:\n      mload(0x40)\n      dup1\n      swap2\n      sub\n      swap1\n      revert\n    tag_76:\n        /* \"tests/rcclevel1/erc721.sol\":3860:3888  _approve(owner, to, tokenId) */\n      tag_79\n        /* \"tests/rcclevel1/erc721.sol\":3869:3874  owner */\n      dup2\n        /* \"tests/rcclevel1/erc721.sol\":3876:3878  to */\n      dup5\n        /* \"tests/rcclevel1/erc721.sol\":3880:3887  tokenId */\n      dup5\n        /* \"tests/rcclevel1/erc721.sol\":3860:3868  _approve */\n      tag_80\n        /* \"tests/rcclevel1/erc721.sol\":3860:3888  _approve(owner, to, tokenId) */\n      jump\t// in\n    tag_79:\n        /* \"tests/rcclevel1/erc721.sol\":3655:3896  {... */\n      pop\n        /* \"tests/rcclevel1/erc721.sol\":3594:3896  function approve(address to, uint tokenId) external override {... */\n      pop\n      pop\n      jump\t// out\n        /* \"tests/rcclevel1/erc721.sol\":4638:4978  function transferFrom(... */\n    tag_35:\n        /* \"tests/rcclevel1/erc721.sol\":4763:4776  address owner */\n      0x00\n        /* \"tests/rcclevel1/erc721.sol\":4779:4795  ownerOf(tokenId) */\n      tag_82\n        /* \"tests/rcclevel1/erc721.sol\":4787:4794  tokenId */\n      dup3\n        /* \"tests/rcclevel1/erc721.sol\":4779:4786  ownerOf */\n      tag_47\n        /* \"tests/rcclevel1/erc721.sol\":4779:4795  ownerOf(tokenId) */\n      jump\t// in\n    tag_82:\n        /* \"tests/rcclevel1/erc721.sol\":4763:4795  address owner = ownerOf(tokenId) */\n      swap1\n      pop\n        /* \"tests/rcclevel1/erc721.sol\":4828:4874  _isApprovedOrOwner(owner, msg.sender, tokenId) */\n      tag_83\n        /* \"tests/rcclevel1/erc721.sol\":4847:4852  owner */\n      dup2\n        /* \"tests/rcclevel1/erc721.sol\":4854:4864  msg.sender */\n      caller\n        /* \"tests/rcclevel1/erc721.sol\":4866:4873  tokenId */\n      dup5\n        /* \"tests/rcclevel1/erc721.sol\":4828:4846  _isApprovedOrOwner */\n      tag_84\n        /* \"tests/rcclevel1/erc721.sol\":4828:4874  _isApprovedOrOwner(owner, msg.sender, tokenId) */\n      jump\t// in\n    tag_83:\n        /* \"tests/rcclevel1/erc721.sol\":4806:4924  require(... */\n      tag_85\n      jumpi\n      mload(0x40)\n      0x08c379a000000000000000000000000000000000000000000000000000000000\n      dup2\n      mstore\n      0x04\n      add\n      tag_86\n      swap1\n      tag_87\n      jump\t// in\n    tag_86:\n      mload(0x40)\n      dup1\n      swap2\n      sub\n      swap1\n      revert\n    tag_85:\n        /* \"tests/rcclevel1/erc721.sol\":4935:4970  _transfer(owner, from, to, tokenId) */\n      tag_88\n        /* \"tests/rcclevel1/erc721.sol\":4945:4950  owner */\n      dup2\n        /* \"tests/rcclevel1/erc721.sol\":4952:4956  from */\n      dup6\n        /* \"tests/rcclevel1/erc721.sol\":4958:4960  to */\n      dup6\n        /* \"tests/rcclevel1/erc721.sol\":4962:4969  tokenId */\n      dup6\n        /* \"tests/rcclevel1/erc721.sol\":4935:4944  _transfer */\n      tag_89\n        /* \"tests/rcclevel1/erc721.sol\":4935:4970  _transfer(owner, from, to, tokenId) */\n      jump\t// in\n    tag_88:\n        /* \"tests/rcclevel1/erc721.sol\":4752:4978  {... */\n      pop\n        /* \"tests/rcclevel1/erc721.sol\":4638:4978  function transferFrom(... */\n      pop\n      pop\n      pop\n      jump\t// out\n        /* \"tests/rcclevel1/erc721.sol\":6388:6693  function mint(address to, uint tokenId) external {... */\n    tag_38:\n        /* \"tests/rcclevel1/erc721.sol\":6470:6471  0 */\n      0x00\n        /* \"tests/rcclevel1/erc721.sol\":6456:6472  to != address(0) */\n      0xffffffffffffffffffffffffffffffffffffffff\n      and\n        /* \"tests/rcclevel1/erc721.sol\":6456:6458  to */\n      dup3\n        /* \"tests/rcclevel1/erc721.sol\":6456:6472  to != address(0) */\n      0xffffffffffffffffffffffffffffffffffffffff\n      and\n      sub\n        /* \"tests/rcclevel1/erc721.sol\":6448:6497  require(to != address(0), \"mint to zero address\") */\n      tag_91\n      jumpi\n      mload(0x40)\n      0x08c379a000000000000000000000000000000000000000000000000000000000\n      dup2\n      mstore\n      0x04\n      add\n      tag_92\n      swap1\n      tag_93\n      jump\t// in\n    tag_92:\n      mload(0x40)\n      dup1\n      swap2\n      sub\n      swap1\n      revert\n    tag_91:\n        /* \"tests/rcclevel1/erc721.sol\":6544:6545  0 */\n      0x00\n        /* \"tests/rcclevel1/erc721.sol\":6516:6546  _owners[tokenId] == address(0) */\n      0xffffffffffffffffffffffffffffffffffffffff\n      and\n        /* \"tests/rcclevel1/erc721.sol\":6516:6523  _owners */\n      0x00\n        /* \"tests/rcclevel1/erc721.sol\":6516:6532  _owners[tokenId] */\n      dup1\n        /* \"tests/rcclevel1/erc721.sol\":6524:6531  tokenId */\n      dup4\n        /* \"tests/rcclevel1/erc721.sol\":6516:6532  _owners[tokenId] */\n      dup2\n      mstore\n      0x20\n      add\n      swap1\n      dup2\n      mstore\n      0x20\n      add\n      0x00\n      keccak256\n      0x00\n      swap1\n      sload\n      swap1\n      0x0100\n      exp\n      swap1\n      div\n      0xffffffffffffffffffffffffffffffffffffffff\n      and\n        /* \"tests/rcclevel1/erc721.sol\":6516:6546  _owners[tokenId] == address(0) */\n      0xffffffffffffffffffffffffffffffffffffffff\n      and\n      eq\n        /* \"tests/rcclevel1/erc721.sol\":6508:6571  require(_owners[tokenId] == address(0), \"token already minted\") */\n      tag_94\n      jumpi\n      mload(0x40)\n      0x08c379a000000000000000000000000000000000000000000000000000000000\n      dup2\n      mstore\n      0x04\n      add\n      tag_95\n      swap1\n      tag_96\n      jump\t// in\n    tag_95:\n      mload(0x40)\n      dup1\n      swap2\n      sub\n      swap1\n      revert\n    tag_94:\n        /* \"tests/rcclevel1/erc721.sol\":6601:6602  1 */\n      0x01\n        /* \"tests/rcclevel1/erc721.sol\":6584:6593  _balances */\n      dup1\n        /* \"tests/rcclevel1/erc721.sol\":6584:6597  _balances[to] */\n      0x00\n        /* \"tests/rcclevel1/erc721.sol\":6594:6596  to */\n      dup5\n        /* \"tests/rcclevel1/erc721.sol\":6584:6597  _balances[to] */\n      0xffffffffffffffffffffffffffffffffffffffff\n      and\n      0xffffffffffffffffffffffffffffffffffffffff\n      and\n      dup2\n      mstore\n      0x20\n      add\n      swap1\n      dup2\n      mstore\n      0x20\n      add\n      0x00\n      keccak256\n      0x00\n        /* \"tests/rcclevel1/erc721.sol\":6584:6602  _balances[to] += 1 */\n      dup3\n      dup3\n      sload\n      tag_97\n      swap2\n      swap1\n      tag_98\n      jump\t// in\n    tag_97:\n      swap3\n      pop\n      pop\n      dup2\n      swap1\n      sstore\n      pop\n        /* \"tests/rcclevel1/erc721.sol\":6632:6634  to */\n      dup2\n        /* \"tests/rcclevel1/erc721.sol\":6613:6620  _owners */\n      0x00\n        /* \"tests/rcclevel1/erc721.sol\":6613:6629  _owners[tokenId] */\n      dup1\n        /* \"tests/rcclevel1/erc721.sol\":6621:6628  tokenId */\n      dup4\n        /* \"tests/rcclevel1/erc721.sol\":6613:6629  _owners[tokenId] */\n      dup2\n      mstore\n      0x20\n      add\n      swap1\n      dup2\n      mstore\n      0x20\n      add\n      0x00\n      keccak256\n      0x00\n        /* \"tests/rcclevel1/erc721.sol\":6613:6634  _owners[tokenId] = to */\n      0x0100\n      exp\n      dup2\n      sload\n      dup2\n      0xffffffffffffffffffffffffffffffffffffffff\n      mul\n      not\n      and\n      swap1\n      dup4\n      0xffffffffffffffffffffffffffffffffffffffff\n      and\n      mul\n      or\n      swap1\n      sstore\n      pop\n        /* \"tests/rcclevel1/erc721.sol\":6677:6684  tokenId */\n      dup1\n        /* \"tests/rcclevel1/erc721.sol\":6673:6675  to */\n      dup3\n        /* \"tests/rcclevel1/erc721.sol\":6652:6685  Transfer(address(0), to, tokenId) */\n      0xffffffffffffffffffffffffffffffffffffffff\n      and\n        /* \"tests/rcclevel1/erc721.sol\":6669:6670  0 */\n      0x00\n        /* \"tests/rcclevel1/erc721.sol\":6652:6685  Transfer(address(0), to, tokenId) */\n      0xffffffffffffffffffffffffffffffffffffffff\n      and\n      0xddf252ad1be2c89b69c2b068fc378daa952ba7f163c4a11628f55a4df523b3ef\n      mload(0x40)\n      mload(0x40)\n      dup1\n      swap2\n      sub\n      swap1\n      log4\n        /* \"tests/rcclevel1/erc721.sol\":6388:6693  function mint(address to, uint tokenId) external {... */\n      pop\n      pop\n      jump\t// out\n        /* \"tests/rcclevel1/erc721.sol\":6204:6380  function safeTransferFrom(... */\n    tag_41:\n        /* \"tests/rcclevel1/erc721.sol\":6333:6372  safeTransferFrom(from, to, tokenId, \"\") */\n      tag_100\n        /* \"tests/rcclevel1/erc721.sol\":6350:6354  from */\n      dup4\n        /* \"tests/rcclevel1/erc721.sol\":6356:6358  to */\n      dup4\n        /* \"tests/rcclevel1/erc721.sol\":6360:6367  tokenId */\n      dup4\n        /* \"tests/rcclevel1/erc721.sol\":6333:6372  safeTransferFrom(from, to, tokenId, \"\") */\n      mload(0x40)\n      dup1\n      0x20\n      add\n      0x40\n      mstore\n      dup1\n      0x00\n      dup2\n      mstore\n      pop\n        /* \"tests/rcclevel1/erc721.sol\":6333:6349  safeTransferFrom */\n      tag_62\n        /* \"tests/rcclevel1/erc721.sol\":6333:6372  safeTransferFrom(from, to, tokenId, \"\") */\n      jump\t// in\n    tag_100:\n        /* \"tests/rcclevel1/erc721.sol\":6204:6380  function safeTransferFrom(... */\n      pop\n      pop\n      pop\n      jump\t// out\n        /* \"tests/rcclevel1/erc721.sol\":6701:6960  function burn(uint tokenId) external {... */\n    tag_44:\n        /* \"tests/rcclevel1/erc721.sol\":6749:6762  address owner */\n      0x00\n        /* \"tests/rcclevel1/erc721.sol\":6765:6781  ownerOf(tokenId) */\n      tag_102\n        /* \"tests/rcclevel1/erc721.sol\":6773:6780  tokenId */\n      dup3\n        /* \"tests/rcclevel1/erc721.sol\":6765:6772  ownerOf */\n      tag_47\n        /* \"tests/rcclevel1/erc721.sol\":6765:6781  ownerOf(tokenId) */\n      jump\t// in\n    tag_102:\n        /* \"tests/rcclevel1/erc721.sol\":6749:6781  address owner = ownerOf(tokenId) */\n      swap1\n      pop\n        /* \"tests/rcclevel1/erc721.sol\":6794:6830  _approve(owner, address(0), tokenId) */\n      tag_103\n        /* \"tests/rcclevel1/erc721.sol\":6803:6808  owner */\n      dup2\n        /* \"tests/rcclevel1/erc721.sol\":6818:6819  0 */\n      0x00\n        /* \"tests/rcclevel1/erc721.sol\":6822:6829  tokenId */\n      dup5\n        /* \"tests/rcclevel1/erc721.sol\":6794:6802  _approve */\n      tag_80\n        /* \"tests/rcclevel1/erc721.sol\":6794:6830  _approve(owner, address(0), tokenId) */\n      jump\t// in\n    tag_103:\n        /* \"tests/rcclevel1/erc721.sol\":6863:6864  1 */\n      0x01\n        /* \"tests/rcclevel1/erc721.sol\":6843:6852  _balances */\n      dup1\n        /* \"tests/rcclevel1/erc721.sol\":6843:6859  _balances[owner] */\n      0x00\n        /* \"tests/rcclevel1/erc721.sol\":6853:6858  owner */\n      dup4\n        /* \"tests/rcclevel1/erc721.sol\":6843:6859  _balances[owner] */\n      0xffffffffffffffffffffffffffffffffffffffff\n      and\n      0xffffffffffffffffffffffffffffffffffffffff\n      and\n      dup2\n      mstore\n      0x20\n      add\n      swap1\n      dup2\n      mstore\n      0x20\n      add\n      0x00\n      keccak256\n      0x00\n        /* \"tests/rcclevel1/erc721.sol\":6843:6864  _balances[owner] -= 1 */\n      dup3\n      dup3\n      sload\n      tag_104\n      swap2\n      swap1\n      tag_105\n      jump\t// in\n    tag_104:\n      swap3\n      pop\n      pop\n      dup2\n      swap1\n      sstore\n      pop\n        /* \"tests/rcclevel1/erc721.sol\":6882:6889  _owners */\n      0x00\n        /* \"tests/rcclevel1/erc721.sol\":6882:6898  _owners[tokenId] */\n      dup1\n        /* \"tests/rcclevel1/erc721.sol\":6890:6897  tokenId */\n      dup4\n        /* \"tests/rcclevel1/erc721.sol\":6882:6898  _owners[tokenId] */\n      dup2\n      mstore\n      0x20\n      add\n      swap1\n      dup2\n      mstore\n      0x20\n      add\n      0x00\n      keccak256\n      0x00\n        /* \"tests/rcclevel1/erc721.sol\":6875:6898  delete _owners[tokenId] */\n      0x0100\n      exp\n      dup2\n      sload\n      swap1\n      0xffffffffffffffffffffffffffffffffffffffff\n      mul\n      not\n      and\n      swap1\n      sstore\n        /* \"tests/rcclevel1/erc721.sol\":6944:6951  tokenId */\n      dup2\n        /* \"tests/rcclevel1/erc721.sol\":6940:6941  0 */\n      0x00\n        /* \"tests/rcclevel1/erc721.sol\":6916:6952  Transfer(owner, address(0), tokenId) */\n      0xffffffffffffffffffffffffffffffffffffffff\n      and\n        /* \"tests/rcclevel1/erc721.sol\":6925:6930  owner */\n      dup3\n        /* \"tests/rcclevel1/erc721.sol\":6916:6952  Transfer(owner, address(0), tokenId) */\n      0xffffffffffffffffffffffffffffffffffffffff\n      and\n      0xddf252ad1be2c89b69c2b068fc378daa952ba7f163c4a11628f55a4df523b3ef\n      mload(0x40)\n      mload(0x40)\n      dup1\n      swap2\n      sub\n      swap1\n      log4\n        /* \"tests/rcclevel1/erc721.sol\":6738:6960  {... */\n      pop\n        /* \"tests/rcclevel1/erc721.sol\":6701:6960  function burn(uint tokenId) external {... */\n      pop\n      jump\t// out\n        /* \"tests/rcclevel1/erc721.sol\":2572:2753  function ownerOf(uint tokenId) public view override returns (address owner) {... */\n    tag_47:\n        /* \"tests/rcclevel1/erc721.sol\":2633:2646  address owner */\n      0x00\n        /* \"tests/rcclevel1/erc721.sol\":2667:2674  _owners */\n      dup1\n        /* \"tests/rcclevel1/erc721.sol\":2667:2683  _owners[tokenId] */\n      0x00\n        /* \"tests/rcclevel1/erc721.sol\":2675:2682  tokenId */\n      dup4\n        /* \"tests/rcclevel1/erc721.sol\":2667:2683  _owners[tokenId] */\n      dup2\n      mstore\n      0x20\n      add\n      swap1\n      dup2\n      mstore\n      0x20\n      add\n      0x00\n      keccak256\n      0x00\n      swap1\n      sload\n      swap1\n      0x0100\n      exp\n      swap1\n      div\n      0xffffffffffffffffffffffffffffffffffffffff\n      and\n        /* \"tests/rcclevel1/erc721.sol\":2659:2683  owner = _owners[tokenId] */\n      swap1\n      pop\n        /* \"tests/rcclevel1/erc721.sol\":2719:2720  0 */\n      0x00\n        /* \"tests/rcclevel1/erc721.sol\":2702:2721  owner != address(0) */\n      0xffffffffffffffffffffffffffffffffffffffff\n      and\n        /* \"tests/rcclevel1/erc721.sol\":2702:2707  owner */\n      dup2\n        /* \"tests/rcclevel1/erc721.sol\":2702:2721  owner != address(0) */\n      0xffffffffffffffffffffffffffffffffffffffff\n      and\n      sub\n        /* \"tests/rcclevel1/erc721.sol\":2694:2745  require(owner != address(0), \"token doesn't exist\") */\n      tag_107\n      jumpi\n      mload(0x40)\n      0x08c379a000000000000000000000000000000000000000000000000000000000\n      dup2\n      mstore\n      0x04\n      add\n      tag_108\n      swap1\n      tag_73\n      jump\t// in\n    tag_108:\n      mload(0x40)\n      dup1\n      swap2\n      sub\n      swap1\n      revert\n    tag_107:\n        /* \"tests/rcclevel1/erc721.sol\":2572:2753  function ownerOf(uint tokenId) public view override returns (address owner) {... */\n      swap2\n      swap1\n      pop\n      jump\t// out\n        /* \"tests/rcclevel1/erc721.sol\":2387:2564  function balanceOf(address owner) external view override returns (uint) {... */\n    tag_52:\n        /* \"tests/rcclevel1/erc721.sol\":2453:2457  uint */\n      0x00\n        /* \"tests/rcclevel1/erc721.sol\":2495:2496  0 */\n      dup1\n        /* \"tests/rcclevel1/erc721.sol\":2478:2497  owner != address(0) */\n      0xffffffffffffffffffffffffffffffffffffffff\n      and\n        /* \"tests/rcclevel1/erc721.sol\":2478:2483  owner */\n      dup3\n        /* \"tests/rcclevel1/erc721.sol\":2478:2497  owner != address(0) */\n      0xffffffffffffffffffffffffffffffffffffffff\n      and\n      sub\n        /* \"tests/rcclevel1/erc721.sol\":2470:2522  require(owner != address(0), \"owner = zero address\") */\n      tag_110\n      jumpi\n      mload(0x40)\n      0x08c379a000000000000000000000000000000000000000000000000000000000\n      dup2\n      mstore\n      0x04\n      add\n      tag_111\n      swap1\n      tag_112\n      jump\t// in\n    tag_111:\n      mload(0x40)\n      dup1\n      swap2\n      sub\n      swap1\n      revert\n    tag_110:\n        /* \"tests/rcclevel1/erc721.sol\":2540:2549  _balances */\n      0x01\n        /* \"tests/rcclevel1/erc721.sol\":2540:2556  _balances[owner] */\n      0x00\n        /* \"tests/rcclevel1/erc721.sol\":2550:2555  owner */\n      dup4\n        /* \"tests/rcclevel1/erc721.sol\":2540:2556  _balances[owner] */\n      0xffffffffffffffffffffffffffffffffffffffff\n      and\n      0xffffffffffffffffffffffffffffffffffffffff\n      and\n      dup2\n      mstore\n      0x20\n      add\n      swap1\n      dup2\n      mstore\n      0x20\n      add\n      0x00\n      keccak256\n      sload\n        /* \"tests/rcclevel1/erc721.sol\":2533:2556  return _balances[owner] */\n      swap1\n      pop\n        /* \"tests/rcclevel1/erc721.sol\":2387:2564  function balanceOf(address owner) external view override returns (uint) {... */\n      swap2\n      swap1\n      pop\n      jump\t// out\n        /* \"tests/rcclevel1/erc721.sol\":2968:3178  function setApprovalForAll(address operator, bool approved) external override {... */\n    tag_58:\n        /* \"tests/rcclevel1/erc721.sol\":3100:3108  approved */\n      dup1\n        /* \"tests/rcclevel1/erc721.sol\":3057:3075  _operatorApprovals */\n      0x03\n        /* \"tests/rcclevel1/erc721.sol\":3057:3087  _operatorApprovals[msg.sender] */\n      0x00\n        /* \"tests/rcclevel1/erc721.sol\":3076:3086  msg.sender */\n      caller\n        /* \"tests/rcclevel1/erc721.sol\":3057:3087  _operatorApprovals[msg.sender] */\n      0xffffffffffffffffffffffffffffffffffffffff\n      and\n      0xffffffffffffffffffffffffffffffffffffffff\n      and\n      dup2\n      mstore\n      0x20\n      add\n      swap1\n      dup2\n      mstore\n      0x20\n      add\n      0x00\n      keccak256\n        /* \"tests/rcclevel1/erc721.sol\":3057:3097  _operatorApprovals[msg.sender][operator] */\n      0x00\n        /* \"tests/rcclevel1/erc721.sol\":3088:3096  operator */\n      dup5\n        /* \"tests/rcclevel1/erc721.sol\":3057:3097  _operatorApprovals[msg.sender][operator] */\n      0xffffffffffffffffffffffffffffffffffffffff\n      and\n      0xffffffffffffffffffffffffffffffffffffffff\n      and\n      dup2\n      mstore\n      0x20\n      add\n      swap1\n      dup2\n      mstore\n      0x20\n      add\n      0x00\n      keccak256\n      0x00\n        /* \"tests/rcclevel1/erc721.sol\":3057:3108  _operatorApprovals[msg.sender][operator] = approved */\n      0x0100\n      exp\n      dup2\n      sload\n      dup2\n      0xff\n      mul\n      not\n      and\n      swap1\n      dup4\n      iszero\n      iszero\n      mul\n      or\n      swap1\n      sstore\n      pop\n        /* \"tests/rcclevel1/erc721.sol\":3151:3159  operator */\n      dup2\n        /* \"tests/rcclevel1/erc721.sol\":3124:3170  ApprovalForAll(msg.sender, operator, approved) */\n      0xffffffffffffffffffffffffffffffffffffffff\n      and\n        /* \"tests/rcclevel1/erc721.sol\":3139:3149  msg.sender */\n      caller\n        /* \"tests/rcclevel1/erc721.sol\":3124:3170  ApprovalForAll(msg.sender, operator, approved) */\n      0xffffffffffffffffffffffffffffffffffffffff\n      and\n      0x17307eab39ab6107e8899845ad3d59bd9653f200f220920489ca2b5937696c31\n        /* \"tests/rcclevel1/erc721.sol\":3161:3169  approved */\n      dup4\n        /* \"tests/rcclevel1/erc721.sol\":3124:3170  ApprovalForAll(msg.sender, operator, approved) */\n      mload(0x40)\n      tag_114\n      swap2\n      swap1\n      tag_21\n      jump\t// in\n    tag_114:\n      mload(0x40)\n      dup1\n      swap2\n      sub\n      swap1\n      log3\n        /* \"tests/rcclevel1/erc721.sol\":2968:3178  function setApprovalForAll(address operator, bool approved) external override {... */\n      pop\n      pop\n      jump\t// out\n        /* \"tests/rcclevel1/erc721.sol\":5814:6196  function safeTransferFrom(... */\n    tag_62:\n        /* \"tests/rcclevel1/erc721.sol\":5970:5983  address owner */\n      0x00\n        /* \"tests/rcclevel1/erc721.sol\":5986:6002  ownerOf(tokenId) */\n      tag_116\n        /* \"tests/rcclevel1/erc721.sol\":5994:6001  tokenId */\n      dup4\n        /* \"tests/rcclevel1/erc721.sol\":5986:5993  ownerOf */\n      tag_47\n        /* \"tests/rcclevel1/erc721.sol\":5986:6002  ownerOf(tokenId) */\n      jump\t// in\n    tag_116:\n        /* \"tests/rcclevel1/erc721.sol\":5970:6002  address owner = ownerOf(tokenId) */\n      swap1\n      pop\n        /* \"tests/rcclevel1/erc721.sol\":6035:6081  _isApprovedOrOwner(owner, msg.sender, tokenId) */\n      tag_117\n        /* \"tests/rcclevel1/erc721.sol\":6054:6059  owner */\n      dup2\n        /* \"tests/rcclevel1/erc721.sol\":6061:6071  msg.sender */\n      caller\n        /* \"tests/rcclevel1/erc721.sol\":6073:6080  tokenId */\n      dup6\n        /* \"tests/rcclevel1/erc721.sol\":6035:6053  _isApprovedOrOwner */\n      tag_84\n        /* \"tests/rcclevel1/erc721.sol\":6035:6081  _isApprovedOrOwner(owner, msg.sender, tokenId) */\n      jump\t// in\n    tag_117:\n        /* \"tests/rcclevel1/erc721.sol\":6013:6131  require(... */\n      tag_118\n      jumpi\n      mload(0x40)\n      0x08c379a000000000000000000000000000000000000000000000000000000000\n      dup2\n      mstore\n      0x04\n      add\n      tag_119\n      swap1\n      tag_87\n      jump\t// in\n    tag_119:\n      mload(0x40)\n      dup1\n      swap2\n      sub\n      swap1\n      revert\n    tag_118:\n        /* \"tests/rcclevel1/erc721.sol\":6142:6188  _safeTransfer(owner, from, to, tokenId, _data) */\n      tag_120\n        /* \"tests/rcclevel1/erc721.sol\":6156:6161  owner */\n      dup2\n        /* \"tests/rcclevel1/erc721.sol\":6163:6167  from */\n      dup7\n        /* \"tests/rcclevel1/erc721.sol\":6169:6171  to */\n      dup7\n        /* \"tests/rcclevel1/erc721.sol\":6173:6180  tokenId */\n      dup7\n        /* \"tests/rcclevel1/erc721.sol\":6182:6187  _data */\n      dup7\n        /* \"tests/rcclevel1/erc721.sol\":6142:6155  _safeTransfer */\n      tag_121\n        /* \"tests/rcclevel1/erc721.sol\":6142:6188  _safeTransfer(owner, from, to, tokenId, _data) */\n      jump\t// in\n    tag_120:\n        /* \"tests/rcclevel1/erc721.sol\":5959:6196  {... */\n      pop\n        /* \"tests/rcclevel1/erc721.sol\":5814:6196  function safeTransferFrom(... */\n      pop\n      pop\n      pop\n      pop\n      jump\t// out\n        /* \"tests/rcclevel1/erc721.sol\":2761:2960  function isApprovedForAll(address owner, address operator)... */\n    tag_66:\n        /* \"tests/rcclevel1/erc721.sol\":2888:2892  bool */\n      0x00\n        /* \"tests/rcclevel1/erc721.sol\":2917:2935  _operatorApprovals */\n      0x03\n        /* \"tests/rcclevel1/erc721.sol\":2917:2942  _operatorApprovals[owner] */\n      0x00\n        /* \"tests/rcclevel1/erc721.sol\":2936:2941  owner */\n      dup5\n        /* \"tests/rcclevel1/erc721.sol\":2917:2942  _operatorApprovals[owner] */\n      0xffffffffffffffffffffffffffffffffffffffff\n      and\n      0xffffffffffffffffffffffffffffffffffffffff\n      and\n      dup2\n      mstore\n      0x20\n      add\n      swap1\n      dup2\n      mstore\n      0x20\n      add\n      0x00\n      keccak256\n        /* \"tests/rcclevel1/erc721.sol\":2917:2952  _operatorApprovals[owner][operator] */\n      0x00\n        /* \"tests/rcclevel1/erc721.sol\":2943:2951  operator */\n      dup4\n        /* \"tests/rcclevel1/erc721.sol\":2917:2952  _operatorApprovals[owner][operator] */\n      0xffffffffffffffffffffffffffffffffffffffff\n      and\n      0xffffffffffffffffffffffffffffffffffffffff\n      and\n      dup2\n      mstore\n      0x20\n      add\n      swap1\n      dup2\n      mstore\n      0x20\n      add\n      0x00\n      keccak256\n      0x00\n      swap1\n      sload\n      swap1\n      0x0100\n      exp\n      swap1\n      div\n      0xff\n      and\n        /* \"tests/rcclevel1/erc721.sol\":2910:2952  return _operatorApprovals[owner][operator] */\n      swap1\n      pop\n        /* \"tests/rcclevel1/erc721.sol\":2761:2960  function isApprovedForAll(address owner, address operator)... */\n      swap3\n      swap2\n      pop\n      pop\n      jump\t// out\n        /* \"tests/rcclevel1/erc721.sol\":3393:3586  function _approve(... */\n    tag_80:\n        /* \"tests/rcclevel1/erc721.sol\":3532:3534  to */\n      dup2\n        /* \"tests/rcclevel1/erc721.sol\":3505:3520  _tokenApprovals */\n      0x02\n        /* \"tests/rcclevel1/erc721.sol\":3505:3529  _tokenApprovals[tokenId] */\n      0x00\n        /* \"tests/rcclevel1/erc721.sol\":3521:3528  tokenId */\n      dup4\n        /* \"tests/rcclevel1/erc721.sol\":3505:3529  _tokenApprovals[tokenId] */\n      dup2\n      mstore\n      0x20\n      add\n      swap1\n      dup2\n      mstore\n      0x20\n      add\n      0x00\n      keccak256\n      0x00\n        /* \"tests/rcclevel1/erc721.sol\":3505:3534  _tokenApprovals[tokenId] = to */\n      0x0100\n      exp\n      dup2\n      sload\n      dup2\n      0xffffffffffffffffffffffffffffffffffffffff\n      mul\n      not\n      and\n      swap1\n      dup4\n      0xffffffffffffffffffffffffffffffffffffffff\n      and\n      mul\n      or\n      swap1\n      sstore\n      pop\n        /* \"tests/rcclevel1/erc721.sol\":3570:3577  tokenId */\n      dup1\n        /* \"tests/rcclevel1/erc721.sol\":3566:3568  to */\n      dup3\n        /* \"tests/rcclevel1/erc721.sol\":3550:3578  Approval(owner, to, tokenId) */\n      0xffffffffffffffffffffffffffffffffffffffff\n      and\n        /* \"tests/rcclevel1/erc721.sol\":3559:3564  owner */\n      dup5\n        /* \"tests/rcclevel1/erc721.sol\":3550:3578  Approval(owner, to, tokenId) */\n      0xffffffffffffffffffffffffffffffffffffffff\n      and\n      0x8c5be1e5ebec7d5bd14f71427d1e84f3dd0314c0f7b2291e5b200ac8c7c3b925\n      mload(0x40)\n      mload(0x40)\n      dup1\n      swap2\n      sub\n      swap1\n      log4\n        /* \"tests/rcclevel1/erc721.sol\":3393:3586  function _approve(... */\n      pop\n      pop\n      pop\n      jump\t// out\n        /* \"tests/rcclevel1/erc721.sol\":3904:4187  function _isApprovedOrOwner(... */\n    tag_84:\n        /* \"tests/rcclevel1/erc721.sol\":4034:4038  bool */\n      0x00\n        /* \"tests/rcclevel1/erc721.sol\":4070:4075  owner */\n      dup4\n        /* \"tests/rcclevel1/erc721.sol\":4059:4075  spender == owner */\n      0xffffffffffffffffffffffffffffffffffffffff\n      and\n        /* \"tests/rcclevel1/erc721.sol\":4059:4066  spender */\n      dup4\n        /* \"tests/rcclevel1/erc721.sol\":4059:4075  spender == owner */\n      0xffffffffffffffffffffffffffffffffffffffff\n      and\n      eq\n        /* \"tests/rcclevel1/erc721.sol\":4059:4127  spender == owner ||... */\n      dup1\n      tag_125\n      jumpi\n      pop\n        /* \"tests/rcclevel1/erc721.sol\":4120:4127  spender */\n      dup3\n        /* \"tests/rcclevel1/erc721.sol\":4092:4127  _tokenApprovals[tokenId] == spender */\n      0xffffffffffffffffffffffffffffffffffffffff\n      and\n        /* \"tests/rcclevel1/erc721.sol\":4092:4107  _tokenApprovals */\n      0x02\n        /* \"tests/rcclevel1/erc721.sol\":4092:4116  _tokenApprovals[tokenId] */\n      0x00\n        /* \"tests/rcclevel1/erc721.sol\":4108:4115  tokenId */\n      dup5\n        /* \"tests/rcclevel1/erc721.sol\":4092:4116  _tokenApprovals[tokenId] */\n      dup2\n      mstore\n      0x20\n      add\n      swap1\n      dup2\n      mstore\n      0x20\n      add\n      0x00\n      keccak256\n      0x00\n      swap1\n      sload\n      swap1\n      0x0100\n      exp\n      swap1\n      div\n      0xffffffffffffffffffffffffffffffffffffffff\n      and\n        /* \"tests/rcclevel1/erc721.sol\":4092:4127  _tokenApprovals[tokenId] == spender */\n      0xffffffffffffffffffffffffffffffffffffffff\n      and\n      eq\n        /* \"tests/rcclevel1/erc721.sol\":4059:4127  spender == owner ||... */\n    tag_125:\n        /* \"tests/rcclevel1/erc721.sol\":4059:4178  spender == owner ||... */\n      dup1\n      tag_126\n      jumpi\n      pop\n        /* \"tests/rcclevel1/erc721.sol\":4144:4162  _operatorApprovals */\n      0x03\n        /* \"tests/rcclevel1/erc721.sol\":4144:4169  _operatorApprovals[owner] */\n      0x00\n        /* \"tests/rcclevel1/erc721.sol\":4163:4168  owner */\n      dup6\n        /* \"tests/rcclevel1/erc721.sol\":4144:4169  _operatorApprovals[owner] */\n      0xffffffffffffffffffffffffffffffffffffffff\n      and\n      0xffffffffffffffffffffffffffffffffffffffff\n      and\n      dup2\n      mstore\n      0x20\n      add\n      swap1\n      dup2\n      mstore\n      0x20\n      add\n      0x00\n      keccak256\n        /* \"tests/rcclevel1/erc721.sol\":4144:4178  _operatorApprovals[owner][spender] */\n      0x00\n        /* \"tests/rcclevel1/erc721.sol\":4170:4177  spender */\n      dup5\n        /* \"tests/rcclevel1/erc721.sol\":4144:4178  _operatorApprovals[owner][spender] */\n      0xffffffffffffffffffffffffffffffffffffffff\n      and\n      0xffffffffffffffffffffffffffffffffffffffff\n      and\n      dup2\n      mstore\n      0x20\n      add\n      swap1\n      dup2\n      mstore\n      0x20\n      add\n      0x00\n      keccak256\n      0x00\n      swap1\n      sload\n      swap1\n      0x0100\n      exp\n      swap1\n      div\n      0xff\n      and\n        /* \"tests/rcclevel1/erc721.sol\":4059:4178  spender == owner ||... */\n    tag_126:\n        /* \"tests/rcclevel1/erc721.sol\":4051:4179  return (spender == owner ||... */\n      swap1\n      pop\n        /* \"tests/rcclevel1/erc721.sol\":3904:4187  function _isApprovedOrOwner(... */\n      swap4\n      swap3\n      pop\n      pop\n      pop\n      jump\t// out\n        /* \"tests/rcclevel1/erc721.sol\":4195:4630  function _transfer(... */\n    tag_89:\n        /* \"tests/rcclevel1/erc721.sol\":4347:4352  owner */\n      dup4\n        /* \"tests/rcclevel1/erc721.sol\":4339:4352  from == owner */\n      0xffffffffffffffffffffffffffffffffffffffff\n      and\n        /* \"tests/rcclevel1/erc721.sol\":4339:4343  from */\n      dup4\n        /* \"tests/rcclevel1/erc721.sol\":4339:4352  from == owner */\n      0xffffffffffffffffffffffffffffffffffffffff\n      and\n      eq\n        /* \"tests/rcclevel1/erc721.sol\":4331:4366  require(from == owner, \"not owner\") */\n      tag_128\n      jumpi\n      mload(0x40)\n      0x08c379a000000000000000000000000000000000000000000000000000000000\n      dup2\n      mstore\n      0x04\n      add\n      tag_129\n      swap1\n      tag_130\n      jump\t// in\n    tag_129:\n      mload(0x40)\n      dup1\n      swap2\n      sub\n      swap1\n      revert\n    tag_128:\n        /* \"tests/rcclevel1/erc721.sol\":4399:4400  0 */\n      0x00\n        /* \"tests/rcclevel1/erc721.sol\":4385:4401  to != address(0) */\n      0xffffffffffffffffffffffffffffffffffffffff\n      and\n        /* \"tests/rcclevel1/erc721.sol\":4385:4387  to */\n      dup3\n        /* \"tests/rcclevel1/erc721.sol\":4385:4401  to != address(0) */\n      0xffffffffffffffffffffffffffffffffffffffff\n      and\n      sub\n        /* \"tests/rcclevel1/erc721.sol\":4377:4434  require(to != address(0), \"transfer to the zero address\") */\n      tag_131\n      jumpi\n      mload(0x40)\n      0x08c379a000000000000000000000000000000000000000000000000000000000\n      dup2\n      mstore\n      0x04\n      add\n      tag_132\n      swap1\n      tag_133\n      jump\t// in\n    tag_132:\n      mload(0x40)\n      dup1\n      swap2\n      sub\n      swap1\n      revert\n    tag_131:\n        /* \"tests/rcclevel1/erc721.sol\":4447:4483  _approve(owner, address(0), tokenId) */\n      tag_134\n        /* \"tests/rcclevel1/erc721.sol\":4456:4461  owner */\n      dup5\n        /* \"tests/rcclevel1/erc721.sol\":4471:4472  0 */\n      0x00\n        /* \"tests/rcclevel1/erc721.sol\":4475:4482  tokenId */\n      dup4\n        /* \"tests/rcclevel1/erc721.sol\":4447:4455  _approve */\n      tag_80\n        /* \"tests/rcclevel1/erc721.sol\":4447:4483  _approve(owner, address(0), tokenId) */\n      jump\t// in\n    tag_134:\n        /* \"tests/rcclevel1/erc721.sol\":4515:4516  1 */\n      0x01\n        /* \"tests/rcclevel1/erc721.sol\":4496:4505  _balances */\n      dup1\n        /* \"tests/rcclevel1/erc721.sol\":4496:4511  _balances[from] */\n      0x00\n        /* \"tests/rcclevel1/erc721.sol\":4506:4510  from */\n      dup6\n        /* \"tests/rcclevel1/erc721.sol\":4496:4511  _balances[from] */\n      0xffffffffffffffffffffffffffffffffffffffff\n      and\n      0xffffffffffffffffffffffffffffffffffffffff\n      and\n      dup2\n      mstore\n      0x20\n      add\n      swap1\n      dup2\n      mstore\n      0x20\n      add\n      0x00\n      keccak256\n      0x00\n        /* \"tests/rcclevel1/erc721.sol\":4496:4516  _balances[from] -= 1 */\n      dup3\n      dup3\n      sload\n      tag_135\n      swap2\n      swap1\n      tag_105\n      jump\t// in\n    tag_135:\n      swap3\n      pop\n      pop\n      dup2\n      swap1\n      sstore\n      pop\n        /* \"tests/rcclevel1/erc721.sol\":4544:4545  1 */\n      0x01\n        /* \"tests/rcclevel1/erc721.sol\":4527:4536  _balances */\n      dup1\n        /* \"tests/rcclevel1/erc721.sol\":4527:4540  _balances[to] */\n      0x00\n        /* \"tests/rcclevel1/erc721.sol\":4537:4539  to */\n      dup5\n        /* \"tests/rcclevel1/erc721.sol\":4527:4540  _balances[to] */\n      0xffffffffffffffffffffffffffffffffffffffff\n      and\n      0xffffffffffffffffffffffffffffffffffffffff\n      and\n      dup2\n      mstore\n      0x20\n      add\n      swap1\n      dup2\n      mstore\n      0x20\n      add\n      0x00\n      keccak256\n      0x00\n        /* \"tests/rcclevel1/erc721.sol\":4527:4545  _balances[to] += 1 */\n      dup3\n      dup3\n      sload\n      tag_136\n      swap2\n      swap1\n      tag_98\n      jump\t// in\n    tag_136:\n      swap3\n      pop\n      pop\n      dup2\n      swap1\n      sstore\n      pop\n        /* \"tests/rcclevel1/erc721.sol\":4575:4577  to */\n      dup2\n        /* \"tests/rcclevel1/erc721.sol\":4556:4563  _owners */\n      0x00\n        /* \"tests/rcclevel1/erc721.sol\":4556:4572  _owners[tokenId] */\n      dup1\n        /* \"tests/rcclevel1/erc721.sol\":4564:4571  tokenId */\n      dup4\n        /* \"tests/rcclevel1/erc721.sol\":4556:4572  _owners[tokenId] */\n      dup2\n      mstore\n      0x20\n      add\n      swap1\n      dup2\n      mstore\n      0x20\n      add\n      0x00\n      keccak256\n      0x00\n        /* \"tests/rcclevel1/erc721.sol\":4556:4577  _owners[tokenId] = to */\n      0x0100\n      exp\n      dup2\n      sload\n      dup2\n      0xffffffffffffffffffffffffffffffffffffffff\n      mul\n      not\n      and\n      swap1\n      dup4\n      0xffffffffffffffffffffffffffffffffffffffff\n      and\n      mul\n      or\n      swap1\n      sstore\n      pop\n        /* \"tests/rcclevel1/erc721.sol\":4614:4621  tokenId */\n      dup1\n        /* \"tests/rcclevel1/erc721.sol\":4610:4612  to */\n      dup3\n        /* \"tests/rcclevel1/erc721.sol\":4595:4622  Transfer(from, to, tokenId) */\n      0xffffffffffffffffffffffffffffffffffffffff\n      and\n        /* \"tests/rcclevel1/erc721.sol\":4604:4608  from */\n      dup5\n        /* \"tests/rcclevel1/erc721.sol\":4595:4622  Transfer(from, to, tokenId) */\n      0xffffffffffffffffffffffffffffffffffffffff\n      and\n      0xddf252ad1be2c89b69c2b068fc378daa952ba7f163c4a11628f55a4df523b3ef\n      mload(0x40)\n      mload(0x40)\n      dup1\n      swap2\n      sub\n      swap1\n      log4\n        /* \"tests/rcclevel1/erc721.sol\":4195:4630  function _transfer(... */\n      pop\n      pop\n      pop\n      pop\n      jump\t// out\n        /* \"tests/rcclevel1/erc721.sol\":5504:5806  function _safeTransfer(... */\n    tag_121:\n        /* \"tests/rcclevel1/erc721.sol\":5673:5708  _transfer(owner, from, to, tokenId) */\n      tag_138\n        /* \"tests/rcclevel1/erc721.sol\":5683:5688  owner */\n      dup6\n        /* \"tests/rcclevel1/erc721.sol\":5690:5694  from */\n      dup6\n        /* \"tests/rcclevel1/erc721.sol\":5696:5698  to */\n      dup6\n        /* \"tests/rcclevel1/erc721.sol\":5700:5707  tokenId */\n      dup6\n        /* \"tests/rcclevel1/erc721.sol\":5673:5682  _transfer */\n      tag_89\n        /* \"tests/rcclevel1/erc721.sol\":5673:5708  _transfer(owner, from, to, tokenId) */\n      jump\t// in\n    tag_138:\n        /* \"tests/rcclevel1/erc721.sol\":5727:5775  _checkOnERC721Received(from, to, tokenId, _data) */\n      tag_139\n        /* \"tests/rcclevel1/erc721.sol\":5750:5754  from */\n      dup5\n        /* \"tests/rcclevel1/erc721.sol\":5756:5758  to */\n      dup5\n        /* \"tests/rcclevel1/erc721.sol\":5760:5767  tokenId */\n      dup5\n        /* \"tests/rcclevel1/erc721.sol\":5769:5774  _data */\n      dup5\n        /* \"tests/rcclevel1/erc721.sol\":5727:5749  _checkOnERC721Received */\n      tag_140\n        /* \"tests/rcclevel1/erc721.sol\":5727:5775  _checkOnERC721Received(from, to, tokenId, _data) */\n      jump\t// in\n    tag_139:\n        /* \"tests/rcclevel1/erc721.sol\":5719:5798  require(_checkOnERC721Received(from, to, tokenId, _data), \"not ERC721Receiver\") */\n      tag_141\n      jumpi\n      mload(0x40)\n      0x08c379a000000000000000000000000000000000000000000000000000000000\n      dup2\n      mstore\n      0x04\n      add\n      tag_142\n      swap1\n      tag_143\n      jump\t// in\n    tag_142:\n      mload(0x40)\n      dup1\n      swap2\n      sub\n      swap1\n      revert\n    tag_141:\n        /* \"tests/rcclevel1/erc721.sol\":5504:5806  function _safeTransfer(... */\n      pop\n      pop\n      pop\n      pop\n      pop\n      jump\t// out\n        /* \"tests/rcclevel1/erc721.sol\":4986:5496  function _checkOnERC721Received(... */\n    tag_140:\n        /* \"tests/rcclevel1/erc721.sol\":5138:5142  bool */\n      0x00\n        /* \"tests/rcclevel1/erc721.sol\":5159:5174  to.isContract() */\n      tag_145\n        /* \"tests/rcclevel1/erc721.sol\":5159:5161  to */\n      dup5\n        /* \"tests/rcclevel1/erc721.sol\":5159:5172  to.isContract */\n      0xffffffffffffffffffffffffffffffffffffffff\n      and\n      tag_146\n        /* \"tests/rcclevel1/erc721.sol\":5159:5174  to.isContract() */\n      jump\t// in\n    tag_145:\n        /* \"tests/rcclevel1/erc721.sol\":5155:5489  if (to.isContract()) {... */\n      iszero\n      tag_147\n      jumpi\n        /* \"tests/rcclevel1/erc721.sol\":5392:5433  IERC721Receiver.onERC721Received.selector */\n      shl(0xe0, 0x150b7a02)\n        /* \"tests/rcclevel1/erc721.sol\":5215:5433  IERC721Receiver(to).onERC721Received(... */\n      not(0xffffffffffffffffffffffffffffffffffffffffffffffffffffffff)\n      and\n        /* \"tests/rcclevel1/erc721.sol\":5231:5233  to */\n      dup5\n        /* \"tests/rcclevel1/erc721.sol\":5215:5251  IERC721Receiver(to).onERC721Received */\n      0xffffffffffffffffffffffffffffffffffffffff\n      and\n      0x150b7a02\n        /* \"tests/rcclevel1/erc721.sol\":5274:5284  msg.sender */\n      caller\n        /* \"tests/rcclevel1/erc721.sol\":5307:5311  from */\n      dup9\n        /* \"tests/rcclevel1/erc721.sol\":5334:5341  tokenId */\n      dup8\n        /* \"tests/rcclevel1/erc721.sol\":5364:5369  _data */\n      dup8\n        /* \"tests/rcclevel1/erc721.sol\":5215:5388  IERC721Receiver(to).onERC721Received(... */\n      mload(0x40)\n      dup6\n      0xffffffff\n      and\n      0xe0\n      shl\n      dup2\n      mstore\n      0x04\n      add\n      tag_148\n      swap5\n      swap4\n      swap3\n      swap2\n      swap1\n      tag_149\n      jump\t// in\n    tag_148:\n      0x20\n      mload(0x40)\n      dup1\n      dup4\n      sub\n      dup2\n      0x00\n      dup8\n      gas\n      call\n      iszero\n      dup1\n      iszero\n      tag_151\n      jumpi\n      returndatasize\n      0x00\n      dup1\n      returndatacopy\n      revert(0x00, returndatasize)\n    tag_151:\n      pop\n      pop\n      pop\n      pop\n      mload(0x40)\n      returndatasize\n      not(0x1f)\n      0x1f\n      dup3\n      add\n      and\n      dup3\n      add\n      dup1\n      0x40\n      mstore\n      pop\n      dup2\n      add\n      swap1\n      tag_152\n      swap2\n      swap1\n      tag_153\n      jump\t// in\n    tag_152:\n        /* \"tests/rcclevel1/erc721.sol\":5215:5433  IERC721Receiver(to).onERC721Received(... */\n      not(0xffffffffffffffffffffffffffffffffffffffffffffffffffffffff)\n      and\n      eq\n        /* \"tests/rcclevel1/erc721.sol\":5191:5433  return... */\n      swap1\n      pop\n      jump(tag_144)\n        /* \"tests/rcclevel1/erc721.sol\":5155:5489  if (to.isContract()) {... */\n    tag_147:\n        /* \"tests/rcclevel1/erc721.sol\":5473:5477  true */\n      0x01\n        /* \"tests/rcclevel1/erc721.sol\":5466:5477  return true */\n      swap1\n      pop\n        /* \"tests/rcclevel1/erc721.sol\":4986:5496  function _checkOnERC721Received(... */\n    tag_144:\n      swap5\n      swap4\n      pop\n      pop\n      pop\n      pop\n      jump\t// out\n        /* \"tests/rcclevel1/erc721.sol\":6990:7183  function isContract(address account) internal view returns (bool) {... */\n    tag_146:\n        /* \"tests/rcclevel1/erc721.sol\":7050:7054  bool */\n      0x00\n        /* \"tests/rcclevel1/erc721.sol\":7067:7076  uint size */\n      dup1\n        /* \"tests/rcclevel1/erc721.sol\":7131:7138  account */\n      dup3\n        /* \"tests/rcclevel1/erc721.sol\":7119:7139  extcodesize(account) */\n      extcodesize\n        /* \"tests/rcclevel1/erc721.sol\":7111:7139  size := extcodesize(account) */\n      swap1\n      pop\n        /* \"tests/rcclevel1/erc721.sol\":7174:7175  0 */\n      0x00\n        /* \"tests/rcclevel1/erc721.sol\":7167:7171  size */\n      dup2\n        /* \"tests/rcclevel1/erc721.sol\":7167:7175  size > 0 */\n      gt\n        /* \"tests/rcclevel1/erc721.sol\":7160:7175  return size > 0 */\n      swap2\n      pop\n      pop\n        /* \"tests/rcclevel1/erc721.sol\":6990:7183  function isContract(address account) internal view returns (bool) {... */\n      swap2\n      swap1\n      pop\n      jump\t// out\n        /* \"#utility.yul\":7:82   */\n    tag_156:\n        /* \"#utility.yul\":40:46   */\n      0x00\n        /* \"#utility.yul\":73:75   */\n      0x40\n        /* \"#utility.yul\":67:76   */\n      mload\n        /* \"#utility.yul\":57:76   */\n      swap1\n      pop\n        /* \"#utility.yul\":7:82   */\n      swap1\n      jump\t// out\n        /* \"#utility.yul\":88:205   */\n    tag_157:\n        /* \"#utility.yul\":197:198   */\n      0x00\n        /* \"#utility.yul\":194:195   */\n      dup1\n        /* \"#utility.yul\":187:199   */\n      revert\n        /* \"#utility.yul\":211:328   */\n    tag_158:\n        /* \"#utility.yul\":320:321   */\n      0x00\n        /* \"#utility.yul\":317:318   */\n      dup1\n        /* \"#utility.yul\":310:322   */\n      revert\n        /* \"#utility.yul\":334:483   */\n    tag_159:\n        /* \"#utility.yul\":370:377   */\n      0x00\n        /* \"#utility.yul\":410:476   */\n      0xffffffff00000000000000000000000000000000000000000000000000000000\n        /* \"#utility.yul\":403:408   */\n      dup3\n        /* \"#utility.yul\":399:477   */\n      and\n        /* \"#utility.yul\":388:477   */\n      swap1\n      pop\n        /* \"#utility.yul\":334:483   */\n      swap2\n      swap1\n      pop\n      jump\t// out\n        /* \"#utility.yul\":489:609   */\n    tag_160:\n        /* \"#utility.yul\":561:584   */\n      tag_216\n        /* \"#utility.yul\":578:583   */\n      dup2\n        /* \"#utility.yul\":561:584   */\n      tag_159\n      jump\t// in\n    tag_216:\n        /* \"#utility.yul\":554:559   */\n      dup2\n        /* \"#utility.yul\":551:585   */\n      eq\n        /* \"#utility.yul\":541:603   */\n      tag_217\n      jumpi\n        /* \"#utility.yul\":599:600   */\n      0x00\n        /* \"#utility.yul\":596:597   */\n      dup1\n        /* \"#utility.yul\":589:601   */\n      revert\n        /* \"#utility.yul\":541:603   */\n    tag_217:\n        /* \"#utility.yul\":489:609   */\n      pop\n      jump\t// out\n        /* \"#utility.yul\":615:752   */\n    tag_161:\n        /* \"#utility.yul\":660:665   */\n      0x00\n        /* \"#utility.yul\":698:704   */\n      dup2\n        /* \"#utility.yul\":685:705   */\n      calldataload\n        /* \"#utility.yul\":676:705   */\n      swap1\n      pop\n        /* \"#utility.yul\":714:746   */\n      tag_219\n        /* \"#utility.yul\":740:745   */\n      dup2\n        /* \"#utility.yul\":714:746   */\n      tag_160\n      jump\t// in\n    tag_219:\n        /* \"#utility.yul\":615:752   */\n      swap3\n      swap2\n      pop\n      pop\n      jump\t// out\n        /* \"#utility.yul\":758:1085   */\n    tag_18:\n        /* \"#utility.yul\":816:822   */\n      0x00\n        /* \"#utility.yul\":865:867   */\n      0x20\n        /* \"#utility.yul\":853:862   */\n      dup3\n        /* \"#utility.yul\":844:851   */\n      dup5\n        /* \"#utility.yul\":840:863   */\n      sub\n        /* \"#utility.yul\":836:868   */\n      slt\n        /* \"#utility.yul\":833:952   */\n      iszero\n      tag_221\n      jumpi\n        /* \"#utility.yul\":871:950   */\n      tag_222\n      tag_157\n      jump\t// in\n    tag_222:\n        /* \"#utility.yul\":833:952   */\n    tag_221:\n        /* \"#utility.yul\":991:992   */\n      0x00\n        /* \"#utility.yul\":1016:1068   */\n      tag_223\n        /* \"#utility.yul\":1060:1067   */\n      dup5\n        /* \"#utility.yul\":1051:1057   */\n      dup3\n        /* \"#utility.yul\":1040:1049   */\n      dup6\n        /* \"#utility.yul\":1036:1058   */\n      add\n        /* \"#utility.yul\":1016:1068   */\n      tag_161\n      jump\t// in\n    tag_223:\n        /* \"#utility.yul\":1006:1068   */\n      swap2\n      pop\n        /* \"#utility.yul\":962:1078   */\n      pop\n        /* \"#utility.yul\":758:1085   */\n      swap3\n      swap2\n      pop\n      pop\n      jump\t// out\n        /* \"#utility.yul\":1091:1181   */\n    tag_162:\n        /* \"#utility.yul\":1125:1132   */\n      0x00\n        /* \"#utility.yul\":1168:1173   */\n      dup2\n        /* \"#utility.yul\":1161:1174   */\n      iszero\n        /* \"#utility.yul\":1154:1175   */\n      iszero\n        /* \"#utility.yul\":1143:1175   */\n      swap1\n      pop\n        /* \"#utility.yul\":1091:1181   */\n      swap2\n      swap1\n      pop\n      jump\t// out\n        /* \"#utility.yul\":1187:1296   */\n    tag_163:\n        /* \"#utility.yul\":1268:1289   */\n      tag_226\n        /* \"#utility.yul\":1283:1288   */\n      dup2\n        /* \"#utility.yul\":1268:1289   */\n      tag_162\n      jump\t// in\n    tag_226:\n        /* \"#utility.yul\":1263:1266   */\n      dup3\n        /* \"#utility.yul\":1256:1290   */\n      mstore\n        /* \"#utility.yul\":1187:1296   */\n      pop\n      pop\n      jump\t// out\n        /* \"#utility.yul\":1302:1512   */\n    tag_21:\n        /* \"#utility.yul\":1389:1393   */\n      0x00\n        /* \"#utility.yul\":1427:1429   */\n      0x20\n        /* \"#utility.yul\":1416:1425   */\n      dup3\n        /* \"#utility.yul\":1412:1430   */\n      add\n        /* \"#utility.yul\":1404:1430   */\n      swap1\n      pop\n        /* \"#utility.yul\":1440:1505   */\n      tag_228\n        /* \"#utility.yul\":1502:1503   */\n      0x00\n        /* \"#utility.yul\":1491:1500   */\n      dup4\n        /* \"#utility.yul\":1487:1504   */\n      add\n        /* \"#utility.yul\":1478:1484   */\n      dup5\n        /* \"#utility.yul\":1440:1505   */\n      tag_163\n      jump\t// in\n    tag_228:\n        /* \"#utility.yul\":1302:1512   */\n      swap3\n      swap2\n      pop\n      pop\n      jump\t// out\n        /* \"#utility.yul\":1518:1595   */\n    tag_164:\n        /* \"#utility.yul\":1555:1562   */\n      0x00\n        /* \"#utility.yul\":1584:1589   */\n      dup2\n        /* \"#utility.yul\":1573:1589   */\n      swap1\n      pop\n        /* \"#utility.yul\":1518:1595   */\n      swap2\n      swap1\n      pop\n      jump\t// out\n        /* \"#utility.yul\":1601:1723   */\n    tag_165:\n        /* \"#utility.yul\":1674:1698   */\n      tag_231\n        /* \"#utility.yul\":1692:1697   */\n      dup2\n        /* \"#utility.yul\":1674:1698   */\n      tag_164\n      jump\t// in\n    tag_231:\n        /* \"#utility.yul\":1667:1672   */\n      dup2\n        /* \"#utility.yul\":1664:1699   */\n      eq\n        /* \"#utility.yul\":1654:1717   */\n      tag_232\n      jumpi\n        /* \"#utility.yul\":1713:1714   */\n      0x00\n        /* \"#utility.yul\":1710:1711   */\n      dup1\n        /* \"#utility.yul\":1703:1715   */\n      revert\n        /* \"#utility.yul\":1654:1717   */\n    tag_232:\n        /* \"#utility.yul\":1601:1723   */\n      pop\n      jump\t// out\n        /* \"#utility.yul\":1729:1868   */\n    tag_166:\n        /* \"#utility.yul\":1775:1780   */\n      0x00\n        /* \"#utility.yul\":1813:1819   */\n      dup2\n        /* \"#utility.yul\":1800:1820   */\n      calldataload\n        /* \"#utility.yul\":1791:1820   */\n      swap1\n      pop\n        /* \"#utility.yul\":1829:1862   */\n      tag_234\n        /* \"#utility.yul\":1856:1861   */\n      dup2\n        /* \"#utility.yul\":1829:1862   */\n      tag_165\n      jump\t// in\n    tag_234:\n        /* \"#utility.yul\":1729:1868   */\n      swap3\n      swap2\n      pop\n      pop\n      jump\t// out\n        /* \"#utility.yul\":1874:2203   */\n    tag_24:\n        /* \"#utility.yul\":1933:1939   */\n      0x00\n        /* \"#utility.yul\":1982:1984   */\n      0x20\n        /* \"#utility.yul\":1970:1979   */\n      dup3\n        /* \"#utility.yul\":1961:1968   */\n      dup5\n        /* \"#utility.yul\":1957:1980   */\n      sub\n        /* \"#utility.yul\":1953:1985   */\n      slt\n        /* \"#utility.yul\":1950:2069   */\n      iszero\n      tag_236\n      jumpi\n        /* \"#utility.yul\":1988:2067   */\n      tag_237\n      tag_157\n      jump\t// in\n    tag_237:\n        /* \"#utility.yul\":1950:2069   */\n    tag_236:\n        /* \"#utility.yul\":2108:2109   */\n      0x00\n        /* \"#utility.yul\":2133:2186   */\n      tag_238\n        /* \"#utility.yul\":2178:2185   */\n      dup5\n        /* \"#utility.yul\":2169:2175   */\n      dup3\n        /* \"#utility.yul\":2158:2167   */\n      dup6\n        /* \"#utility.yul\":2154:2176   */\n      add\n        /* \"#utility.yul\":2133:2186   */\n      tag_166\n      jump\t// in\n    tag_238:\n        /* \"#utility.yul\":2123:2186   */\n      swap2\n      pop\n        /* \"#utility.yul\":2079:2196   */\n      pop\n        /* \"#utility.yul\":1874:2203   */\n      swap3\n      swap2\n      pop\n      pop\n      jump\t// out\n        /* \"#utility.yul\":2209:2335   */\n    tag_167:\n        /* \"#utility.yul\":2246:2253   */\n      0x00\n        /* \"#utility.yul\":2286:2328   */\n      0xffffffffffffffffffffffffffffffffffffffff\n        /* \"#utility.yul\":2279:2284   */\n      dup3\n        /* \"#utility.yul\":2275:2329   */\n      and\n        /* \"#utility.yul\":2264:2329   */\n      swap1\n      pop\n        /* \"#utility.yul\":2209:2335   */\n      swap2\n      swap1\n      pop\n      jump\t// out\n        /* \"#utility.yul\":2341:2437   */\n    tag_168:\n        /* \"#utility.yul\":2378:2385   */\n      0x00\n        /* \"#utility.yul\":2407:2431   */\n      tag_241\n        /* \"#utility.yul\":2425:2430   */\n      dup3\n        /* \"#utility.yul\":2407:2431   */\n      tag_167\n      jump\t// in\n    tag_241:\n        /* \"#utility.yul\":2396:2431   */\n      swap1\n      pop\n        /* \"#utility.yul\":2341:2437   */\n      swap2\n      swap1\n      pop\n      jump\t// out\n        /* \"#utility.yul\":2443:2561   */\n    tag_169:\n        /* \"#utility.yul\":2530:2554   */\n      tag_243\n        /* \"#utility.yul\":2548:2553   */\n      dup2\n        /* \"#utility.yul\":2530:2554   */\n      tag_168\n      jump\t// in\n    tag_243:\n        /* \"#utility.yul\":2525:2528   */\n      dup3\n        /* \"#utility.yul\":2518:2555   */\n      mstore\n        /* \"#utility.yul\":2443:2561   */\n      pop\n      pop\n      jump\t// out\n        /* \"#utility.yul\":2567:2789   */\n    tag_27:\n        /* \"#utility.yul\":2660:2664   */\n      0x00\n        /* \"#utility.yul\":2698:2700   */\n      0x20\n        /* \"#utility.yul\":2687:2696   */\n      dup3\n        /* \"#utility.yul\":2683:2701   */\n      add\n        /* \"#utility.yul\":2675:2701   */\n      swap1\n      pop\n        /* \"#utility.yul\":2711:2782   */\n      tag_245\n        /* \"#utility.yul\":2779:2780   */\n      0x00\n        /* \"#utility.yul\":2768:2777   */\n      dup4\n        /* \"#utility.yul\":2764:2781   */\n      add\n        /* \"#utility.yul\":2755:2761   */\n      dup5\n        /* \"#utility.yul\":2711:2782   */\n      tag_169\n      jump\t// in\n    tag_245:\n        /* \"#utility.yul\":2567:2789   */\n      swap3\n      swap2\n      pop\n      pop\n      jump\t// out\n        /* \"#utility.yul\":2795:2917   */\n    tag_170:\n        /* \"#utility.yul\":2868:2892   */\n      tag_247\n        /* \"#utility.yul\":2886:2891   */\n      dup2\n        /* \"#utility.yul\":2868:2892   */\n      tag_168\n      jump\t// in\n    tag_247:\n        /* \"#utility.yul\":2861:2866   */\n      dup2\n        /* \"#utility.yul\":2858:2893   */\n      eq\n        /* \"#utility.yul\":2848:2911   */\n      tag_248\n      jumpi\n        /* \"#utility.yul\":2907:2908   */\n      0x00\n        /* \"#utility.yul\":2904:2905   */\n      dup1\n        /* \"#utility.yul\":2897:2909   */\n      revert\n        /* \"#utility.yul\":2848:2911   */\n    tag_248:\n        /* \"#utility.yul\":2795:2917   */\n      pop\n      jump\t// out\n        /* \"#utility.yul\":2923:3062   */\n    tag_171:\n        /* \"#utility.yul\":2969:2974   */\n      0x00\n        /* \"#utility.yul\":3007:3013   */\n      dup2\n        /* \"#utility.yul\":2994:3014   */\n      calldataload\n        /* \"#utility.yul\":2985:3014   */\n      swap1\n      pop\n        /* \"#utility.yul\":3023:3056   */\n      tag_250\n        /* \"#utility.yul\":3050:3055   */\n      dup2\n        /* \"#utility.yul\":3023:3056   */\n      tag_170\n      jump\t// in\n    tag_250:\n        /* \"#utility.yul\":2923:3062   */\n      swap3\n      swap2\n      pop\n      pop\n      jump\t// out\n        /* \"#utility.yul\":3068:3542   */\n    tag_30:\n        /* \"#utility.yul\":3136:3142   */\n      0x00\n        /* \"#utility.yul\":3144:3150   */\n      dup1\n        /* \"#utility.yul\":3193:3195   */\n      0x40\n        /* \"#utility.yul\":3181:3190   */\n      dup4\n        /* \"#utility.yul\":3172:3179   */\n      dup6\n        /* \"#utility.yul\":3168:3191   */\n      sub\n        /* \"#utility.yul\":3164:3196   */\n      slt\n        /* \"#utility.yul\":3161:3280   */\n      iszero\n      tag_252\n      jumpi\n        /* \"#utility.yul\":3199:3278   */\n      tag_253\n      tag_157\n      jump\t// in\n    tag_253:\n        /* \"#utility.yul\":3161:3280   */\n    tag_252:\n        /* \"#utility.yul\":3319:3320   */\n      0x00\n        /* \"#utility.yul\":3344:3397   */\n      tag_254\n        /* \"#utility.yul\":3389:3396   */\n      dup6\n        /* \"#utility.yul\":3380:3386   */\n      dup3\n        /* \"#utility.yul\":3369:3378   */\n      dup7\n        /* \"#utility.yul\":3365:3387   */\n      add\n        /* \"#utility.yul\":3344:3397   */\n      tag_171\n      jump\t// in\n    tag_254:\n        /* \"#utility.yul\":3334:3397   */\n      swap3\n      pop\n        /* \"#utility.yul\":3290:3407   */\n      pop\n        /* \"#utility.yul\":3446:3448   */\n      0x20\n        /* \"#utility.yul\":3472:3525   */\n      tag_255\n        /* \"#utility.yul\":3517:3524   */\n      dup6\n        /* \"#utility.yul\":3508:3514   */\n      dup3\n        /* \"#utility.yul\":3497:3506   */\n      dup7\n        /* \"#utility.yul\":3493:3515   */\n      add\n        /* \"#utility.yul\":3472:3525   */\n      tag_166\n      jump\t// in\n    tag_255:\n        /* \"#utility.yul\":3462:3525   */\n      swap2\n      pop\n        /* \"#utility.yul\":3417:3535   */\n      pop\n        /* \"#utility.yul\":3068:3542   */\n      swap3\n      pop\n      swap3\n      swap1\n      pop\n      jump\t// out\n        /* \"#utility.yul\":3548:4167   */\n    tag_34:\n        /* \"#utility.yul\":3625:3631   */\n      0x00\n        /* \"#utility.yul\":3633:3639   */\n      dup1\n        /* \"#utility.yul\":3641:3647   */\n      0x00\n        /* \"#utility.yul\":3690:3692   */\n      0x60\n        /* \"#utility.yul\":3678:3687   */\n      dup5\n        /* \"#utility.yul\":3669:3676   */\n      dup7\n        /* \"#utility.yul\":3665:3688   */\n      sub\n        /* \"#utility.yul\":3661:3693   */\n      slt\n        /* \"#utility.yul\":3658:3777   */\n      iszero\n      tag_257\n      jumpi\n        /* \"#utility.yul\":3696:3775   */\n      tag_258\n      tag_157\n      jump\t// in\n    tag_258:\n        /* \"#utility.yul\":3658:3777   */\n    tag_257:\n        /* \"#utility.yul\":3816:3817   */\n      0x00\n        /* \"#utility.yul\":3841:3894   */\n      tag_259\n        /* \"#utility.yul\":3886:3893   */\n      dup7\n        /* \"#utility.yul\":3877:3883   */\n      dup3\n        /* \"#utility.yul\":3866:3875   */\n      dup8\n        /* \"#utility.yul\":3862:3884   */\n      add\n        /* \"#utility.yul\":3841:3894   */\n      tag_171\n      jump\t// in\n    tag_259:\n        /* \"#utility.yul\":3831:3894   */\n      swap4\n      pop\n        /* \"#utility.yul\":3787:3904   */\n      pop\n        /* \"#utility.yul\":3943:3945   */\n      0x20\n        /* \"#utility.yul\":3969:4022   */\n      tag_260\n        /* \"#utility.yul\":4014:4021   */\n      dup7\n        /* \"#utility.yul\":4005:4011   */\n      dup3\n        /* \"#utility.yul\":3994:4003   */\n      dup8\n        /* \"#utility.yul\":3990:4012   */\n      add\n        /* \"#utility.yul\":3969:4022   */\n      tag_171\n      jump\t// in\n    tag_260:\n        /* \"#utility.yul\":3959:4022   */\n      swap3\n      pop\n        /* \"#utility.yul\":3914:4032   */\n      pop\n        /* \"#utility.yul\":4071:4073   */\n      0x40\n        /* \"#utility.yul\":4097:4150   */\n      tag_261\n        /* \"#utility.yul\":4142:4149   */\n      dup7\n        /* \"#utility.yul\":4133:4139   */\n      dup3\n        /* \"#utility.yul\":4122:4131   */\n      dup8\n        /* \"#utility.yul\":4118:4140   */\n      add\n        /* \"#utility.yul\":4097:4150   */\n      tag_166\n      jump\t// in\n    tag_261:\n        /* \"#utility.yul\":4087:4150   */\n      swap2\n      pop\n        /* \"#utility.yul\":4042:4160   */\n      pop\n        /* \"#utility.yul\":3548:4167   */\n      swap3\n      pop\n      swap3\n      pop\n      swap3\n      jump\t// out\n        /* \"#utility.yul\":4173:4502   */\n    tag_51:\n        /* \"#utility.yul\":4232:4238   */\n      0x00\n        /* \"#utility.yul\":4281:4283   */\n      0x20\n        /* \"#utility.yul\":4269:4278   */\n      dup3\n        /* \"#utility.yul\":4260:4267   */\n      dup5\n        /* \"#utility.yul\":4256:4279   */\n      sub\n        /* \"#utility.yul\":4252:4284   */\n      slt\n        /* \"#utility.yul\":4249:4368   */\n      iszero\n      tag_263\n      jumpi\n        /* \"#utility.yul\":4287:4366   */\n      tag_264\n      tag_157\n      jump\t// in\n    tag_264:\n        /* \"#utility.yul\":4249:4368   */\n    tag_263:\n        /* \"#utility.yul\":4407:4408   */\n      0x00\n        /* \"#utility.yul\":4432:4485   */\n      tag_265\n        /* \"#utility.yul\":4477:4484   */\n      dup5\n        /* \"#utility.yul\":4468:4474   */\n      dup3\n        /* \"#utility.yul\":4457:4466   */\n      dup6\n        /* \"#utility.yul\":4453:4475   */\n      add\n        /* \"#utility.yul\":4432:4485   */\n      tag_171\n      jump\t// in\n    tag_265:\n        /* \"#utility.yul\":4422:4485   */\n      swap2\n      pop\n        /* \"#utility.yul\":4378:4495   */\n      pop\n        /* \"#utility.yul\":4173:4502   */\n      swap3\n      swap2\n      pop\n      pop\n      jump\t// out\n        /* \"#utility.yul\":4508:4626   */\n    tag_172:\n        /* \"#utility.yul\":4595:4619   */\n      tag_267\n        /* \"#utility.yul\":4613:4618   */\n      dup2\n        /* \"#utility.yul\":4595:4619   */\n      tag_164\n      jump\t// in\n    tag_267:\n        /* \"#utility.yul\":4590:4593   */\n      dup3\n        /* \"#utility.yul\":4583:4620   */\n      mstore\n        /* \"#utility.yul\":4508:4626   */\n      pop\n      pop\n      jump\t// out\n        /* \"#utility.yul\":4632:4854   */\n    tag_54:\n        /* \"#utility.yul\":4725:4729   */\n      0x00\n        /* \"#utility.yul\":4763:4765   */\n      0x20\n        /* \"#utility.yul\":4752:4761   */\n      dup3\n        /* \"#utility.yul\":4748:4766   */\n      add\n        /* \"#utility.yul\":4740:4766   */\n      swap1\n      pop\n        /* \"#utility.yul\":4776:4847   */\n      tag_269\n        /* \"#utility.yul\":4844:4845   */\n      0x00\n        /* \"#utility.yul\":4833:4842   */\n      dup4\n        /* \"#utility.yul\":4829:4846   */\n      add\n        /* \"#utility.yul\":4820:4826   */\n      dup5\n        /* \"#utility.yul\":4776:4847   */\n      tag_172\n      jump\t// in\n    tag_269:\n        /* \"#utility.yul\":4632:4854   */\n      swap3\n      swap2\n      pop\n      pop\n      jump\t// out\n        /* \"#utility.yul\":4860:4976   */\n    tag_173:\n        /* \"#utility.yul\":4930:4951   */\n      tag_271\n        /* \"#utility.yul\":4945:4950   */\n      dup2\n        /* \"#utility.yul\":4930:4951   */\n      tag_162\n      jump\t// in\n    tag_271:\n        /* \"#utility.yul\":4923:4928   */\n      dup2\n        /* \"#utility.yul\":4920:4952   */\n      eq\n        /* \"#utility.yul\":4910:4970   */\n      tag_272\n      jumpi\n        /* \"#utility.yul\":4966:4967   */\n      0x00\n        /* \"#utility.yul\":4963:4964   */\n      dup1\n        /* \"#utility.yul\":4956:4968   */\n      revert\n        /* \"#utility.yul\":4910:4970   */\n    tag_272:\n        /* \"#utility.yul\":4860:4976   */\n      pop\n      jump\t// out\n        /* \"#utility.yul\":4982:5115   */\n    tag_174:\n        /* \"#utility.yul\":5025:5030   */\n      0x00\n        /* \"#utility.yul\":5063:5069   */\n      dup2\n        /* \"#utility.yul\":5050:5070   */\n      calldataload\n        /* \"#utility.yul\":5041:5070   */\n      swap1\n      pop\n        /* \"#utility.yul\":5079:5109   */\n      tag_274\n        /* \"#utility.yul\":5103:5108   */\n      dup2\n        /* \"#utility.yul\":5079:5109   */\n      tag_173\n      jump\t// in\n    tag_274:\n        /* \"#utility.yul\":4982:5115   */\n      swap3\n      swap2\n      pop\n      pop\n      jump\t// out\n        /* \"#utility.yul\":5121:5589   */\n    tag_57:\n        /* \"#utility.yul\":5186:5192   */\n      0x00\n        /* \"#utility.yul\":5194:5200   */\n      dup1\n        /* \"#utility.yul\":5243:5245   */\n      0x40\n        /* \"#utility.yul\":5231:5240   */\n      dup4\n        /* \"#utility.yul\":5222:5229   */\n      dup6\n        /* \"#utility.yul\":5218:5241   */\n      sub\n        /* \"#utility.yul\":5214:5246   */\n      slt\n        /* \"#utility.yul\":5211:5330   */\n      iszero\n      tag_276\n      jumpi\n        /* \"#utility.yul\":5249:5328   */\n      tag_277\n      tag_157\n      jump\t// in\n    tag_277:\n        /* \"#utility.yul\":5211:5330   */\n    tag_276:\n        /* \"#utility.yul\":5369:5370   */\n      0x00\n        /* \"#utility.yul\":5394:5447   */\n      tag_278\n        /* \"#utility.yul\":5439:5446   */\n      dup6\n        /* \"#utility.yul\":5430:5436   */\n      dup3\n        /* \"#utility.yul\":5419:5428   */\n      dup7\n        /* \"#utility.yul\":5415:5437   */\n      add\n        /* \"#utility.yul\":5394:5447   */\n      tag_171\n      jump\t// in\n    tag_278:\n        /* \"#utility.yul\":5384:5447   */\n      swap3\n      pop\n        /* \"#utility.yul\":5340:5457   */\n      pop\n        /* \"#utility.yul\":5496:5498   */\n      0x20\n        /* \"#utility.yul\":5522:5572   */\n      tag_279\n        /* \"#utility.yul\":5564:5571   */\n      dup6\n        /* \"#utility.yul\":5555:5561   */\n      dup3\n        /* \"#utility.yul\":5544:5553   */\n      dup7\n        /* \"#utility.yul\":5540:5562   */\n      add\n        /* \"#utility.yul\":5522:5572   */\n      tag_174\n      jump\t// in\n    tag_279:\n        /* \"#utility.yul\":5512:5572   */\n      swap2\n      pop\n        /* \"#utility.yul\":5467:5582   */\n      pop\n        /* \"#utility.yul\":5121:5589   */\n      swap3\n      pop\n      swap3\n      swap1\n      pop\n      jump\t// out\n        /* \"#utility.yul\":5595:5712   */\n    tag_175:\n        /* \"#utility.yul\":5704:5705   */\n      0x00\n        /* \"#utility.yul\":5701:5702   */\n      dup1\n        /* \"#utility.yul\":5694:5706   */\n      revert\n        /* \"#utility.yul\":5718:5835   */\n    tag_176:\n        /* \"#utility.yul\":5827:5828   */\n      0x00\n        /* \"#utility.yul\":5824:5825   */\n      dup1\n        /* \"#utility.yul\":5817:5829   */\n      revert\n        /* \"#utility.yul\":5841:5943   */\n    tag_177:\n        /* \"#utility.yul\":5882:5888   */\n      0x00\n        /* \"#utility.yul\":5933:5935   */\n      0x1f\n        /* \"#utility.yul\":5929:5936   */\n      not\n        /* \"#utility.yul\":5924:5926   */\n      0x1f\n        /* \"#utility.yul\":5917:5922   */\n      dup4\n        /* \"#utility.yul\":5913:5927   */\n      add\n        /* \"#utility.yul\":5909:5937   */\n      and\n        /* \"#utility.yul\":5899:5937   */\n      swap1\n      pop\n        /* \"#utility.yul\":5841:5943   */\n      swap2\n      swap1\n      pop\n      jump\t// out\n        /* \"#utility.yul\":5949:6129   */\n    tag_178:\n        /* \"#utility.yul\":5997:6074   */\n      0x4e487b7100000000000000000000000000000000000000000000000000000000\n        /* \"#utility.yul\":5994:5995   */\n      0x00\n        /* \"#utility.yul\":5987:6075   */\n      mstore\n        /* \"#utility.yul\":6094:6098   */\n      0x41\n        /* \"#utility.yul\":6091:6092   */\n      0x04\n        /* \"#utility.yul\":6084:6099   */\n      mstore\n        /* \"#utility.yul\":6118:6122   */\n      0x24\n        /* \"#utility.yul\":6115:6116   */\n      0x00\n        /* \"#utility.yul\":6108:6123   */\n      revert\n        /* \"#utility.yul\":6135:6416   */\n    tag_179:\n        /* \"#utility.yul\":6218:6245   */\n      tag_285\n        /* \"#utility.yul\":6240:6244   */\n      dup3\n        /* \"#utility.yul\":6218:6245   */\n      tag_177\n      jump\t// in\n    tag_285:\n        /* \"#utility.yul\":6210:6216   */\n      dup2\n        /* \"#utility.yul\":6206:6246   */\n      add\n        /* \"#utility.yul\":6348:6354   */\n      dup2\n        /* \"#utility.yul\":6336:6346   */\n      dup2\n        /* \"#utility.yul\":6333:6355   */\n      lt\n        /* \"#utility.yul\":6312:6330   */\n      0xffffffffffffffff\n        /* \"#utility.yul\":6300:6310   */\n      dup3\n        /* \"#utility.yul\":6297:6331   */\n      gt\n        /* \"#utility.yul\":6294:6356   */\n      or\n        /* \"#utility.yul\":6291:6379   */\n      iszero\n      tag_286\n      jumpi\n        /* \"#utility.yul\":6359:6377   */\n      tag_287\n      tag_178\n      jump\t// in\n    tag_287:\n        /* \"#utility.yul\":6291:6379   */\n    tag_286:\n        /* \"#utility.yul\":6399:6409   */\n      dup1\n        /* \"#utility.yul\":6395:6397   */\n      0x40\n        /* \"#utility.yul\":6388:6410   */\n      mstore\n        /* \"#utility.yul\":6178:6416   */\n      pop\n        /* \"#utility.yul\":6135:6416   */\n      pop\n      pop\n      jump\t// out\n        /* \"#utility.yul\":6422:6551   */\n    tag_180:\n        /* \"#utility.yul\":6456:6462   */\n      0x00\n        /* \"#utility.yul\":6483:6503   */\n      tag_289\n      tag_156\n      jump\t// in\n    tag_289:\n        /* \"#utility.yul\":6473:6503   */\n      swap1\n      pop\n        /* \"#utility.yul\":6512:6545   */\n      tag_290\n        /* \"#utility.yul\":6540:6544   */\n      dup3\n        /* \"#utility.yul\":6532:6538   */\n      dup3\n        /* \"#utility.yul\":6512:6545   */\n      tag_179\n      jump\t// in\n    tag_290:\n        /* \"#utility.yul\":6422:6551   */\n      swap2\n      swap1\n      pop\n      jump\t// out\n        /* \"#utility.yul\":6557:6864   */\n    tag_181:\n        /* \"#utility.yul\":6618:6622   */\n      0x00\n        /* \"#utility.yul\":6708:6726   */\n      0xffffffffffffffff\n        /* \"#utility.yul\":6700:6706   */\n      dup3\n        /* \"#utility.yul\":6697:6727   */\n      gt\n        /* \"#utility.yul\":6694:6750   */\n      iszero\n      tag_292\n      jumpi\n        /* \"#utility.yul\":6730:6748   */\n      tag_293\n      tag_178\n      jump\t// in\n    tag_293:\n        /* \"#utility.yul\":6694:6750   */\n    tag_292:\n        /* \"#utility.yul\":6768:6797   */\n      tag_294\n        /* \"#utility.yul\":6790:6796   */\n      dup3\n        /* \"#utility.yul\":6768:6797   */\n      tag_177\n      jump\t// in\n    tag_294:\n        /* \"#utility.yul\":6760:6797   */\n      swap1\n      pop\n        /* \"#utility.yul\":6852:6856   */\n      0x20\n        /* \"#utility.yul\":6846:6850   */\n      dup2\n        /* \"#utility.yul\":6842:6857   */\n      add\n        /* \"#utility.yul\":6834:6857   */\n      swap1\n      pop\n        /* \"#utility.yul\":6557:6864   */\n      swap2\n      swap1\n      pop\n      jump\t// out\n        /* \"#utility.yul\":6870:7018   */\n    tag_182:\n        /* \"#utility.yul\":6968:6974   */\n      dup3\n        /* \"#utility.yul\":6963:6966   */\n      dup2\n        /* \"#utility.yul\":6958:6961   */\n      dup4\n        /* \"#utility.yul\":6945:6975   */\n      calldatacopy\n        /* \"#utility.yul\":7009:7010   */\n      0x00\n        /* \"#utility.yul\":7000:7006   */\n      dup4\n        /* \"#utility.yul\":6995:6998   */\n      dup4\n        /* \"#utility.yul\":6991:7007   */\n      add\n        /* \"#utility.yul\":6984:7011   */\n      mstore\n        /* \"#utility.yul\":6870:7018   */\n      pop\n      pop\n      pop\n      jump\t// out\n        /* \"#utility.yul\":7024:7447   */\n    tag_183:\n        /* \"#utility.yul\":7101:7106   */\n      0x00\n        /* \"#utility.yul\":7126:7191   */\n      tag_297\n        /* \"#utility.yul\":7142:7190   */\n      tag_298\n        /* \"#utility.yul\":7183:7189   */\n      dup5\n        /* \"#utility.yul\":7142:7190   */\n      tag_181\n      jump\t// in\n    tag_298:\n        /* \"#utility.yul\":7126:7191   */\n      tag_180\n      jump\t// in\n    tag_297:\n        /* \"#utility.yul\":7117:7191   */\n      swap1\n      pop\n        /* \"#utility.yul\":7214:7220   */\n      dup3\n        /* \"#utility.yul\":7207:7212   */\n      dup2\n        /* \"#utility.yul\":7200:7221   */\n      mstore\n        /* \"#utility.yul\":7252:7256   */\n      0x20\n        /* \"#utility.yul\":7245:7250   */\n      dup2\n        /* \"#utility.yul\":7241:7257   */\n      add\n        /* \"#utility.yul\":7290:7293   */\n      dup5\n        /* \"#utility.yul\":7281:7287   */\n      dup5\n        /* \"#utility.yul\":7276:7279   */\n      dup5\n        /* \"#utility.yul\":7272:7288   */\n      add\n        /* \"#utility.yul\":7269:7294   */\n      gt\n        /* \"#utility.yul\":7266:7378   */\n      iszero\n      tag_299\n      jumpi\n        /* \"#utility.yul\":7297:7376   */\n      tag_300\n      tag_176\n      jump\t// in\n    tag_300:\n        /* \"#utility.yul\":7266:7378   */\n    tag_299:\n        /* \"#utility.yul\":7387:7441   */\n      tag_301\n        /* \"#utility.yul\":7434:7440   */\n      dup5\n        /* \"#utility.yul\":7429:7432   */\n      dup3\n        /* \"#utility.yul\":7424:7427   */\n      dup6\n        /* \"#utility.yul\":7387:7441   */\n      tag_182\n      jump\t// in\n    tag_301:\n        /* \"#utility.yul\":7107:7447   */\n      pop\n        /* \"#utility.yul\":7024:7447   */\n      swap4\n      swap3\n      pop\n      pop\n      pop\n      jump\t// out\n        /* \"#utility.yul\":7466:7804   */\n    tag_184:\n        /* \"#utility.yul\":7521:7526   */\n      0x00\n        /* \"#utility.yul\":7570:7573   */\n      dup3\n        /* \"#utility.yul\":7563:7567   */\n      0x1f\n        /* \"#utility.yul\":7555:7561   */\n      dup4\n        /* \"#utility.yul\":7551:7568   */\n      add\n        /* \"#utility.yul\":7547:7574   */\n      slt\n        /* \"#utility.yul\":7537:7659   */\n      tag_303\n      jumpi\n        /* \"#utility.yul\":7578:7657   */\n      tag_304\n      tag_175\n      jump\t// in\n    tag_304:\n        /* \"#utility.yul\":7537:7659   */\n    tag_303:\n        /* \"#utility.yul\":7695:7701   */\n      dup2\n        /* \"#utility.yul\":7682:7702   */\n      calldataload\n        /* \"#utility.yul\":7720:7798   */\n      tag_305\n        /* \"#utility.yul\":7794:7797   */\n      dup5\n        /* \"#utility.yul\":7786:7792   */\n      dup3\n        /* \"#utility.yul\":7779:7783   */\n      0x20\n        /* \"#utility.yul\":7771:7777   */\n      dup7\n        /* \"#utility.yul\":7767:7784   */\n      add\n        /* \"#utility.yul\":7720:7798   */\n      tag_183\n      jump\t// in\n    tag_305:\n        /* \"#utility.yul\":7711:7798   */\n      swap2\n      pop\n        /* \"#utility.yul\":7527:7804   */\n      pop\n        /* \"#utility.yul\":7466:7804   */\n      swap3\n      swap2\n      pop\n      pop\n      jump\t// out\n        /* \"#utility.yul\":7810:8753   */\n    tag_61:\n        /* \"#utility.yul\":7905:7911   */\n      0x00\n        /* \"#utility.yul\":7913:7919   */\n      dup1\n        /* \"#utility.yul\":7921:7927   */\n      0x00\n        /* \"#utility.yul\":7929:7935   */\n      dup1\n        /* \"#utility.yul\":7978:7981   */\n      0x80\n        /* \"#utility.yul\":7966:7975   */\n      dup6\n        /* \"#utility.yul\":7957:7964   */\n      dup8\n        /* \"#utility.yul\":7953:7976   */\n      sub\n        /* \"#utility.yul\":7949:7982   */\n      slt\n        /* \"#utility.yul\":7946:8066   */\n      iszero\n      tag_307\n      jumpi\n        /* \"#utility.yul\":7985:8064   */\n      tag_308\n      tag_157\n      jump\t// in\n    tag_308:\n        /* \"#utility.yul\":7946:8066   */\n    tag_307:\n        /* \"#utility.yul\":8105:8106   */\n      0x00\n        /* \"#utility.yul\":8130:8183   */\n      tag_309\n        /* \"#utility.yul\":8175:8182   */\n      dup8\n        /* \"#utility.yul\":8166:8172   */\n      dup3\n        /* \"#utility.yul\":8155:8164   */\n      dup9\n        /* \"#utility.yul\":8151:8173   */\n      add\n        /* \"#utility.yul\":8130:8183   */\n      tag_171\n      jump\t// in\n    tag_309:\n        /* \"#utility.yul\":8120:8183   */\n      swap5\n      pop\n        /* \"#utility.yul\":8076:8193   */\n      pop\n        /* \"#utility.yul\":8232:8234   */\n      0x20\n        /* \"#utility.yul\":8258:8311   */\n      tag_310\n        /* \"#utility.yul\":8303:8310   */\n      dup8\n        /* \"#utility.yul\":8294:8300   */\n      dup3\n        /* \"#utility.yul\":8283:8292   */\n      dup9\n        /* \"#utility.yul\":8279:8301   */\n      add\n        /* \"#utility.yul\":8258:8311   */\n      tag_171\n      jump\t// in\n    tag_310:\n        /* \"#utility.yul\":8248:8311   */\n      swap4\n      pop\n        /* \"#utility.yul\":8203:8321   */\n      pop\n        /* \"#utility.yul\":8360:8362   */\n      0x40\n        /* \"#utility.yul\":8386:8439   */\n      tag_311\n        /* \"#utility.yul\":8431:8438   */\n      dup8\n        /* \"#utility.yul\":8422:8428   */\n      dup3\n        /* \"#utility.yul\":8411:8420   */\n      dup9\n        /* \"#utility.yul\":8407:8429   */\n      add\n        /* \"#utility.yul\":8386:8439   */\n      tag_166\n      jump\t// in\n    tag_311:\n        /* \"#utility.yul\":8376:8439   */\n      swap3\n      pop\n        /* \"#utility.yul\":8331:8449   */\n      pop\n        /* \"#utility.yul\":8516:8518   */\n      0x60\n        /* \"#utility.yul\":8505:8514   */\n      dup6\n        /* \"#utility.yul\":8501:8519   */\n      add\n        /* \"#utility.yul\":8488:8520   */\n      calldataload\n        /* \"#utility.yul\":8547:8565   */\n      0xffffffffffffffff\n        /* \"#utility.yul\":8539:8545   */\n      dup2\n        /* \"#utility.yul\":8536:8566   */\n      gt\n        /* \"#utility.yul\":8533:8650   */\n      iszero\n      tag_312\n      jumpi\n        /* \"#utility.yul\":8569:8648   */\n      tag_313\n      tag_158\n      jump\t// in\n    tag_313:\n        /* \"#utility.yul\":8533:8650   */\n    tag_312:\n        /* \"#utility.yul\":8674:8736   */\n      tag_314\n        /* \"#utility.yul\":8728:8735   */\n      dup8\n        /* \"#utility.yul\":8719:8725   */\n      dup3\n        /* \"#utility.yul\":8708:8717   */\n      dup9\n        /* \"#utility.yul\":8704:8726   */\n      add\n        /* \"#utility.yul\":8674:8736   */\n      tag_184\n      jump\t// in\n    tag_314:\n        /* \"#utility.yul\":8664:8736   */\n      swap2\n      pop\n        /* \"#utility.yul\":8459:8746   */\n      pop\n        /* \"#utility.yul\":7810:8753   */\n      swap3\n      swap6\n      swap2\n      swap5\n      pop\n      swap3\n      pop\n      jump\t// out\n        /* \"#utility.yul\":8759:9233   */\n    tag_65:\n        /* \"#utility.yul\":8827:8833   */\n      0x00\n        /* \"#utility.yul\":8835:8841   */\n      dup1\n        /* \"#utility.yul\":8884:8886   */\n      0x40\n        /* \"#utility.yul\":8872:8881   */\n      dup4\n        /* \"#utility.yul\":8863:8870   */\n      dup6\n        /* \"#utility.yul\":8859:8882   */\n      sub\n        /* \"#utility.yul\":8855:8887   */\n      slt\n        /* \"#utility.yul\":8852:8971   */\n      iszero\n      tag_316\n      jumpi\n        /* \"#utility.yul\":8890:8969   */\n      tag_317\n      tag_157\n      jump\t// in\n    tag_317:\n        /* \"#utility.yul\":8852:8971   */\n    tag_316:\n        /* \"#utility.yul\":9010:9011   */\n      0x00\n        /* \"#utility.yul\":9035:9088   */\n      tag_318\n        /* \"#utility.yul\":9080:9087   */\n      dup6\n        /* \"#utility.yul\":9071:9077   */\n      dup3\n        /* \"#utility.yul\":9060:9069   */\n      dup7\n        /* \"#utility.yul\":9056:9078   */\n      add\n        /* \"#utility.yul\":9035:9088   */\n      tag_171\n      jump\t// in\n    tag_318:\n        /* \"#utility.yul\":9025:9088   */\n      swap3\n      pop\n        /* \"#utility.yul\":8981:9098   */\n      pop\n        /* \"#utility.yul\":9137:9139   */\n      0x20\n        /* \"#utility.yul\":9163:9216   */\n      tag_319\n        /* \"#utility.yul\":9208:9215   */\n      dup6\n        /* \"#utility.yul\":9199:9205   */\n      dup3\n        /* \"#utility.yul\":9188:9197   */\n      dup7\n        /* \"#utility.yul\":9184:9206   */\n      add\n        /* \"#utility.yul\":9163:9216   */\n      tag_171\n      jump\t// in\n    tag_319:\n        /* \"#utility.yul\":9153:9216   */\n      swap2\n      pop\n        /* \"#utility.yul\":9108:9226   */\n      pop\n        /* \"#utility.yul\":8759:9233   */\n      swap3\n      pop\n      swap3\n      swap1\n      pop\n      jump\t// out\n        /* \"#utility.yul\":9239:9408   */\n    tag_185:\n        /* \"#utility.yul\":9323:9334   */\n      0x00\n        /* \"#utility.yul\":9357:9363   */\n      dup3\n        /* \"#utility.yul\":9352:9355   */\n      dup3\n        /* \"#utility.yul\":9345:9364   */\n      mstore\n        /* \"#utility.yul\":9397:9401   */\n      0x20\n        /* \"#utility.yul\":9392:9395   */\n      dup3\n        /* \"#utility.yul\":9388:9402   */\n      add\n        /* \"#utility.yul\":9373:9402   */\n      swap1\n      pop\n        /* \"#utility.yul\":9239:9408   */\n      swap3\n      swap2\n      pop\n      pop\n      jump\t// out\n        /* \"#utility.yul\":9414:9583   */\n    tag_186:\n        /* \"#utility.yul\":9554:9575   */\n      0x746f6b656e20646f65736e277420657869737400000000000000000000000000\n        /* \"#utility.yul\":9550:9551   */\n      0x00\n        /* \"#utility.yul\":9542:9548   */\n      dup3\n        /* \"#utility.yul\":9538:9552   */\n      add\n        /* \"#utility.yul\":9531:9576   */\n      mstore\n        /* \"#utility.yul\":9414:9583   */\n      pop\n      jump\t// out\n        /* \"#utility.yul\":9589:9955   */\n    tag_187:\n        /* \"#utility.yul\":9731:9734   */\n      0x00\n        /* \"#utility.yul\":9752:9819   */\n      tag_323\n        /* \"#utility.yul\":9816:9818   */\n      0x13\n        /* \"#utility.yul\":9811:9814   */\n      dup4\n        /* \"#utility.yul\":9752:9819   */\n      tag_185\n      jump\t// in\n    tag_323:\n        /* \"#utility.yul\":9745:9819   */\n      swap2\n      pop\n        /* \"#utility.yul\":9828:9921   */\n      tag_324\n        /* \"#utility.yul\":9917:9920   */\n      dup3\n        /* \"#utility.yul\":9828:9921   */\n      tag_186\n      jump\t// in\n    tag_324:\n        /* \"#utility.yul\":9946:9948   */\n      0x20\n        /* \"#utility.yul\":9941:9944   */\n      dup3\n        /* \"#utility.yul\":9937:9949   */\n      add\n        /* \"#utility.yul\":9930:9949   */\n      swap1\n      pop\n        /* \"#utility.yul\":9589:9955   */\n      swap2\n      swap1\n      pop\n      jump\t// out\n        /* \"#utility.yul\":9961:10380   */\n    tag_73:\n        /* \"#utility.yul\":10127:10131   */\n      0x00\n        /* \"#utility.yul\":10165:10167   */\n      0x20\n        /* \"#utility.yul\":10154:10163   */\n      dup3\n        /* \"#utility.yul\":10150:10168   */\n      add\n        /* \"#utility.yul\":10142:10168   */\n      swap1\n      pop\n        /* \"#utility.yul\":10214:10223   */\n      dup2\n        /* \"#utility.yul\":10208:10212   */\n      dup2\n        /* \"#utility.yul\":10204:10224   */\n      sub\n        /* \"#utility.yul\":10200:10201   */\n      0x00\n        /* \"#utility.yul\":10189:10198   */\n      dup4\n        /* \"#utility.yul\":10185:10202   */\n      add\n        /* \"#utility.yul\":10178:10225   */\n      mstore\n        /* \"#utility.yul\":10242:10373   */\n      tag_326\n        /* \"#utility.yul\":10368:10372   */\n      dup2\n        /* \"#utility.yul\":10242:10373   */\n      tag_187\n      jump\t// in\n    tag_326:\n        /* \"#utility.yul\":10234:10373   */\n      swap1\n      pop\n        /* \"#utility.yul\":9961:10380   */\n      swap2\n      swap1\n      pop\n      jump\t// out\n        /* \"#utility.yul\":10386:10566   */\n    tag_188:\n        /* \"#utility.yul\":10526:10558   */\n      0x6e6f74206f776e6572206e6f7220617070726f76656420666f7220616c6c0000\n        /* \"#utility.yul\":10522:10523   */\n      0x00\n        /* \"#utility.yul\":10514:10520   */\n      dup3\n        /* \"#utility.yul\":10510:10524   */\n      add\n        /* \"#utility.yul\":10503:10559   */\n      mstore\n        /* \"#utility.yul\":10386:10566   */\n      pop\n      jump\t// out\n        /* \"#utility.yul\":10572:10938   */\n    tag_189:\n        /* \"#utility.yul\":10714:10717   */\n      0x00\n        /* \"#utility.yul\":10735:10802   */\n      tag_329\n        /* \"#utility.yul\":10799:10801   */\n      0x1e\n        /* \"#utility.yul\":10794:10797   */\n      dup4\n        /* \"#utility.yul\":10735:10802   */\n      tag_185\n      jump\t// in\n    tag_329:\n        /* \"#utility.yul\":10728:10802   */\n      swap2\n      pop\n        /* \"#utility.yul\":10811:10904   */\n      tag_330\n        /* \"#utility.yul\":10900:10903   */\n      dup3\n        /* \"#utility.yul\":10811:10904   */\n      tag_188\n      jump\t// in\n    tag_330:\n        /* \"#utility.yul\":10929:10931   */\n      0x20\n        /* \"#utility.yul\":10924:10927   */\n      dup3\n        /* \"#utility.yul\":10920:10932   */\n      add\n        /* \"#utility.yul\":10913:10932   */\n      swap1\n      pop\n        /* \"#utility.yul\":10572:10938   */\n      swap2\n      swap1\n      pop\n      jump\t// out\n        /* \"#utility.yul\":10944:11363   */\n    tag_78:\n        /* \"#utility.yul\":11110:11114   */\n      0x00\n        /* \"#utility.yul\":11148:11150   */\n      0x20\n        /* \"#utility.yul\":11137:11146   */\n      dup3\n        /* \"#utility.yul\":11133:11151   */\n      add\n        /* \"#utility.yul\":11125:11151   */\n      swap1\n      pop\n        /* \"#utility.yul\":11197:11206   */\n      dup2\n        /* \"#utility.yul\":11191:11195   */\n      dup2\n        /* \"#utility.yul\":11187:11207   */\n      sub\n        /* \"#utility.yul\":11183:11184   */\n      0x00\n        /* \"#utility.yul\":11172:11181   */\n      dup4\n        /* \"#utility.yul\":11168:11185   */\n      add\n        /* \"#utility.yul\":11161:11208   */\n      mstore\n        /* \"#utility.yul\":11225:11356   */\n      tag_332\n        /* \"#utility.yul\":11351:11355   */\n      dup2\n        /* \"#utility.yul\":11225:11356   */\n      tag_189\n      jump\t// in\n    tag_332:\n        /* \"#utility.yul\":11217:11356   */\n      swap1\n      pop\n        /* \"#utility.yul\":10944:11363   */\n      swap2\n      swap1\n      pop\n      jump\t// out\n        /* \"#utility.yul\":11369:11541   */\n    tag_190:\n        /* \"#utility.yul\":11509:11533   */\n      0x6e6f74206f776e6572206e6f7220617070726f76656400000000000000000000\n        /* \"#utility.yul\":11505:11506   */\n      0x00\n        /* \"#utility.yul\":11497:11503   */\n      dup3\n        /* \"#utility.yul\":11493:11507   */\n      add\n        /* \"#utility.yul\":11486:11534   */\n      mstore\n        /* \"#utility.yul\":11369:11541   */\n      pop\n      jump\t// out\n        /* \"#utility.yul\":11547:11913   */\n    tag_191:\n        /* \"#utility.yul\":11689:11692   */\n      0x00\n        /* \"#utility.yul\":11710:11777   */\n      tag_335\n        /* \"#utility.yul\":11774:11776   */\n      0x16\n        /* \"#utility.yul\":11769:11772   */\n      dup4\n        /* \"#utility.yul\":11710:11777   */\n      tag_185\n      jump\t// in\n    tag_335:\n        /* \"#utility.yul\":11703:11777   */\n      swap2\n      pop\n        /* \"#utility.yul\":11786:11879   */\n      tag_336\n        /* \"#utility.yul\":11875:11878   */\n      dup3\n        /* \"#utility.yul\":11786:11879   */\n      tag_190\n      jump\t// in\n    tag_336:\n        /* \"#utility.yul\":11904:11906   */\n      0x20\n        /* \"#utility.yul\":11899:11902   */\n      dup3\n        /* \"#utility.yul\":11895:11907   */\n      add\n        /* \"#utility.yul\":11888:11907   */\n      swap1\n      pop\n        /* \"#utility.yul\":11547:11913   */\n      swap2\n      swap1\n      pop\n      jump\t// out\n        /* \"#utility.yul\":11919:12338   */\n    tag_87:\n        /* \"#utility.yul\":12085:12089   */\n      0x00\n        /* \"#utility.yul\":12123:12125   */\n      0x20\n        /* \"#utility.yul\":12112:12121   */\n      dup3\n        /* \"#utility.yul\":12108:12126   */\n      add\n        /* \"#utility.yul\":12100:12126   */\n      swap1\n      pop\n        /* \"#utility.yul\":12172:12181   */\n      dup2\n        /* \"#utility.yul\":12166:12170   */\n      dup2\n        /* \"#utility.yul\":12162:12182   */\n      sub\n        /* \"#utility.yul\":12158:12159   */\n      0x00\n        /* \"#utility.yul\":12147:12156   */\n      dup4\n        /* \"#utility.yul\":12143:12160   */\n      add\n        /* \"#utility.yul\":12136:12183   */\n      mstore\n        /* \"#utility.yul\":12200:12331   */\n      tag_338\n        /* \"#utility.yul\":12326:12330   */\n      dup2\n        /* \"#utility.yul\":12200:12331   */\n      tag_191\n      jump\t// in\n    tag_338:\n        /* \"#utility.yul\":12192:12331   */\n      swap1\n      pop\n        /* \"#utility.yul\":11919:12338   */\n      swap2\n      swap1\n      pop\n      jump\t// out\n        /* \"#utility.yul\":12344:12514   */\n    tag_192:\n        /* \"#utility.yul\":12484:12506   */\n      0x6d696e7420746f207a65726f2061646472657373000000000000000000000000\n        /* \"#utility.yul\":12480:12481   */\n      0x00\n        /* \"#utility.yul\":12472:12478   */\n      dup3\n        /* \"#utility.yul\":12468:12482   */\n      add\n        /* \"#utility.yul\":12461:12507   */\n      mstore\n        /* \"#utility.yul\":12344:12514   */\n      pop\n      jump\t// out\n        /* \"#utility.yul\":12520:12886   */\n    tag_193:\n        /* \"#utility.yul\":12662:12665   */\n      0x00\n        /* \"#utility.yul\":12683:12750   */\n      tag_341\n        /* \"#utility.yul\":12747:12749   */\n      0x14\n        /* \"#utility.yul\":12742:12745   */\n      dup4\n        /* \"#utility.yul\":12683:12750   */\n      tag_185\n      jump\t// in\n    tag_341:\n        /* \"#utility.yul\":12676:12750   */\n      swap2\n      pop\n        /* \"#utility.yul\":12759:12852   */\n      tag_342\n        /* \"#utility.yul\":12848:12851   */\n      dup3\n        /* \"#utility.yul\":12759:12852   */\n      tag_192\n      jump\t// in\n    tag_342:\n        /* \"#utility.yul\":12877:12879   */\n      0x20\n        /* \"#utility.yul\":12872:12875   */\n      dup3\n        /* \"#utility.yul\":12868:12880   */\n      add\n        /* \"#utility.yul\":12861:12880   */\n      swap1\n      pop\n        /* \"#utility.yul\":12520:12886   */\n      swap2\n      swap1\n      pop\n      jump\t// out\n        /* \"#utility.yul\":12892:13311   */\n    tag_93:\n        /* \"#utility.yul\":13058:13062   */\n      0x00\n        /* \"#utility.yul\":13096:13098   */\n      0x20\n        /* \"#utility.yul\":13085:13094   */\n      dup3\n        /* \"#utility.yul\":13081:13099   */\n      add\n        /* \"#utility.yul\":13073:13099   */\n      swap1\n      pop\n        /* \"#utility.yul\":13145:13154   */\n      dup2\n        /* \"#utility.yul\":13139:13143   */\n      dup2\n        /* \"#utility.yul\":13135:13155   */\n      sub\n        /* \"#utility.yul\":13131:13132   */\n      0x00\n        /* \"#utility.yul\":13120:13129   */\n      dup4\n        /* \"#utility.yul\":13116:13133   */\n      add\n        /* \"#utility.yul\":13109:13156   */\n      mstore\n        /* \"#utility.yul\":13173:13304   */\n      tag_344\n        /* \"#utility.yul\":13299:13303   */\n      dup2\n        /* \"#utility.yul\":13173:13304   */\n      tag_193\n      jump\t// in\n    tag_344:\n        /* \"#utility.yul\":13165:13304   */\n      swap1\n      pop\n        /* \"#utility.yul\":12892:13311   */\n      swap2\n      swap1\n      pop\n      jump\t// out\n        /* \"#utility.yul\":13317:13487   */\n    tag_194:\n        /* \"#utility.yul\":13457:13479   */\n      0x746f6b656e20616c7265616479206d696e746564000000000000000000000000\n        /* \"#utility.yul\":13453:13454   */\n      0x00\n        /* \"#utility.yul\":13445:13451   */\n      dup3\n        /* \"#utility.yul\":13441:13455   */\n      add\n        /* \"#utility.yul\":13434:13480   */\n      mstore\n        /* \"#utility.yul\":13317:13487   */\n      pop\n      jump\t// out\n        /* \"#utility.yul\":13493:13859   */\n    tag_195:\n        /* \"#utility.yul\":13635:13638   */\n      0x00\n        /* \"#utility.yul\":13656:13723   */\n      tag_347\n        /* \"#utility.yul\":13720:13722   */\n      0x14\n        /* \"#utility.yul\":13715:13718   */\n      dup4\n        /* \"#utility.yul\":13656:13723   */\n      tag_185\n      jump\t// in\n    tag_347:\n        /* \"#utility.yul\":13649:13723   */\n      swap2\n      pop\n        /* \"#utility.yul\":13732:13825   */\n      tag_348\n        /* \"#utility.yul\":13821:13824   */\n      dup3\n        /* \"#utility.yul\":13732:13825   */\n      tag_194\n      jump\t// in\n    tag_348:\n        /* \"#utility.yul\":13850:13852   */\n      0x20\n        /* \"#utility.yul\":13845:13848   */\n      dup3\n        /* \"#utility.yul\":13841:13853   */\n      add\n        /* \"#utility.yul\":13834:13853   */\n      swap1\n      pop\n        /* \"#utility.yul\":13493:13859   */\n      swap2\n      swap1\n      pop\n      jump\t// out\n        /* \"#utility.yul\":13865:14284   */\n    tag_96:\n        /* \"#utility.yul\":14031:14035   */\n      0x00\n        /* \"#utility.yul\":14069:14071   */\n      0x20\n        /* \"#utility.yul\":14058:14067   */\n      dup3\n        /* \"#utility.yul\":14054:14072   */\n      add\n        /* \"#utility.yul\":14046:14072   */\n      swap1\n      pop\n        /* \"#utility.yul\":14118:14127   */\n      dup2\n        /* \"#utility.yul\":14112:14116   */\n      dup2\n        /* \"#utility.yul\":14108:14128   */\n      sub\n        /* \"#utility.yul\":14104:14105   */\n      0x00\n        /* \"#utility.yul\":14093:14102   */\n      dup4\n        /* \"#utility.yul\":14089:14106   */\n      add\n        /* \"#utility.yul\":14082:14129   */\n      mstore\n        /* \"#utility.yul\":14146:14277   */\n      tag_350\n        /* \"#utility.yul\":14272:14276   */\n      dup2\n        /* \"#utility.yul\":14146:14277   */\n      tag_195\n      jump\t// in\n    tag_350:\n        /* \"#utility.yul\":14138:14277   */\n      swap1\n      pop\n        /* \"#utility.yul\":13865:14284   */\n      swap2\n      swap1\n      pop\n      jump\t// out\n        /* \"#utility.yul\":14290:14470   */\n    tag_196:\n        /* \"#utility.yul\":14338:14415   */\n      0x4e487b7100000000000000000000000000000000000000000000000000000000\n        /* \"#utility.yul\":14335:14336   */\n      0x00\n        /* \"#utility.yul\":14328:14416   */\n      mstore\n        /* \"#utility.yul\":14435:14439   */\n      0x11\n        /* \"#utility.yul\":14432:14433   */\n      0x04\n        /* \"#utility.yul\":14425:14440   */\n      mstore\n        /* \"#utility.yul\":14459:14463   */\n      0x24\n        /* \"#utility.yul\":14456:14457   */\n      0x00\n        /* \"#utility.yul\":14449:14464   */\n      revert\n        /* \"#utility.yul\":14476:14667   */\n    tag_98:\n        /* \"#utility.yul\":14516:14519   */\n      0x00\n        /* \"#utility.yul\":14535:14555   */\n      tag_353\n        /* \"#utility.yul\":14553:14554   */\n      dup3\n        /* \"#utility.yul\":14535:14555   */\n      tag_164\n      jump\t// in\n    tag_353:\n        /* \"#utility.yul\":14530:14555   */\n      swap2\n      pop\n        /* \"#utility.yul\":14569:14589   */\n      tag_354\n        /* \"#utility.yul\":14587:14588   */\n      dup4\n        /* \"#utility.yul\":14569:14589   */\n      tag_164\n      jump\t// in\n    tag_354:\n        /* \"#utility.yul\":14564:14589   */\n      swap3\n      pop\n        /* \"#utility.yul\":14612:14613   */\n      dup3\n        /* \"#utility.yul\":14609:14610   */\n      dup3\n        /* \"#utility.yul\":14605:14614   */\n      add\n        /* \"#utility.yul\":14598:14614   */\n      swap1\n      pop\n        /* \"#utility.yul\":14633:14636   */\n      dup1\n        /* \"#utility.yul\":14630:14631   */\n      dup3\n        /* \"#utility.yul\":14627:14637   */\n      gt\n        /* \"#utility.yul\":14624:14660   */\n      iszero\n      tag_355\n      jumpi\n        /* \"#utility.yul\":14640:14658   */\n      tag_356\n      tag_196\n      jump\t// in\n    tag_356:\n        /* \"#utility.yul\":14624:14660   */\n    tag_355:\n        /* \"#utility.yul\":14476:14667   */\n      swap3\n      swap2\n      pop\n      pop\n      jump\t// out\n        /* \"#utility.yul\":14673:14867   */\n    tag_105:\n        /* \"#utility.yul\":14713:14717   */\n      0x00\n        /* \"#utility.yul\":14733:14753   */\n      tag_358\n        /* \"#utility.yul\":14751:14752   */\n      dup3\n        /* \"#utility.yul\":14733:14753   */\n      tag_164\n      jump\t// in\n    tag_358:\n        /* \"#utility.yul\":14728:14753   */\n      swap2\n      pop\n        /* \"#utility.yul\":14767:14787   */\n      tag_359\n        /* \"#utility.yul\":14785:14786   */\n      dup4\n        /* \"#utility.yul\":14767:14787   */\n      tag_164\n      jump\t// in\n    tag_359:\n        /* \"#utility.yul\":14762:14787   */\n      swap3\n      pop\n        /* \"#utility.yul\":14811:14812   */\n      dup3\n        /* \"#utility.yul\":14808:14809   */\n      dup3\n        /* \"#utility.yul\":14804:14813   */\n      sub\n        /* \"#utility.yul\":14796:14813   */\n      swap1\n      pop\n        /* \"#utility.yul\":14835:14836   */\n      dup2\n        /* \"#utility.yul\":14829:14833   */\n      dup2\n        /* \"#utility.yul\":14826:14837   */\n      gt\n        /* \"#utility.yul\":14823:14860   */\n      iszero\n      tag_360\n      jumpi\n        /* \"#utility.yul\":14840:14858   */\n      tag_361\n      tag_196\n      jump\t// in\n    tag_361:\n        /* \"#utility.yul\":14823:14860   */\n    tag_360:\n        /* \"#utility.yul\":14673:14867   */\n      swap3\n      swap2\n      pop\n      pop\n      jump\t// out\n        /* \"#utility.yul\":14873:15043   */\n    tag_197:\n        /* \"#utility.yul\":15013:15035   */\n      0x6f776e6572203d207a65726f2061646472657373000000000000000000000000\n        /* \"#utility.yul\":15009:15010   */\n      0x00\n        /* \"#utility.yul\":15001:15007   */\n      dup3\n        /* \"#utility.yul\":14997:15011   */\n      add\n        /* \"#utility.yul\":14990:15036   */\n      mstore\n        /* \"#utility.yul\":14873:15043   */\n      pop\n      jump\t// out\n        /* \"#utility.yul\":15049:15415   */\n    tag_198:\n        /* \"#utility.yul\":15191:15194   */\n      0x00\n        /* \"#utility.yul\":15212:15279   */\n      tag_364\n        /* \"#utility.yul\":15276:15278   */\n      0x14\n        /* \"#utility.yul\":15271:15274   */\n      dup4\n        /* \"#utility.yul\":15212:15279   */\n      tag_185\n      jump\t// in\n    tag_364:\n        /* \"#utility.yul\":15205:15279   */\n      swap2\n      pop\n        /* \"#utility.yul\":15288:15381   */\n      tag_365\n        /* \"#utility.yul\":15377:15380   */\n      dup3\n        /* \"#utility.yul\":15288:15381   */\n      tag_197\n      jump\t// in\n    tag_365:\n        /* \"#utility.yul\":15406:15408   */\n      0x20\n        /* \"#utility.yul\":15401:15404   */\n      dup3\n        /* \"#utility.yul\":15397:15409   */\n      add\n        /* \"#utility.yul\":15390:15409   */\n      swap1\n      pop\n        /* \"#utility.yul\":15049:15415   */\n      swap2\n      swap1\n      pop\n      jump\t// out\n        /* \"#utility.yul\":15421:15840   */\n    tag_112:\n        /* \"#utility.yul\":15587:15591   */\n      0x00\n        /* \"#utility.yul\":15625:15627   */\n      0x20\n        /* \"#utility.yul\":15614:15623   */\n      dup3\n        /* \"#utility.yul\":15610:15628   */\n      add\n        /* \"#utility.yul\":15602:15628   */\n      swap1\n      pop\n        /* \"#utility.yul\":15674:15683   */\n      dup2\n        /* \"#utility.yul\":15668:15672   */\n      dup2\n        /* \"#utility.yul\":15664:15684   */\n      sub\n        /* \"#utility.yul\":15660:15661   */\n      0x00\n        /* \"#utility.yul\":15649:15658   */\n      dup4\n        /* \"#utility.yul\":15645:15662   */\n      add\n        /* \"#utility.yul\":15638:15685   */\n      mstore\n        /* \"#utility.yul\":15702:15833   */\n      tag_367\n        /* \"#utility.yul\":15828:15832   */\n      dup2\n        /* \"#utility.yul\":15702:15833   */\n      tag_198\n      jump\t// in\n    tag_367:\n        /* \"#utility.yul\":15694:15833   */\n      swap1\n      pop\n        /* \"#utility.yul\":15421:15840   */\n      swap2\n      swap1\n      pop\n      jump\t// out\n        /* \"#utility.yul\":15846:16005   */\n    tag_199:\n        /* \"#utility.yul\":15986:15997   */\n      0x6e6f74206f776e65720000000000000000000000000000000000000000000000\n        /* \"#utility.yul\":15982:15983   */\n      0x00\n        /* \"#utility.yul\":15974:15980   */\n      dup3\n        /* \"#utility.yul\":15970:15984   */\n      add\n        /* \"#utility.yul\":15963:15998   */\n      mstore\n        /* \"#utility.yul\":15846:16005   */\n      pop\n      jump\t// out\n        /* \"#utility.yul\":16011:16376   */\n    tag_200:\n        /* \"#utility.yul\":16153:16156   */\n      0x00\n        /* \"#utility.yul\":16174:16240   */\n      tag_370\n        /* \"#utility.yul\":16238:16239   */\n      0x09\n        /* \"#utility.yul\":16233:16236   */\n      dup4\n        /* \"#utility.yul\":16174:16240   */\n      tag_185\n      jump\t// in\n    tag_370:\n        /* \"#utility.yul\":16167:16240   */\n      swap2\n      pop\n        /* \"#utility.yul\":16249:16342   */\n      tag_371\n        /* \"#utility.yul\":16338:16341   */\n      dup3\n        /* \"#utility.yul\":16249:16342   */\n      tag_199\n      jump\t// in\n    tag_371:\n        /* \"#utility.yul\":16367:16369   */\n      0x20\n        /* \"#utility.yul\":16362:16365   */\n      dup3\n        /* \"#utility.yul\":16358:16370   */\n      add\n        /* \"#utility.yul\":16351:16370   */\n      swap1\n      pop\n        /* \"#utility.yul\":16011:16376   */\n      swap2\n      swap1\n      pop\n      jump\t// out\n        /* \"#utility.yul\":16382:16801   */\n    tag_130:\n        /* \"#utility.yul\":16548:16552   */\n      0x00\n        /* \"#utility.yul\":16586:16588   */\n      0x20\n        /* \"#utility.yul\":16575:16584   */\n      dup3\n        /* \"#utility.yul\":16571:16589   */\n      add\n        /* \"#utility.yul\":16563:16589   */\n      swap1\n      pop\n        /* \"#utility.yul\":16635:16644   */\n      dup2\n        /* \"#utility.yul\":16629:16633   */\n      dup2\n        /* \"#utility.yul\":16625:16645   */\n      sub\n        /* \"#utility.yul\":16621:16622   */\n      0x00\n        /* \"#utility.yul\":16610:16619   */\n      dup4\n        /* \"#utility.yul\":16606:16623   */\n      add\n        /* \"#utility.yul\":16599:16646   */\n      mstore\n        /* \"#utility.yul\":16663:16794   */\n      tag_373\n        /* \"#utility.yul\":16789:16793   */\n      dup2\n        /* \"#utility.yul\":16663:16794   */\n      tag_200\n      jump\t// in\n    tag_373:\n        /* \"#utility.yul\":16655:16794   */\n      swap1\n      pop\n        /* \"#utility.yul\":16382:16801   */\n      swap2\n      swap1\n      pop\n      jump\t// out\n        /* \"#utility.yul\":16807:16985   */\n    tag_201:\n        /* \"#utility.yul\":16947:16977   */\n      0x7472616e7366657220746f20746865207a65726f206164647265737300000000\n        /* \"#utility.yul\":16943:16944   */\n      0x00\n        /* \"#utility.yul\":16935:16941   */\n      dup3\n        /* \"#utility.yul\":16931:16945   */\n      add\n        /* \"#utility.yul\":16924:16978   */\n      mstore\n        /* \"#utility.yul\":16807:16985   */\n      pop\n      jump\t// out\n        /* \"#utility.yul\":16991:17357   */\n    tag_202:\n        /* \"#utility.yul\":17133:17136   */\n      0x00\n        /* \"#utility.yul\":17154:17221   */\n      tag_376\n        /* \"#utility.yul\":17218:17220   */\n      0x1c\n        /* \"#utility.yul\":17213:17216   */\n      dup4\n        /* \"#utility.yul\":17154:17221   */\n      tag_185\n      jump\t// in\n    tag_376:\n        /* \"#utility.yul\":17147:17221   */\n      swap2\n      pop\n        /* \"#utility.yul\":17230:17323   */\n      tag_377\n        /* \"#utility.yul\":17319:17322   */\n      dup3\n        /* \"#utility.yul\":17230:17323   */\n      tag_201\n      jump\t// in\n    tag_377:\n        /* \"#utility.yul\":17348:17350   */\n      0x20\n        /* \"#utility.yul\":17343:17346   */\n      dup3\n        /* \"#utility.yul\":17339:17351   */\n      add\n        /* \"#utility.yul\":17332:17351   */\n      swap1\n      pop\n        /* \"#utility.yul\":16991:17357   */\n      swap2\n      swap1\n      pop\n      jump\t// out\n        /* \"#utility.yul\":17363:17782   */\n    tag_133:\n        /* \"#utility.yul\":17529:17533   */\n      0x00\n        /* \"#utility.yul\":17567:17569   */\n      0x20\n        /* \"#utility.yul\":17556:17565   */\n      dup3\n        /* \"#utility.yul\":17552:17570   */\n      add\n        /* \"#utility.yul\":17544:17570   */\n      swap1\n      pop\n        /* \"#utility.yul\":17616:17625   */\n      dup2\n        /* \"#utility.yul\":17610:17614   */\n      dup2\n        /* \"#utility.yul\":17606:17626   */\n      sub\n        /* \"#utility.yul\":17602:17603   */\n      0x00\n        /* \"#utility.yul\":17591:17600   */\n      dup4\n        /* \"#utility.yul\":17587:17604   */\n      add\n        /* \"#utility.yul\":17580:17627   */\n      mstore\n        /* \"#utility.yul\":17644:17775   */\n      tag_379\n        /* \"#utility.yul\":17770:17774   */\n      dup2\n        /* \"#utility.yul\":17644:17775   */\n      tag_202\n      jump\t// in\n    tag_379:\n        /* \"#utility.yul\":17636:17775   */\n      swap1\n      pop\n        /* \"#utility.yul\":17363:17782   */\n      swap2\n      swap1\n      pop\n      jump\t// out\n        /* \"#utility.yul\":17788:17956   */\n    tag_203:\n        /* \"#utility.yul\":17928:17948   */\n      0x6e6f742045524337323152656365697665720000000000000000000000000000\n        /* \"#utility.yul\":17924:17925   */\n      0x00\n        /* \"#utility.yul\":17916:17922   */\n      dup3\n        /* \"#utility.yul\":17912:17926   */\n      add\n        /* \"#utility.yul\":17905:17949   */\n      mstore\n        /* \"#utility.yul\":17788:17956   */\n      pop\n      jump\t// out\n        /* \"#utility.yul\":17962:18328   */\n    tag_204:\n        /* \"#utility.yul\":18104:18107   */\n      0x00\n        /* \"#utility.yul\":18125:18192   */\n      tag_382\n        /* \"#utility.yul\":18189:18191   */\n      0x12\n        /* \"#utility.yul\":18184:18187   */\n      dup4\n        /* \"#utility.yul\":18125:18192   */\n      tag_185\n      jump\t// in\n    tag_382:\n        /* \"#utility.yul\":18118:18192   */\n      swap2\n      pop\n        /* \"#utility.yul\":18201:18294   */\n      tag_383\n        /* \"#utility.yul\":18290:18293   */\n      dup3\n        /* \"#utility.yul\":18201:18294   */\n      tag_203\n      jump\t// in\n    tag_383:\n        /* \"#utility.yul\":18319:18321   */\n      0x20\n        /* \"#utility.yul\":18314:18317   */\n      dup3\n        /* \"#utility.yul\":18310:18322   */\n      add\n        /* \"#utility.yul\":18303:18322   */\n      swap1\n      pop\n        /* \"#utility.yul\":17962:18328   */\n      swap2\n      swap1\n      pop\n      jump\t// out\n        /* \"#utility.yul\":18334:18753   */\n    tag_143:\n        /* \"#utility.yul\":18500:18504   */\n      0x00\n        /* \"#utility.yul\":18538:18540   */\n      0x20\n        /* \"#utility.yul\":18527:18536   */\n      dup3\n        /* \"#utility.yul\":18523:18541   */\n      add\n        /* \"#utility.yul\":18515:18541   */\n      swap1\n      pop\n        /* \"#utility.yul\":18587:18596   */\n      dup2\n        /* \"#utility.yul\":18581:18585   */\n      dup2\n        /* \"#utility.yul\":18577:18597   */\n      sub\n        /* \"#utility.yul\":18573:18574   */\n      0x00\n        /* \"#utility.yul\":18562:18571   */\n      dup4\n        /* \"#utility.yul\":18558:18575   */\n      add\n        /* \"#utility.yul\":18551:18598   */\n      mstore\n        /* \"#utility.yul\":18615:18746   */\n      tag_385\n        /* \"#utility.yul\":18741:18745   */\n      dup2\n        /* \"#utility.yul\":18615:18746   */\n      tag_204\n      jump\t// in\n    tag_385:\n        /* \"#utility.yul\":18607:18746   */\n      swap1\n      pop\n        /* \"#utility.yul\":18334:18753   */\n      swap2\n      swap1\n      pop\n      jump\t// out\n        /* \"#utility.yul\":18759:18857   */\n    tag_205:\n        /* \"#utility.yul\":18810:18816   */\n      0x00\n        /* \"#utility.yul\":18844:18849   */\n      dup2\n        /* \"#utility.yul\":18838:18850   */\n      mload\n        /* \"#utility.yul\":18828:18850   */\n      swap1\n      pop\n        /* \"#utility.yul\":18759:18857   */\n      swap2\n      swap1\n      pop\n      jump\t// out\n        /* \"#utility.yul\":18863:19031   */\n    tag_206:\n        /* \"#utility.yul\":18946:18957   */\n      0x00\n        /* \"#utility.yul\":18980:18986   */\n      dup3\n        /* \"#utility.yul\":18975:18978   */\n      dup3\n        /* \"#utility.yul\":18968:18987   */\n      mstore\n        /* \"#utility.yul\":19020:19024   */\n      0x20\n        /* \"#utility.yul\":19015:19018   */\n      dup3\n        /* \"#utility.yul\":19011:19025   */\n      add\n        /* \"#utility.yul\":18996:19025   */\n      swap1\n      pop\n        /* \"#utility.yul\":18863:19031   */\n      swap3\n      swap2\n      pop\n      pop\n      jump\t// out\n        /* \"#utility.yul\":19037:19176   */\n    tag_207:\n        /* \"#utility.yul\":19126:19132   */\n      dup3\n        /* \"#utility.yul\":19121:19124   */\n      dup2\n        /* \"#utility.yul\":19116:19119   */\n      dup4\n        /* \"#utility.yul\":19110:19133   */\n      mcopy\n        /* \"#utility.yul\":19167:19168   */\n      0x00\n        /* \"#utility.yul\":19158:19164   */\n      dup4\n        /* \"#utility.yul\":19153:19156   */\n      dup4\n        /* \"#utility.yul\":19149:19165   */\n      add\n        /* \"#utility.yul\":19142:19169   */\n      mstore\n        /* \"#utility.yul\":19037:19176   */\n      pop\n      pop\n      pop\n      jump\t// out\n        /* \"#utility.yul\":19182:19555   */\n    tag_208:\n        /* \"#utility.yul\":19268:19271   */\n      0x00\n        /* \"#utility.yul\":19296:19334   */\n      tag_390\n        /* \"#utility.yul\":19328:19333   */\n      dup3\n        /* \"#utility.yul\":19296:19334   */\n      tag_205\n      jump\t// in\n    tag_390:\n        /* \"#utility.yul\":19350:19420   */\n      tag_391\n        /* \"#utility.yul\":19413:19419   */\n      dup2\n        /* \"#utility.yul\":19408:19411   */\n      dup6\n        /* \"#utility.yul\":19350:19420   */\n      tag_206\n      jump\t// in\n    tag_391:\n        /* \"#utility.yul\":19343:19420   */\n      swap4\n      pop\n        /* \"#utility.yul\":19429:19494   */\n      tag_392\n        /* \"#utility.yul\":19487:19493   */\n      dup2\n        /* \"#utility.yul\":19482:19485   */\n      dup6\n        /* \"#utility.yul\":19475:19479   */\n      0x20\n        /* \"#utility.yul\":19468:19473   */\n      dup7\n        /* \"#utility.yul\":19464:19480   */\n      add\n        /* \"#utility.yul\":19429:19494   */\n      tag_207\n      jump\t// in\n    tag_392:\n        /* \"#utility.yul\":19519:19548   */\n      tag_393\n        /* \"#utility.yul\":19541:19547   */\n      dup2\n        /* \"#utility.yul\":19519:19548   */\n      tag_177\n      jump\t// in\n    tag_393:\n        /* \"#utility.yul\":19514:19517   */\n      dup5\n        /* \"#utility.yul\":19510:19549   */\n      add\n        /* \"#utility.yul\":19503:19549   */\n      swap2\n      pop\n        /* \"#utility.yul\":19272:19555   */\n      pop\n        /* \"#utility.yul\":19182:19555   */\n      swap3\n      swap2\n      pop\n      pop\n      jump\t// out\n        /* \"#utility.yul\":19561:20201   */\n    tag_149:\n        /* \"#utility.yul\":19756:19760   */\n      0x00\n        /* \"#utility.yul\":19794:19797   */\n      0x80\n        /* \"#utility.yul\":19783:19792   */\n      dup3\n        /* \"#utility.yul\":19779:19798   */\n      add\n        /* \"#utility.yul\":19771:19798   */\n      swap1\n      pop\n        /* \"#utility.yul\":19808:19879   */\n      tag_395\n        /* \"#utility.yul\":19876:19877   */\n      0x00\n        /* \"#utility.yul\":19865:19874   */\n      dup4\n        /* \"#utility.yul\":19861:19878   */\n      add\n        /* \"#utility.yul\":19852:19858   */\n      dup8\n        /* \"#utility.yul\":19808:19879   */\n      tag_169\n      jump\t// in\n    tag_395:\n        /* \"#utility.yul\":19889:19961   */\n      tag_396\n        /* \"#utility.yul\":19957:19959   */\n      0x20\n        /* \"#utility.yul\":19946:19955   */\n      dup4\n        /* \"#utility.yul\":19942:19960   */\n      add\n        /* \"#utility.yul\":19933:19939   */\n      dup7\n        /* \"#utility.yul\":19889:19961   */\n      tag_169\n      jump\t// in\n    tag_396:\n        /* \"#utility.yul\":19971:20043   */\n      tag_397\n        /* \"#utility.yul\":20039:20041   */\n      0x40\n        /* \"#utility.yul\":20028:20037   */\n      dup4\n        /* \"#utility.yul\":20024:20042   */\n      add\n        /* \"#utility.yul\":20015:20021   */\n      dup6\n        /* \"#utility.yul\":19971:20043   */\n      tag_172\n      jump\t// in\n    tag_397:\n        /* \"#utility.yul\":20090:20099   */\n      dup2\n        /* \"#utility.yul\":20084:20088   */\n      dup2\n        /* \"#utility.yul\":20080:20100   */\n      sub\n        /* \"#utility.yul\":20075:20077   */\n      0x60\n        /* \"#utility.yul\":20064:20073   */\n      dup4\n        /* \"#utility.yul\":20060:20078   */\n      add\n        /* \"#utility.yul\":20053:20101   */\n      mstore\n        /* \"#utility.yul\":20118:20194   */\n      tag_398\n        /* \"#utility.yul\":20189:20193   */\n      dup2\n        /* \"#utility.yul\":20180:20186   */\n      dup5\n        /* \"#utility.yul\":20118:20194   */\n      tag_208\n      jump\t// in\n    tag_398:\n        /* \"#utility.yul\":20110:20194   */\n      swap1\n      pop\n        /* \"#utility.yul\":19561:20201   */\n      swap6\n      swap5\n      pop\n      pop\n      pop\n      pop\n      pop\n      jump\t// out\n        /* \"#utility.yul\":20207:20348   */\n    tag_209:\n        /* \"#utility.yul\":20263:20268   */\n      0x00\n        /* \"#utility.yul\":20294:20300   */\n      dup2\n        /* \"#utility.yul\":20288:20301   */\n      mload\n        /* \"#utility.yul\":20279:20301   */\n      swap1\n      pop\n        /* \"#utility.yul\":20310:20342   */\n      tag_400\n        /* \"#utility.yul\":20336:20341   */\n      dup2\n        /* \"#utility.yul\":20310:20342   */\n      tag_160\n      jump\t// in\n    tag_400:\n        /* \"#utility.yul\":20207:20348   */\n      swap3\n      swap2\n      pop\n      pop\n      jump\t// out\n        /* \"#utility.yul\":20354:20703   */\n    tag_153:\n        /* \"#utility.yul\":20423:20429   */\n      0x00\n        /* \"#utility.yul\":20472:20474   */\n      0x20\n        /* \"#utility.yul\":20460:20469   */\n      dup3\n        /* \"#utility.yul\":20451:20458   */\n      dup5\n        /* \"#utility.yul\":20447:20470   */\n      sub\n        /* \"#utility.yul\":20443:20475   */\n      slt\n        /* \"#utility.yul\":20440:20559   */\n      iszero\n      tag_402\n      jumpi\n        /* \"#utility.yul\":20478:20557   */\n      tag_403\n      tag_157\n      jump\t// in\n    tag_403:\n        /* \"#utility.yul\":20440:20559   */\n    tag_402:\n        /* \"#utility.yul\":20598:20599   */\n      0x00\n        /* \"#utility.yul\":20623:20686   */\n      tag_404\n        /* \"#utility.yul\":20678:20685   */\n      dup5\n        /* \"#utility.yul\":20669:20675   */\n      dup3\n        /* \"#utility.yul\":20658:20667   */\n      dup6\n        /* \"#utility.yul\":20654:20676   */\n      add\n        /* \"#utility.yul\":20623:20686   */\n      tag_209\n      jump\t// in\n    tag_404:\n        /* \"#utility.yul\":20613:20686   */\n      swap2\n      pop\n        /* \"#utility.yul\":20569:20696   */\n      pop\n        /* \"#utility.yul\":20354:20703   */\n      swap3\n      swap2\n      pop\n      pop\n      jump\t// out\n\n    auxdata: 0xa26469706673582212201f293db01d7031c2575797aed2fbb83e7e336e8554195b8a3632c448a4929e6364736f6c634300081a0033\n}\n",
				"bytecode": {
					"linkReferences": {},
					"object": "6080604052348015600e575f80fd5b50611bfa8061001c5f395ff3fe608060405234801561000f575f80fd5b50600436106100b2575f3560e01c806342966c681161006f57806342966c68146101865780636352211e146101a257806370a08231146101d2578063a22cb46514610202578063b88d4fde1461021e578063e985e9c51461023a576100b2565b806301ffc9a7146100b6578063081812fc146100e6578063095ea7b31461011657806323b872dd1461013257806340c10f191461014e57806342842e0e1461016a575b5f80fd5b6100d060048036038101906100cb919061120f565b61026a565b6040516100dd9190611254565b60405180910390f35b61010060048036038101906100fb91906112a0565b61033b565b60405161010d919061130a565b60405180910390f35b610130600480360381019061012b919061134d565b610411565b005b61014c6004803603810190610147919061138b565b61054e565b005b6101686004803603810190610163919061134d565b6105b6565b005b610184600480360381019061017f919061138b565b6107c1565b005b6101a0600480360381019061019b91906112a0565b6107e0565b005b6101bc60048036038101906101b791906112a0565b6108db565b6040516101c9919061130a565b60405180910390f35b6101ec60048036038101906101e791906113db565b610981565b6040516101f99190611415565b60405180910390f35b61021c60048036038101906102179190611458565b610a35565b005b610238600480360381019061023391906115d2565b610b2d565b005b610254600480360381019061024f9190611652565b610b97565b6040516102619190611254565b60405180910390f35b5f7f80ac58cd000000000000000000000000000000000000000000000000000000007bffffffffffffffffffffffffffffffffffffffffffffffffffffffff1916827bffffffffffffffffffffffffffffffffffffffffffffffffffffffff1916148061033457507f01ffc9a7000000000000000000000000000000000000000000000000000000007bffffffffffffffffffffffffffffffffffffffffffffffffffffffff1916827bffffffffffffffffffffffffffffffffffffffffffffffffffffffff1916145b9050919050565b5f8073ffffffffffffffffffffffffffffffffffffffff165f808481526020019081526020015f205f9054906101000a900473ffffffffffffffffffffffffffffffffffffffff1673ffffffffffffffffffffffffffffffffffffffff16036103d9576040517f08c379a00000000000000000000000000000000000000000000000000000000081526004016103d0906116ea565b60405180910390fd5b60025f8381526020019081526020015f205f9054906101000a900473ffffffffffffffffffffffffffffffffffffffff169050919050565b5f805f8381526020019081526020015f205f9054906101000a900473ffffffffffffffffffffffffffffffffffffffff1690508073ffffffffffffffffffffffffffffffffffffffff163373ffffffffffffffffffffffffffffffffffffffff1614806104ff575060035f8273ffffffffffffffffffffffffffffffffffffffff1673ffffffffffffffffffffffffffffffffffffffff1681526020019081526020015f205f3373ffffffffffffffffffffffffffffffffffffffff1673ffffffffffffffffffffffffffffffffffffffff1681526020019081526020015f205f9054906101000a900460ff165b61053e576040517f08c379a000000000000000000000000000000000000000000000000000000000815260040161053590611752565b60405180910390fd5b610549818484610c25565b505050565b5f610558826108db565b9050610565813384610cd4565b6105a4576040517f08c379a000000000000000000000000000000000000000000000000000000000815260040161059b906117ba565b60405180910390fd5b6105b081858585610dff565b50505050565b5f73ffffffffffffffffffffffffffffffffffffffff168273ffffffffffffffffffffffffffffffffffffffff1603610624576040517f08c379a000000000000000000000000000000000000000000000000000000000815260040161061b90611822565b60405180910390fd5b5f73ffffffffffffffffffffffffffffffffffffffff165f808381526020019081526020015f205f9054906101000a900473ffffffffffffffffffffffffffffffffffffffff1673ffffffffffffffffffffffffffffffffffffffff16146106c1576040517f08c379a00000000000000000000000000000000000000000000000000000000081526004016106b89061188a565b60405180910390fd5b6001805f8473ffffffffffffffffffffffffffffffffffffffff1673ffffffffffffffffffffffffffffffffffffffff1681526020019081526020015f205f82825461070d91906118d5565b92505081905550815f808381526020019081526020015f205f6101000a81548173ffffffffffffffffffffffffffffffffffffffff021916908373ffffffffffffffffffffffffffffffffffffffff160217905550808273ffffffffffffffffffffffffffffffffffffffff165f73ffffffffffffffffffffffffffffffffffffffff167fddf252ad1be2c89b69c2b068fc378daa952ba7f163c4a11628f55a4df523b3ef60405160405180910390a45050565b6107db83838360405180602001604052805f815250610b2d565b505050565b5f6107ea826108db565b90506107f7815f84610c25565b6001805f8373ffffffffffffffffffffffffffffffffffffffff1673ffffffffffffffffffffffffffffffffffffffff1681526020019081526020015f205f8282546108439190611908565b925050819055505f808381526020019081526020015f205f6101000a81549073ffffffffffffffffffffffffffffffffffffffff0219169055815f73ffffffffffffffffffffffffffffffffffffffff168273ffffffffffffffffffffffffffffffffffffffff167fddf252ad1be2c89b69c2b068fc378daa952ba7f163c4a11628f55a4df523b3ef60405160405180910390a45050565b5f805f8381526020019081526020015f205f9054906101000a900473ffffffffffffffffffffffffffffffffffffffff1690505f73ffffffffffffffffffffffffffffffffffffffff168173ffffffffffffffffffffffffffffffffffffffff160361097c576040517f08c379a0000000000000000000000000000000000000000000000000000000008152600401610973906116ea565b60405180910390fd5b919050565b5f8073ffffffffffffffffffffffffffffffffffffffff168273ffffffffffffffffffffffffffffffffffffffff16036109f0576040517f08c379a00000000000000000000000000000000000000000000000000000000081526004016109e790611985565b60405180910390fd5b60015f8373ffffffffffffffffffffffffffffffffffffffff1673ffffffffffffffffffffffffffffffffffffffff1681526020019081526020015f20549050919050565b8060035f3373ffffffffffffffffffffffffffffffffffffffff1673ffffffffffffffffffffffffffffffffffffffff1681526020019081526020015f205f8473ffffffffffffffffffffffffffffffffffffffff1673ffffffffffffffffffffffffffffffffffffffff1681526020019081526020015f205f6101000a81548160ff0219169083151502179055508173ffffffffffffffffffffffffffffffffffffffff163373ffffffffffffffffffffffffffffffffffffffff167f17307eab39ab6107e8899845ad3d59bd9653f200f220920489ca2b5937696c3183604051610b219190611254565b60405180910390a35050565b5f610b37836108db565b9050610b44813385610cd4565b610b83576040517f08c379a0000000000000000000000000000000000000000000000000000000008152600401610b7a906117ba565b60405180910390fd5b610b90818686868661103b565b5050505050565b5f60035f8473ffffffffffffffffffffffffffffffffffffffff1673ffffffffffffffffffffffffffffffffffffffff1681526020019081526020015f205f8373ffffffffffffffffffffffffffffffffffffffff1673ffffffffffffffffffffffffffffffffffffffff1681526020019081526020015f205f9054906101000a900460ff16905092915050565b8160025f8381526020019081526020015f205f6101000a81548173ffffffffffffffffffffffffffffffffffffffff021916908373ffffffffffffffffffffffffffffffffffffffff160217905550808273ffffffffffffffffffffffffffffffffffffffff168473ffffffffffffffffffffffffffffffffffffffff167f8c5be1e5ebec7d5bd14f71427d1e84f3dd0314c0f7b2291e5b200ac8c7c3b92560405160405180910390a4505050565b5f8373ffffffffffffffffffffffffffffffffffffffff168373ffffffffffffffffffffffffffffffffffffffff161480610d6a57508273ffffffffffffffffffffffffffffffffffffffff1660025f8481526020019081526020015f205f9054906101000a900473ffffffffffffffffffffffffffffffffffffffff1673ffffffffffffffffffffffffffffffffffffffff16145b80610df6575060035f8573ffffffffffffffffffffffffffffffffffffffff1673ffffffffffffffffffffffffffffffffffffffff1681526020019081526020015f205f8473ffffffffffffffffffffffffffffffffffffffff1673ffffffffffffffffffffffffffffffffffffffff1681526020019081526020015f205f9054906101000a900460ff165b90509392505050565b8373ffffffffffffffffffffffffffffffffffffffff168373ffffffffffffffffffffffffffffffffffffffff1614610e6d576040517f08c379a0000000000000000000000000000000000000000000000000000000008152600401610e64906119ed565b60405180910390fd5b5f73ffffffffffffffffffffffffffffffffffffffff168273ffffffffffffffffffffffffffffffffffffffff1603610edb576040517f08c379a0000000000000000000000000000000000000000000000000000000008152600401610ed290611a55565b60405180910390fd5b610ee6845f83610c25565b6001805f8573ffffffffffffffffffffffffffffffffffffffff1673ffffffffffffffffffffffffffffffffffffffff1681526020019081526020015f205f828254610f329190611908565b925050819055506001805f8473ffffffffffffffffffffffffffffffffffffffff1673ffffffffffffffffffffffffffffffffffffffff1681526020019081526020015f205f828254610f8591906118d5565b92505081905550815f808381526020019081526020015f205f6101000a81548173ffffffffffffffffffffffffffffffffffffffff021916908373ffffffffffffffffffffffffffffffffffffffff160217905550808273ffffffffffffffffffffffffffffffffffffffff168473ffffffffffffffffffffffffffffffffffffffff167fddf252ad1be2c89b69c2b068fc378daa952ba7f163c4a11628f55a4df523b3ef60405160405180910390a450505050565b61104785858585610dff565b61105384848484611099565b611092576040517f08c379a000000000000000000000000000000000000000000000000000000000815260040161108990611abd565b60405180910390fd5b5050505050565b5f6110b98473ffffffffffffffffffffffffffffffffffffffff16611198565b1561118b5763150b7a0260e01b7bffffffffffffffffffffffffffffffffffffffffffffffffffffffff19168473ffffffffffffffffffffffffffffffffffffffff1663150b7a02338887876040518563ffffffff1660e01b81526004016111249493929190611b3b565b6020604051808303815f875af1158015611140573d5f803e3d5ffd5b505050506040513d601f19601f820116820180604052508101906111649190611b99565b7bffffffffffffffffffffffffffffffffffffffffffffffffffffffff1916149050611190565b600190505b949350505050565b5f80823b90505f8111915050919050565b5f604051905090565b5f80fd5b5f80fd5b5f7fffffffff0000000000000000000000000000000000000000000000000000000082169050919050565b6111ee816111ba565b81146111f8575f80fd5b50565b5f81359050611209816111e5565b92915050565b5f60208284031215611224576112236111b2565b5b5f611231848285016111fb565b91505092915050565b5f8115159050919050565b61124e8161123a565b82525050565b5f6020820190506112675f830184611245565b92915050565b5f819050919050565b61127f8161126d565b8114611289575f80fd5b50565b5f8135905061129a81611276565b92915050565b5f602082840312156112b5576112b46111b2565b5b5f6112c28482850161128c565b91505092915050565b5f73ffffffffffffffffffffffffffffffffffffffff82169050919050565b5f6112f4826112cb565b9050919050565b611304816112ea565b82525050565b5f60208201905061131d5f8301846112fb565b92915050565b61132c816112ea565b8114611336575f80fd5b50565b5f8135905061134781611323565b92915050565b5f8060408385031215611363576113626111b2565b5b5f61137085828601611339565b92505060206113818582860161128c565b9150509250929050565b5f805f606084860312156113a2576113a16111b2565b5b5f6113af86828701611339565b93505060206113c086828701611339565b92505060406113d18682870161128c565b9150509250925092565b5f602082840312156113f0576113ef6111b2565b5b5f6113fd84828501611339565b91505092915050565b61140f8161126d565b82525050565b5f6020820190506114285f830184611406565b92915050565b6114378161123a565b8114611441575f80fd5b50565b5f813590506114528161142e565b92915050565b5f806040838503121561146e5761146d6111b2565b5b5f61147b85828601611339565b925050602061148c85828601611444565b9150509250929050565b5f80fd5b5f80fd5b5f601f19601f8301169050919050565b7f4e487b71000000000000000000000000000000000000000000000000000000005f52604160045260245ffd5b6114e48261149e565b810181811067ffffffffffffffff82111715611503576115026114ae565b5b80604052505050565b5f6115156111a9565b905061152182826114db565b919050565b5f67ffffffffffffffff8211156115405761153f6114ae565b5b6115498261149e565b9050602081019050919050565b828183375f83830152505050565b5f61157661157184611526565b61150c565b9050828152602081018484840111156115925761159161149a565b5b61159d848285611556565b509392505050565b5f82601f8301126115b9576115b8611496565b5b81356115c9848260208601611564565b91505092915050565b5f805f80608085870312156115ea576115e96111b2565b5b5f6115f787828801611339565b945050602061160887828801611339565b93505060406116198782880161128c565b925050606085013567ffffffffffffffff81111561163a576116396111b6565b5b611646878288016115a5565b91505092959194509250565b5f8060408385031215611668576116676111b2565b5b5f61167585828601611339565b925050602061168685828601611339565b9150509250929050565b5f82825260208201905092915050565b7f746f6b656e20646f65736e2774206578697374000000000000000000000000005f82015250565b5f6116d4601383611690565b91506116df826116a0565b602082019050919050565b5f6020820190508181035f830152611701816116c8565b9050919050565b7f6e6f74206f776e6572206e6f7220617070726f76656420666f7220616c6c00005f82015250565b5f61173c601e83611690565b915061174782611708565b602082019050919050565b5f6020820190508181035f83015261176981611730565b9050919050565b7f6e6f74206f776e6572206e6f7220617070726f766564000000000000000000005f82015250565b5f6117a4601683611690565b91506117af82611770565b602082019050919050565b5f6020820190508181035f8301526117d181611798565b9050919050565b7f6d696e7420746f207a65726f20616464726573730000000000000000000000005f82015250565b5f61180c601483611690565b9150611817826117d8565b602082019050919050565b5f6020820190508181035f83015261183981611800565b9050919050565b7f746f6b656e20616c7265616479206d696e7465640000000000000000000000005f82015250565b5f611874601483611690565b915061187f82611840565b602082019050919050565b5f6020820190508181035f8301526118a181611868565b9050919050565b7f4e487b71000000000000000000000000000000000000000000000000000000005f52601160045260245ffd5b5f6118df8261126d565b91506118ea8361126d565b9250828201905080821115611902576119016118a8565b5b92915050565b5f6119128261126d565b915061191d8361126d565b9250828203905081811115611935576119346118a8565b5b92915050565b7f6f776e6572203d207a65726f20616464726573730000000000000000000000005f82015250565b5f61196f601483611690565b915061197a8261193b565b602082019050919050565b5f6020820190508181035f83015261199c81611963565b9050919050565b7f6e6f74206f776e657200000000000000000000000000000000000000000000005f82015250565b5f6119d7600983611690565b91506119e2826119a3565b602082019050919050565b5f6020820190508181035f830152611a04816119cb565b9050919050565b7f7472616e7366657220746f20746865207a65726f2061646472657373000000005f82015250565b5f611a3f601c83611690565b9150611a4a82611a0b565b602082019050919050565b5f6020820190508181035f830152611a6c81611a33565b9050919050565b7f6e6f7420455243373231526563656976657200000000000000000000000000005f82015250565b5f611aa7601283611690565b9150611ab282611a73565b602082019050919050565b5f6020820190508181035f830152611ad481611a9b565b9050919050565b5f81519050919050565b5f82825260208201905092915050565b8281835e5f83830152505050565b5f611b0d82611adb565b611b178185611ae5565b9350611b27818560208601611af5565b611b308161149e565b840191505092915050565b5f608082019050611b4e5f8301876112fb565b611b5b60208301866112fb565b611b686040830185611406565b8181036060830152611b7a8184611b03565b905095945050505050565b5f81519050611b93816111e5565b92915050565b5f60208284031215611bae57611bad6111b2565b5b5f611bbb84828501611b85565b9150509291505056fea26469706673582212201f293db01d7031c2575797aed2fbb83e7e336e8554195b8a3632c448a4929e6364736f6c634300081a0033",
					"opcodes": "PUSH1 0x80 PUSH1 0x40 MSTORE CALLVALUE DUP1 ISZERO PUSH1 0xE JUMPI PUSH0 DUP1 REVERT JUMPDEST POP PUSH2 0x1BFA DUP1 PUSH2 0x1C PUSH0 CODECOPY PUSH0 RETURN INVALID PUSH1 0x80 PUSH1 0x40 MSTORE CALLVALUE DUP1 ISZERO PUSH2 0xF JUMPI PUSH0 DUP1 REVERT JUMPDEST POP PUSH1 0x4 CALLDATASIZE LT PUSH2 0xB2 JUMPI PUSH0 CALLDATALOAD PUSH1 0xE0 SHR DUP1 PUSH4 0x42966C68 GT PUSH2 0x6F JUMPI DUP1 PUSH4 0x42966C68 EQ PUSH2 0x186 JUMPI DUP1 PUSH4 0x6352211E EQ PUSH2 0x1A2 JUMPI DUP1 PUSH4 0x70A08231 EQ PUSH2 0x1D2 JUMPI DUP1 PUSH4 0xA22CB465 EQ PUSH2 0x202 JUMPI DUP1 PUSH4 0xB88D4FDE EQ PUSH2 0x21E JUMPI DUP1 PUSH4 0xE985E9C5 EQ PUSH2 0x23A JUMPI PUSH2 0xB2 JUMP JUMPDEST DUP1 PUSH4 0x1FFC9A7 EQ PUSH2 0xB6 JUMPI DUP1 PUSH4 0x81812FC EQ PUSH2 0xE6 JUMPI DUP1 PUSH4 0x95EA7B3 EQ PUSH2 0x116 JUMPI DUP1 PUSH4 0x23B872DD EQ PUSH2 0x132 JUMPI DUP1 PUSH4 0x40C10F19 EQ PUSH2 0x14E JUMPI DUP1 PUSH4 0x42842E0E EQ PUSH2 0x16A JUMPI JUMPDEST PUSH0 DUP1 REVERT JUMPDEST PUSH2 0xD0 PUSH1 0x4 DUP1 CALLDATASIZE SUB DUP2 ADD SWAP1 PUSH2 0xCB SWAP2 SWAP1 PUSH2 0x120F JUMP JUMPDEST PUSH2 0x26A JUMP JUMPDEST PUSH1 0x40 MLOAD PUSH2 0xDD SWAP2 SWAP1 PUSH2 0x1254 JUMP JUMPDEST PUSH1 0x40 MLOAD DUP1 SWAP2 SUB SWAP1 RETURN JUMPDEST PUSH2 0x100 PUSH1 0x4 DUP1 CALLDATASIZE SUB DUP2 ADD SWAP1 PUSH2 0xFB SWAP2 SWAP1 PUSH2 0x12A0 JUMP JUMPDEST PUSH2 0x33B JUMP JUMPDEST PUSH1 0x40 MLOAD PUSH2 0x10D SWAP2 SWAP1 PUSH2 0x130A JUMP JUMPDEST PUSH1 0x40 MLOAD DUP1 SWAP2 SUB SWAP1 RETURN JUMPDEST PUSH2 0x130 PUSH1 0x4 DUP1 CALLDATASIZE SUB DUP2 ADD SWAP1 PUSH2 0x12B SWAP2 SWAP1 PUSH2 0x134D JUMP JUMPDEST PUSH2 0x411 JUMP JUMPDEST STOP JUMPDEST PUSH2 0x14C PUSH1 0x4 DUP1 CALLDATASIZE SUB DUP2 ADD SWAP1 PUSH2 0x147 SWAP2 SWAP1 PUSH2 0x138B JUMP JUMPDEST PUSH2 0x54E JUMP JUMPDEST STOP JUMPDEST PUSH2 0x168 PUSH1 0x4 DUP1 CALLDATASIZE SUB DUP2 ADD SWAP1 PUSH2 0x163 SWAP2 SWAP1 PUSH2 0x134D JUMP JUMPDEST PUSH2 0x5B6 JUMP JUMPDEST STOP JUMPDEST PUSH2 0x184 PUSH1 0x4 DUP1 CALLDATASIZE SUB DUP2 ADD SWAP1 PUSH2 0x17F SWAP2 SWAP1 PUSH2 0x138B JUMP JUMPDEST PUSH2 0x7C1 JUMP JUMPDEST STOP JUMPDEST PUSH2 0x1A0 PUSH1 0x4 DUP1 CALLDATASIZE SUB DUP2 ADD SWAP1 PUSH2 0x19B SWAP2 SWAP1 PUSH2 0x12A0 JUMP JUMPDEST PUSH2 0x7E0 JUMP JUMPDEST STOP JUMPDEST PUSH2 0x1BC PUSH1 0x4 DUP1 CALLDATASIZE SUB DUP2 ADD SWAP1 PUSH2 0x1B7 SWAP2 SWAP1 PUSH2 0x12A0 JUMP JUMPDEST PUSH2 0x8DB JUMP JUMPDEST PUSH1 0x40 MLOAD PUSH2 0x1C9 SWAP2 SWAP1 PUSH2 0x130A JUMP JUMPDEST PUSH1 0x40 MLOAD DUP1 SWAP2 SUB SWAP1 RETURN JUMPDEST PUSH2 0x1EC PUSH1 0x4 DUP1 CALLDATASIZE SUB DUP2 ADD SWAP1 PUSH2 0x1E7 SWAP2 SWAP1 PUSH2 0x13DB JUMP JUMPDEST PUSH2 0x981 JUMP JUMPDEST PUSH1 0x40 MLOAD PUSH2 0x1F9 SWAP2 SWAP1 PUSH2 0x1415 JUMP JUMPDEST PUSH1 0x40 MLOAD DUP1 SWAP2 SUB SWAP1 RETURN JUMPDEST PUSH2 0x21C PUSH1 0x4 DUP1 CALLDATASIZE SUB DUP2 ADD SWAP1 PUSH2 0x217 SWAP2 SWAP1 PUSH2 0x1458 JUMP JUMPDEST PUSH2 0xA35 JUMP JUMPDEST STOP JUMPDEST PUSH2 0x238 PUSH1 0x4 DUP1 CALLDATASIZE SUB DUP2 ADD SWAP1 PUSH2 0x233 SWAP2 SWAP1 PUSH2 0x15D2 JUMP JUMPDEST PUSH2 0xB2D JUMP JUMPDEST STOP JUMPDEST PUSH2 0x254 PUSH1 0x4 DUP1 CALLDATASIZE SUB DUP2 ADD SWAP1 PUSH2 0x24F SWAP2 SWAP1 PUSH2 0x1652 JUMP JUMPDEST PUSH2 0xB97 JUMP JUMPDEST PUSH1 0x40 MLOAD PUSH2 0x261 SWAP2 SWAP1 PUSH2 0x1254 JUMP JUMPDEST PUSH1 0x40 MLOAD DUP1 SWAP2 SUB SWAP1 RETURN JUMPDEST PUSH0 PUSH32 0x80AC58CD00000000000000000000000000000000000000000000000000000000 PUSH28 0xFFFFFFFFFFFFFFFFFFFFFFFFFFFFFFFFFFFFFFFFFFFFFFFFFFFFFFFF NOT AND DUP3 PUSH28 0xFFFFFFFFFFFFFFFFFFFFFFFFFFFFFFFFFFFFFFFFFFFFFFFFFFFFFFFF NOT AND EQ DUP1 PUSH2 0x334 JUMPI POP PUSH32 0x1FFC9A700000000000000000000000000000000000000000000000000000000 PUSH28 0xFFFFFFFFFFFFFFFFFFFFFFFFFFFFFFFFFFFFFFFFFFFFFFFFFFFFFFFF NOT AND DUP3 PUSH28 0xFFFFFFFFFFFFFFFFFFFFFFFFFFFFFFFFFFFFFFFFFFFFFFFFFFFFFFFF NOT AND EQ JUMPDEST SWAP1 POP SWAP2 SWAP1 POP JUMP JUMPDEST PUSH0 DUP1 PUSH20 0xFFFFFFFFFFFFFFFFFFFFFFFFFFFFFFFFFFFFFFFF AND PUSH0 DUP1 DUP5 DUP2 MSTORE PUSH1 0x20 ADD SWAP1 DUP2 MSTORE PUSH1 0x20 ADD PUSH0 KECCAK256 PUSH0 SWAP1 SLOAD SWAP1 PUSH2 0x100 EXP SWAP1 DIV PUSH20 0xFFFFFFFFFFFFFFFFFFFFFFFFFFFFFFFFFFFFFFFF AND PUSH20 0xFFFFFFFFFFFFFFFFFFFFFFFFFFFFFFFFFFFFFFFF AND SUB PUSH2 0x3D9 JUMPI PUSH1 0x40 MLOAD PUSH32 0x8C379A000000000000000000000000000000000000000000000000000000000 DUP2 MSTORE PUSH1 0x4 ADD PUSH2 0x3D0 SWAP1 PUSH2 0x16EA JUMP JUMPDEST PUSH1 0x40 MLOAD DUP1 SWAP2 SUB SWAP1 REVERT JUMPDEST PUSH1 0x2 PUSH0 DUP4 DUP2 MSTORE PUSH1 0x20 ADD SWAP1 DUP2 MSTORE PUSH1 0x20 ADD PUSH0 KECCAK256 PUSH0 SWAP1 SLOAD SWAP1 PUSH2 0x100 EXP SWAP1 DIV PUSH20 0xFFFFFFFFFFFFFFFFFFFFFFFFFFFFFFFFFFFFFFFF AND SWAP1 POP SWAP2 SWAP1 POP JUMP JUMPDEST PUSH0 DUP1 PUSH0 DUP4 DUP2 MSTORE PUSH1 0x20 ADD SWAP1 DUP2 MSTORE PUSH1 0x20 ADD PUSH0 KECCAK256 PUSH0 SWAP1 SLOAD SWAP1 PUSH2 0x100 EXP SWAP1 DIV PUSH20 0xFFFFFFFFFFFFFFFFFFFFFFFFFFFFFFFFFFFFFFFF AND SWAP1 POP DUP1 PUSH20 0xFFFFFFFFFFFFFFFFFFFFFFFFFFFFFFFFFFFFFFFF AND CALLER PUSH20 0xFFFFFFFFFFFFFFFFFFFFFFFFFFFFFFFFFFFFFFFF AND EQ DUP1 PUSH2 0x4FF JUMPI POP PUSH1 0x3 PUSH0 DUP3 PUSH20 0xFFFFFFFFFFFFFFFFFFFFFFFFFFFFFFFFFFFFFFFF AND PUSH20 0xFFFFFFFFFFFFFFFFFFFFFFFFFFFFFFFFFFFFFFFF AND DUP2 MSTORE PUSH1 0x20 ADD SWAP1 DUP2 MSTORE PUSH1 0x20 ADD PUSH0 KECCAK256 PUSH0 CALLER PUSH20 0xFFFFFFFFFFFFFFFFFFFFFFFFFFFFFFFFFFFFFFFF AND PUSH20 0xFFFFFFFFFFFFFFFFFFFFFFFFFFFFFFFFFFFFFFFF AND DUP2 MSTORE PUSH1 0x20 ADD SWAP1 DUP2 MSTORE PUSH1 0x20 ADD PUSH0 KECCAK256 PUSH0 SWAP1 SLOAD SWAP1 PUSH2 0x100 EXP SWAP1 DIV PUSH1 0xFF AND JUMPDEST PUSH2 0x53E JUMPI PUSH1 0x40 MLOAD PUSH32 0x8C379A000000000000000000000000000000000000000000000000000000000 DUP2 MSTORE PUSH1 0x4 ADD PUSH2 0x535 SWAP1 PUSH2 0x1752 JUMP JUMPDEST PUSH1 0x40 MLOAD DUP1 SWAP2 SUB SWAP1 REVERT JUMPDEST PUSH2 0x549 DUP2 DUP5 DUP5 PUSH2 0xC25 JUMP JUMPDEST POP POP POP JUMP JUMPDEST PUSH0 PUSH2 0x558 DUP3 PUSH2 0x8DB JUMP JUMPDEST SWAP1 POP PUSH2 0x565 DUP2 CALLER DUP5 PUSH2 0xCD4 JUMP JUMPDEST PUSH2 0x5A4 JUMPI PUSH1 0x40 MLOAD PUSH32 0x8C379A000000000000000000000000000000000000000000000000000000000 DUP2 MSTORE PUSH1 0x4 ADD PUSH2 0x59B SWAP1 PUSH2 0x17BA JUMP JUMPDEST PUSH1 0x40 MLOAD DUP1 SWAP2 SUB SWAP1 REVERT JUMPDEST PUSH2 0x5B0 DUP2 DUP6 DUP6 DUP6 PUSH2 0xDFF JUMP JUMPDEST POP POP POP POP JUMP JUMPDEST PUSH0 PUSH20 0xFFFFFFFFFFFFFFFFFFFFFFFFFFFFFFFFFFFFFFFF AND DUP3 PUSH20 0xFFFFFFFFFFFFFFFFFFFFFFFFFFFFFFFFFFFFFFFF AND SUB PUSH2 0x624 JUMPI PUSH1 0x40 MLOAD PUSH32 0x8C379A000000000000000000000000000000000000000000000000000000000 DUP2 MSTORE PUSH1 0x4 ADD PUSH2 0x61B SWAP1 PUSH2 0x1822 JUMP JUMPDEST PUSH1 0x40 MLOAD DUP1 SWAP2 SUB SWAP1 REVERT JUMPDEST PUSH0 PUSH20 0xFFFFFFFFFFFFFFFFFFFFFFFFFFFFFFFFFFFFFFFF AND PUSH0 DUP1 DUP4 DUP2 MSTORE PUSH1 0x20 ADD SWAP1 DUP2 MSTORE PUSH1 0x20 ADD PUSH0 KECCAK256 PUSH0 SWAP1 SLOAD SWAP1 PUSH2 0x100 EXP SWAP1 DIV PUSH20 0xFFFFFFFFFFFFFFFFFFFFFFFFFFFFFFFFFFFFFFFF AND PUSH20 0xFFFFFFFFFFFFFFFFFFFFFFFFFFFFFFFFFFFFFFFF AND EQ PUSH2 0x6C1 JUMPI PUSH1 0x40 MLOAD PUSH32 0x8C379A000000000000000000000000000000000000000000000000000000000 DUP2 MSTORE PUSH1 0x4 ADD PUSH2 0x6B8 SWAP1 PUSH2 0x188A JUMP JUMPDEST PUSH1 0x40 MLOAD DUP1 SWAP2 SUB SWAP1 REVERT JUMPDEST PUSH1 0x1 DUP1 PUSH0 DUP5 PUSH20 0xFFFFFFFFFFFFFFFFFFFFFFFFFFFFFFFFFFFFFFFF AND PUSH20 0xFFFFFFFFFFFFFFFFFFFFFFFFFFFFFFFFFFFFFFFF AND DUP2 MSTORE PUSH1 0x20 ADD SWAP1 DUP2 MSTORE PUSH1 0x20 ADD PUSH0 KECCAK256 PUSH0 DUP3 DUP3 SLOAD PUSH2 0x70D SWAP2 SWAP1 PUSH2 0x18D5 JUMP JUMPDEST SWAP3 POP POP DUP2 SWAP1 SSTORE POP DUP2 PUSH0 DUP1 DUP4 DUP2 MSTORE PUSH1 0x20 ADD SWAP1 DUP2 MSTORE PUSH1 0x20 ADD PUSH0 KECCAK256 PUSH0 PUSH2 0x100 EXP DUP2 SLOAD DUP2 PUSH20 0xFFFFFFFFFFFFFFFFFFFFFFFFFFFFFFFFFFFFFFFF MUL NOT AND SWAP1 DUP4 PUSH20 0xFFFFFFFFFFFFFFFFFFFFFFFFFFFFFFFFFFFFFFFF AND MUL OR SWAP1 SSTORE POP DUP1 DUP3 PUSH20 0xFFFFFFFFFFFFFFFFFFFFFFFFFFFFFFFFFFFFFFFF AND PUSH0 PUSH20 0xFFFFFFFFFFFFFFFFFFFFFFFFFFFFFFFFFFFFFFFF AND PUSH32 0xDDF252AD1BE2C89B69C2B068FC378DAA952BA7F163C4A11628F55A4DF523B3EF PUSH1 0x40 MLOAD PUSH1 0x40 MLOAD DUP1 SWAP2 SUB SWAP1 LOG4 POP POP JUMP JUMPDEST PUSH2 0x7DB DUP4 DUP4 DUP4 PUSH1 0x40 MLOAD DUP1 PUSH1 0x20 ADD PUSH1 0x40 MSTORE DUP1 PUSH0 DUP2 MSTORE POP PUSH2 0xB2D JUMP JUMPDEST POP POP POP JUMP JUMPDEST PUSH0 PUSH2 0x7EA DUP3 PUSH2 0x8DB JUMP JUMPDEST SWAP1 POP PUSH2 0x7F7 DUP2 PUSH0 DUP5 PUSH2 0xC25 JUMP JUMPDEST PUSH1 0x1 DUP1 PUSH0 DUP4 PUSH20 0xFFFFFFFFFFFFFFFFFFFFFFFFFFFFFFFFFFFFFFFF AND PUSH20 0xFFFFFFFFFFFFFFFFFFFFFFFFFFFFFFFFFFFFFFFF AND DUP2 MSTORE PUSH1 0x20 ADD SWAP1 DUP2 MSTORE PUSH1 0x20 ADD PUSH0 KECCAK256 PUSH0 DUP3 DUP3 SLOAD PUSH2 0x843 SWAP2 SWAP1 PUSH2 0x1908 JUMP JUMPDEST SWAP3 POP POP DUP2 SWAP1 SSTORE POP PUSH0 DUP1 DUP4 DUP2 MSTORE PUSH1 0x20 ADD SWAP1 DUP2 MSTORE PUSH1 0x20 ADD PUSH0 KECCAK256 PUSH0 PUSH2 0x100 EXP DUP2 SLOAD SWAP1 PUSH20 0xFFFFFFFFFFFFFFFFFFFFFFFFFFFFFFFFFFFFFFFF MUL NOT AND SWAP1 SSTORE DUP2 PUSH0 PUSH20 0xFFFFFFFFFFFFFFFFFFFFFFFFFFFFFFFFFFFFFFFF AND DUP3 PUSH20 0xFFFFFFFFFFFFFFFFFFFFFFFFFFFFFFFFFFFFFFFF AND PUSH32 0xDDF252AD1BE2C89B69C2B068FC378DAA952BA7F163C4A11628F55A4DF523B3EF PUSH1 0x40 MLOAD PUSH1 0x40 MLOAD DUP1 SWAP2 SUB SWAP1 LOG4 POP POP JUMP JUMPDEST PUSH0 DUP1 PUSH0 DUP4 DUP2 MSTORE PUSH1 0x20 ADD SWAP1 DUP2 MSTORE PUSH1 0x20 ADD PUSH0 KECCAK256 PUSH0 SWAP1 SLOAD SWAP1 PUSH2 0x100 EXP SWAP1 DIV PUSH20 0xFFFFFFFFFFFFFFFFFFFFFFFFFFFFFFFFFFFFFFFF AND SWAP1 POP PUSH0 PUSH20 0xFFFFFFFFFFFFFFFFFFFFFFFFFFFFFFFFFFFFFFFF AND DUP2 PUSH20 0xFFFFFFFFFFFFFFFFFFFFFFFFFFFFFFFFFFFFFFFF AND SUB PUSH2 0x97C JUMPI PUSH1 0x40 MLOAD PUSH32 0x8C379A000000000000000000000000000000000000000000000000000000000 DUP2 MSTORE PUSH1 0x4 ADD PUSH2 0x973 SWAP1 PUSH2 0x16EA JUMP JUMPDEST PUSH1 0x40 MLOAD DUP1 SWAP2 SUB SWAP1 REVERT JUMPDEST SWAP2 SWAP1 POP JUMP JUMPDEST PUSH0 DUP1 PUSH20 0xFFFFFFFFFFFFFFFFFFFFFFFFFFFFFFFFFFFFFFFF AND DUP3 PUSH20 0xFFFFFFFFFFFFFFFFFFFFFFFFFFFFFFFFFFFFFFFF AND SUB PUSH2 0x9F0 JUMPI PUSH1 0x40 MLOAD PUSH32 0x8C379A000000000000000000000000000000000000000000000000000000000 DUP2 MSTORE PUSH1 0x4 ADD PUSH2 0x9E7 SWAP1 PUSH2 0x1985 JUMP JUMPDEST PUSH1 0x40 MLOAD DUP1 SWAP2 SUB SWAP1 REVERT JUMPDEST PUSH1 0x1 PUSH0 DUP4 PUSH20 0xFFFFFFFFFFFFFFFFFFFFFFFFFFFFFFFFFFFFFFFF AND PUSH20 0xFFFFFFFFFFFFFFFFFFFFFFFFFFFFFFFFFFFFFFFF AND DUP2 MSTORE PUSH1 0x20 ADD SWAP1 DUP2 MSTORE PUSH1 0x20 ADD PUSH0 KECCAK256 SLOAD SWAP1 POP SWAP2 SWAP1 POP JUMP JUMPDEST DUP1 PUSH1 0x3 PUSH0 CALLER PUSH20 0xFFFFFFFFFFFFFFFFFFFFFFFFFFFFFFFFFFFFFFFF AND PUSH20 0xFFFFFFFFFFFFFFFFFFFFFFFFFFFFFFFFFFFFFFFF AND DUP2 MSTORE PUSH1 0x20 ADD SWAP1 DUP2 MSTORE PUSH1 0x20 ADD PUSH0 KECCAK256 PUSH0 DUP5 PUSH20 0xFFFFFFFFFFFFFFFFFFFFFFFFFFFFFFFFFFFFFFFF AND PUSH20 0xFFFFFFFFFFFFFFFFFFFFFFFFFFFFFFFFFFFFFFFF AND DUP2 MSTORE PUSH1 0x20 ADD SWAP1 DUP2 MSTORE PUSH1 0x20 ADD PUSH0 KECCAK256 PUSH0 PUSH2 0x100 EXP DUP2 SLOAD DUP2 PUSH1 0xFF MUL NOT AND SWAP1 DUP4 ISZERO ISZERO MUL OR SWAP1 SSTORE POP DUP2 PUSH20 0xFFFFFFFFFFFFFFFFFFFFFFFFFFFFFFFFFFFFFFFF AND CALLER PUSH20 0xFFFFFFFFFFFFFFFFFFFFFFFFFFFFFFFFFFFFFFFF AND PUSH32 0x17307EAB39AB6107E8899845AD3D59BD9653F200F220920489CA2B5937696C31 DUP4 PUSH1 0x40 MLOAD PUSH2 0xB21 SWAP2 SWAP1 PUSH2 0x1254 JUMP JUMPDEST PUSH1 0x40 MLOAD DUP1 SWAP2 SUB SWAP1 LOG3 POP POP JUMP JUMPDEST PUSH0 PUSH2 0xB37 DUP4 PUSH2 0x8DB JUMP JUMPDEST SWAP1 POP PUSH2 0xB44 DUP2 CALLER DUP6 PUSH2 0xCD4 JUMP JUMPDEST PUSH2 0xB83 JUMPI PUSH1 0x40 MLOAD PUSH32 0x8C379A000000000000000000000000000000000000000000000000000000000 DUP2 MSTORE PUSH1 0x4 ADD PUSH2 0xB7A SWAP1 PUSH2 0x17BA JUMP JUMPDEST PUSH1 0x40 MLOAD DUP1 SWAP2 SUB SWAP1 REVERT JUMPDEST PUSH2 0xB90 DUP2 DUP7 DUP7 DUP7 DUP7 PUSH2 0x103B JUMP JUMPDEST POP POP POP POP POP JUMP JUMPDEST PUSH0 PUSH1 0x3 PUSH0 DUP5 PUSH20 0xFFFFFFFFFFFFFFFFFFFFFFFFFFFFFFFFFFFFFFFF AND PUSH20 0xFFFFFFFFFFFFFFFFFFFFFFFFFFFFFFFFFFFFFFFF AND DUP2 MSTORE PUSH1 0x20 ADD SWAP1 DUP2 MSTORE PUSH1 0x20 ADD PUSH0 KECCAK256 PUSH0 DUP4 PUSH20 0xFFFFFFFFFFFFFFFFFFFFFFFFFFFFFFFFFFFFFFFF AND PUSH20 0xFFFFFFFFFFFFFFFFFFFFFFFFFFFFFFFFFFFFFFFF AND DUP2 MSTORE PUSH1 0x20 ADD SWAP1 DUP2 MSTORE PUSH1 0x20 ADD PUSH0 KECCAK256 PUSH0 SWAP1 SLOAD SWAP1 PUSH2 0x100 EXP SWAP1 DIV PUSH1 0xFF AND SWAP1 POP SWAP3 SWAP2 POP POP JUMP JUMPDEST DUP2 PUSH1 0x2 PUSH0 DUP4 DUP2 MSTORE PUSH1 0x20 ADD SWAP1 DUP2 MSTORE PUSH1 0x20 ADD PUSH0 KECCAK256 PUSH0 PUSH2 0x100 EXP DUP2 SLOAD DUP2 PUSH20 0xFFFFFFFFFFFFFFFFFFFFFFFFFFFFFFFFFFFFFFFF MUL NOT AND SWAP1 DUP4 PUSH20 0xFFFFFFFFFFFFFFFFFFFFFFFFFFFFFFFFFFFFFFFF AND MUL OR SWAP1 SSTORE POP DUP1 DUP3 PUSH20 0xFFFFFFFFFFFFFFFFFFFFFFFFFFFFFFFFFFFFFFFF AND DUP5 PUSH20 0xFFFFFFFFFFFFFFFFFFFFFFFFFFFFFFFFFFFFFFFF AND PUSH32 0x8C5BE1E5EBEC7D5BD14F71427D1E84F3DD0314C0F7B2291E5B200AC8C7C3B925 PUSH1 0x40 MLOAD PUSH1 0x40 MLOAD DUP1 SWAP2 SUB SWAP1 LOG4 POP POP POP JUMP JUMPDEST PUSH0 DUP4 PUSH20 0xFFFFFFFFFFFFFFFFFFFFFFFFFFFFFFFFFFFFFFFF AND DUP4 PUSH20 0xFFFFFFFFFFFFFFFFFFFFFFFFFFFFFFFFFFFFFFFF AND EQ DUP1 PUSH2 0xD6A JUMPI POP DUP3 PUSH20 0xFFFFFFFFFFFFFFFFFFFFFFFFFFFFFFFFFFFFFFFF AND PUSH1 0x2 PUSH0 DUP5 DUP2 MSTORE PUSH1 0x20 ADD SWAP1 DUP2 MSTORE PUSH1 0x20 ADD PUSH0 KECCAK256 PUSH0 SWAP1 SLOAD SWAP1 PUSH2 0x100 EXP SWAP1 DIV PUSH20 0xFFFFFFFFFFFFFFFFFFFFFFFFFFFFFFFFFFFFFFFF AND PUSH20 0xFFFFFFFFFFFFFFFFFFFFFFFFFFFFFFFFFFFFFFFF AND EQ JUMPDEST DUP1 PUSH2 0xDF6 JUMPI POP PUSH1 0x3 PUSH0 DUP6 PUSH20 0xFFFFFFFFFFFFFFFFFFFFFFFFFFFFFFFFFFFFFFFF AND PUSH20 0xFFFFFFFFFFFFFFFFFFFFFFFFFFFFFFFFFFFFFFFF AND DUP2 MSTORE PUSH1 0x20 ADD SWAP1 DUP2 MSTORE PUSH1 0x20 ADD PUSH0 KECCAK256 PUSH0 DUP5 PUSH20 0xFFFFFFFFFFFFFFFFFFFFFFFFFFFFFFFFFFFFFFFF AND PUSH20 0xFFFFFFFFFFFFFFFFFFFFFFFFFFFFFFFFFFFFFFFF AND DUP2 MSTORE PUSH1 0x20 ADD SWAP1 DUP2 MSTORE PUSH1 0x20 ADD PUSH0 KECCAK256 PUSH0 SWAP1 SLOAD SWAP1 PUSH2 0x100 EXP SWAP1 DIV PUSH1 0xFF AND JUMPDEST SWAP1 POP SWAP4 SWAP3 POP POP POP JUMP JUMPDEST DUP4 PUSH20 0xFFFFFFFFFFFFFFFFFFFFFFFFFFFFFFFFFFFFFFFF AND DUP4 PUSH20 0xFFFFFFFFFFFFFFFFFFFFFFFFFFFFFFFFFFFFFFFF AND EQ PUSH2 0xE6D JUMPI PUSH1 0x40 MLOAD PUSH32 0x8C379A000000000000000000000000000000000000000000000000000000000 DUP2 MSTORE PUSH1 0x4 ADD PUSH2 0xE64 SWAP1 PUSH2 0x19ED JUMP JUMPDEST PUSH1 0x40 MLOAD DUP1 SWAP2 SUB SWAP1 REVERT JUMPDEST PUSH0 PUSH20 0xFFFFFFFFFFFFFFFFFFFFFFFFFFFFFFFFFFFFFFFF AND DUP3 PUSH20 0xFFFFFFFFFFFFFFFFFFFFFFFFFFFFFFFFFFFFFFFF AND SUB PUSH2 0xEDB JUMPI PUSH1 0x40 MLOAD PUSH32 0x8C379A000000000000000000000000000000000000000000000000000000000 DUP2 MSTORE PUSH1 0x4 ADD PUSH2 0xED2 SWAP1 PUSH2 0x1A55 JUMP JUMPDEST PUSH1 0x40 MLOAD DUP1 SWAP2 SUB SWAP1 REVERT JUMPDEST PUSH2 0xEE6 DUP5 PUSH0 DUP4 PUSH2 0xC25 JUMP JUMPDEST PUSH1 0x1 DUP1 PUSH0 DUP6 PUSH20 0xFFFFFFFFFFFFFFFFFFFFFFFFFFFFFFFFFFFFFFFF AND PUSH20 0xFFFFFFFFFFFFFFFFFFFFFFFFFFFFFFFFFFFFFFFF AND DUP2 MSTORE PUSH1 0x20 ADD SWAP1 DUP2 MSTORE PUSH1 0x20 ADD PUSH0 KECCAK256 PUSH0 DUP3 DUP3 SLOAD PUSH2 0xF32 SWAP2 SWAP1 PUSH2 0x1908 JUMP JUMPDEST SWAP3 POP POP DUP2 SWAP1 SSTORE POP PUSH1 0x1 DUP1 PUSH0 DUP5 PUSH20 0xFFFFFFFFFFFFFFFFFFFFFFFFFFFFFFFFFFFFFFFF AND PUSH20 0xFFFFFFFFFFFFFFFFFFFFFFFFFFFFFFFFFFFFFFFF AND DUP2 MSTORE PUSH1 0x20 ADD SWAP1 DUP2 MSTORE PUSH1 0x20 ADD PUSH0 KECCAK256 PUSH0 DUP3 DUP3 SLOAD PUSH2 0xF85 SWAP2 SWAP1 PUSH2 0x18D5 JUMP JUMPDEST SWAP3 POP POP DUP2 SWAP1 SSTORE POP DUP2 PUSH0 DUP1 DUP4 DUP2 MSTORE PUSH1 0x20 ADD SWAP1 DUP2 MSTORE PUSH1 0x20 ADD PUSH0 KECCAK256 PUSH0 PUSH2 0x100 EXP DUP2 SLOAD DUP2 PUSH20 0xFFFFFFFFFFFFFFFFFFFFFFFFFFFFFFFFFFFFFFFF MUL NOT AND SWAP1 DUP4 PUSH20 0xFFFFFFFFFFFFFFFFFFFFFFFFFFFFFFFFFFFFFFFF AND MUL OR SWAP1 SSTORE POP DUP1 DUP3 PUSH20 0xFFFFFFFFFFFFFFFFFFFFFFFFFFFFFFFFFFFFFFFF AND DUP5 PUSH20 0xFFFFFFFFFFFFFFFFFFFFFFFFFFFFFFFFFFFFFFFF AND PUSH32 0xDDF252AD1BE2C89B69C2B068FC378DAA952BA7F163C4A11628F55A4DF523B3EF PUSH1 0x40 MLOAD PUSH1 0x40 MLOAD DUP1 SWAP2 SUB SWAP1 LOG4 POP POP POP POP JUMP JUMPDEST PUSH2 0x1047 DUP6 DUP6 DUP6 DUP6 PUSH2 0xDFF JUMP JUMPDEST PUSH2 0x1053 DUP5 DUP5 DUP5 DUP5 PUSH2 0x1099 JUMP JUMPDEST PUSH2 0x1092 JUMPI PUSH1 0x40 MLOAD PUSH32 0x8C379A000000000000000000000000000000000000000000000000000000000 DUP2 MSTORE PUSH1 0x4 ADD PUSH2 0x1089 SWAP1 PUSH2 0x1ABD JUMP JUMPDEST PUSH1 0x40 MLOAD DUP1 SWAP2 SUB SWAP1 REVERT JUMPDEST POP POP POP POP POP JUMP JUMPDEST PUSH0 PUSH2 0x10B9 DUP5 PUSH20 0xFFFFFFFFFFFFFFFFFFFFFFFFFFFFFFFFFFFFFFFF AND PUSH2 0x1198 JUMP JUMPDEST ISZERO PUSH2 0x118B JUMPI PUSH4 0x150B7A02 PUSH1 0xE0 SHL PUSH28 0xFFFFFFFFFFFFFFFFFFFFFFFFFFFFFFFFFFFFFFFFFFFFFFFFFFFFFFFF NOT AND DUP5 PUSH20 0xFFFFFFFFFFFFFFFFFFFFFFFFFFFFFFFFFFFFFFFF AND PUSH4 0x150B7A02 CALLER DUP9 DUP8 DUP8 PUSH1 0x40 MLOAD DUP6 PUSH4 0xFFFFFFFF AND PUSH1 0xE0 SHL DUP2 MSTORE PUSH1 0x4 ADD PUSH2 0x1124 SWAP5 SWAP4 SWAP3 SWAP2 SWAP1 PUSH2 0x1B3B JUMP JUMPDEST PUSH1 0x20 PUSH1 0x40 MLOAD DUP1 DUP4 SUB DUP2 PUSH0 DUP8 GAS CALL ISZERO DUP1 ISZERO PUSH2 0x1140 JUMPI RETURNDATASIZE PUSH0 DUP1 RETURNDATACOPY RETURNDATASIZE PUSH0 REVERT JUMPDEST POP POP POP POP PUSH1 0x40 MLOAD RETURNDATASIZE PUSH1 0x1F NOT PUSH1 0x1F DUP3 ADD AND DUP3 ADD DUP1 PUSH1 0x40 MSTORE POP DUP2 ADD SWAP1 PUSH2 0x1164 SWAP2 SWAP1 PUSH2 0x1B99 JUMP JUMPDEST PUSH28 0xFFFFFFFFFFFFFFFFFFFFFFFFFFFFFFFFFFFFFFFFFFFFFFFFFFFFFFFF NOT AND EQ SWAP1 POP PUSH2 0x1190 JUMP JUMPDEST PUSH1 0x1 SWAP1 POP JUMPDEST SWAP5 SWAP4 POP POP POP POP JUMP JUMPDEST PUSH0 DUP1 DUP3 EXTCODESIZE SWAP1 POP PUSH0 DUP2 GT SWAP2 POP POP SWAP2 SWAP1 POP JUMP JUMPDEST PUSH0 PUSH1 0x40 MLOAD SWAP1 POP SWAP1 JUMP JUMPDEST PUSH0 DUP1 REVERT JUMPDEST PUSH0 DUP1 REVERT JUMPDEST PUSH0 PUSH32 0xFFFFFFFF00000000000000000000000000000000000000000000000000000000 DUP3 AND SWAP1 POP SWAP2 SWAP1 POP JUMP JUMPDEST PUSH2 0x11EE DUP2 PUSH2 0x11BA JUMP JUMPDEST DUP2 EQ PUSH2 0x11F8 JUMPI PUSH0 DUP1 REVERT JUMPDEST POP JUMP JUMPDEST PUSH0 DUP2 CALLDATALOAD SWAP1 POP PUSH2 0x1209 DUP2 PUSH2 0x11E5 JUMP JUMPDEST SWAP3 SWAP2 POP POP JUMP JUMPDEST PUSH0 PUSH1 0x20 DUP3 DUP5 SUB SLT ISZERO PUSH2 0x1224 JUMPI PUSH2 0x1223 PUSH2 0x11B2 JUMP JUMPDEST JUMPDEST PUSH0 PUSH2 0x1231 DUP5 DUP3 DUP6 ADD PUSH2 0x11FB JUMP JUMPDEST SWAP2 POP POP SWAP3 SWAP2 POP POP JUMP JUMPDEST PUSH0 DUP2 ISZERO ISZERO SWAP1 POP SWAP2 SWAP1 POP JUMP JUMPDEST PUSH2 0x124E DUP2 PUSH2 0x123A JUMP JUMPDEST DUP3 MSTORE POP POP JUMP JUMPDEST PUSH0 PUSH1 0x20 DUP3 ADD SWAP1 POP PUSH2 0x1267 PUSH0 DUP4 ADD DUP5 PUSH2 0x1245 JUMP JUMPDEST SWAP3 SWAP2 POP POP JUMP JUMPDEST PUSH0 DUP2 SWAP1 POP SWAP2 SWAP1 POP JUMP JUMPDEST PUSH2 0x127F DUP2 PUSH2 0x126D JUMP JUMPDEST DUP2 EQ PUSH2 0x1289 JUMPI PUSH0 DUP1 REVERT JUMPDEST POP JUMP JUMPDEST PUSH0 DUP2 CALLDATALOAD SWAP1 POP PUSH2 0x129A DUP2 PUSH2 0x1276 JUMP JUMPDEST SWAP3 SWAP2 POP POP JUMP JUMPDEST PUSH0 PUSH1 0x20 DUP3 DUP5 SUB SLT ISZERO PUSH2 0x12B5 JUMPI PUSH2 0x12B4 PUSH2 0x11B2 JUMP JUMPDEST JUMPDEST PUSH0 PUSH2 0x12C2 DUP5 DUP3 DUP6 ADD PUSH2 0x128C JUMP JUMPDEST SWAP2 POP POP SWAP3 SWAP2 POP POP JUMP JUMPDEST PUSH0 PUSH20 0xFFFFFFFFFFFFFFFFFFFFFFFFFFFFFFFFFFFFFFFF DUP3 AND SWAP1 POP SWAP2 SWAP1 POP JUMP JUMPDEST PUSH0 PUSH2 0x12F4 DUP3 PUSH2 0x12CB JUMP JUMPDEST SWAP1 POP SWAP2 SWAP1 POP JUMP JUMPDEST PUSH2 0x1304 DUP2 PUSH2 0x12EA JUMP JUMPDEST DUP3 MSTORE POP POP JUMP JUMPDEST PUSH0 PUSH1 0x20 DUP3 ADD SWAP1 POP PUSH2 0x131D PUSH0 DUP4 ADD DUP5 PUSH2 0x12FB JUMP JUMPDEST SWAP3 SWAP2 POP POP JUMP JUMPDEST PUSH2 0x132C DUP2 PUSH2 0x12EA JUMP JUMPDEST DUP2 EQ PUSH2 0x1336 JUMPI PUSH0 DUP1 REVERT JUMPDEST POP JUMP JUMPDEST PUSH0 DUP2 CALLDATALOAD SWAP1 POP PUSH2 0x1347 DUP2 PUSH2 0x1323 JUMP JUMPDEST SWAP3 SWAP2 POP POP JUMP JUMPDEST PUSH0 DUP1 PUSH1 0x40 DUP4 DUP6 SUB SLT ISZERO PUSH2 0x1363 JUMPI PUSH2 0x1362 PUSH2 0x11B2 JUMP JUMPDEST JUMPDEST PUSH0 PUSH2 0x1370 DUP6 DUP3 DUP7 ADD PUSH2 0x1339 JUMP JUMPDEST SWAP3 POP POP PUSH1 0x20 PUSH2 0x1381 DUP6 DUP3 DUP7 ADD PUSH2 0x128C JUMP JUMPDEST SWAP2 POP POP SWAP3 POP SWAP3 SWAP1 POP JUMP JUMPDEST PUSH0 DUP1 PUSH0 PUSH1 0x60 DUP5 DUP7 SUB SLT ISZERO PUSH2 0x13A2 JUMPI PUSH2 0x13A1 PUSH2 0x11B2 JUMP JUMPDEST JUMPDEST PUSH0 PUSH2 0x13AF DUP7 DUP3 DUP8 ADD PUSH2 0x1339 JUMP JUMPDEST SWAP4 POP POP PUSH1 0x20 PUSH2 0x13C0 DUP7 DUP3 DUP8 ADD PUSH2 0x1339 JUMP JUMPDEST SWAP3 POP POP PUSH1 0x40 PUSH2 0x13D1 DUP7 DUP3 DUP8 ADD PUSH2 0x128C JUMP JUMPDEST SWAP2 POP POP SWAP3 POP SWAP3 POP SWAP3 JUMP JUMPDEST PUSH0 PUSH1 0x20 DUP3 DUP5 SUB SLT ISZERO PUSH2 0x13F0 JUMPI PUSH2 0x13EF PUSH2 0x11B2 JUMP JUMPDEST JUMPDEST PUSH0 PUSH2 0x13FD DUP5 DUP3 DUP6 ADD PUSH2 0x1339 JUMP JUMPDEST SWAP2 POP POP SWAP3 SWAP2 POP POP JUMP JUMPDEST PUSH2 0x140F DUP2 PUSH2 0x126D JUMP JUMPDEST DUP3 MSTORE POP POP JUMP JUMPDEST PUSH0 PUSH1 0x20 DUP3 ADD SWAP1 POP PUSH2 0x1428 PUSH0 DUP4 ADD DUP5 PUSH2 0x1406 JUMP JUMPDEST SWAP3 SWAP2 POP POP JUMP JUMPDEST PUSH2 0x1437 DUP2 PUSH2 0x123A JUMP JUMPDEST DUP2 EQ PUSH2 0x1441 JUMPI PUSH0 DUP1 REVERT JUMPDEST POP JUMP JUMPDEST PUSH0 DUP2 CALLDATALOAD SWAP1 POP PUSH2 0x1452 DUP2 PUSH2 0x142E JUMP JUMPDEST SWAP3 SWAP2 POP POP JUMP JUMPDEST PUSH0 DUP1 PUSH1 0x40 DUP4 DUP6 SUB SLT ISZERO PUSH2 0x146E JUMPI PUSH2 0x146D PUSH2 0x11B2 JUMP JUMPDEST JUMPDEST PUSH0 PUSH2 0x147B DUP6 DUP3 DUP7 ADD PUSH2 0x1339 JUMP JUMPDEST SWAP3 POP POP PUSH1 0x20 PUSH2 0x148C DUP6 DUP3 DUP7 ADD PUSH2 0x1444 JUMP JUMPDEST SWAP2 POP POP SWAP3 POP SWAP3 SWAP1 POP JUMP JUMPDEST PUSH0 DUP1 REVERT JUMPDEST PUSH0 DUP1 REVERT JUMPDEST PUSH0 PUSH1 0x1F NOT PUSH1 0x1F DUP4 ADD AND SWAP1 POP SWAP2 SWAP1 POP JUMP JUMPDEST PUSH32 0x4E487B7100000000000000000000000000000000000000000000000000000000 PUSH0 MSTORE PUSH1 0x41 PUSH1 0x4 MSTORE PUSH1 0x24 PUSH0 REVERT JUMPDEST PUSH2 0x14E4 DUP3 PUSH2 0x149E JUMP JUMPDEST DUP2 ADD DUP2 DUP2 LT PUSH8 0xFFFFFFFFFFFFFFFF DUP3 GT OR ISZERO PUSH2 0x1503 JUMPI PUSH2 0x1502 PUSH2 0x14AE JUMP JUMPDEST JUMPDEST DUP1 PUSH1 0x40 MSTORE POP POP POP JUMP JUMPDEST PUSH0 PUSH2 0x1515 PUSH2 0x11A9 JUMP JUMPDEST SWAP1 POP PUSH2 0x1521 DUP3 DUP3 PUSH2 0x14DB JUMP JUMPDEST SWAP2 SWAP1 POP JUMP JUMPDEST PUSH0 PUSH8 0xFFFFFFFFFFFFFFFF DUP3 GT ISZERO PUSH2 0x1540 JUMPI PUSH2 0x153F PUSH2 0x14AE JUMP JUMPDEST JUMPDEST PUSH2 0x1549 DUP3 PUSH2 0x149E JUMP JUMPDEST SWAP1 POP PUSH1 0x20 DUP2 ADD SWAP1 POP SWAP2 SWAP1 POP JUMP JUMPDEST DUP3 DUP2 DUP4 CALLDATACOPY PUSH0 DUP4 DUP4 ADD MSTORE POP POP POP JUMP JUMPDEST PUSH0 PUSH2 0x1576 PUSH2 0x1571 DUP5 PUSH2 0x1526 JUMP JUMPDEST PUSH2 0x150C JUMP JUMPDEST SWAP1 POP DUP3 DUP2 MSTORE PUSH1 0x20 DUP2 ADD DUP5 DUP5 DUP5 ADD GT ISZERO PUSH2 0x1592 JUMPI PUSH2 0x1591 PUSH2 0x149A JUMP JUMPDEST JUMPDEST PUSH2 0x159D DUP5 DUP3 DUP6 PUSH2 0x1556 JUMP JUMPDEST POP SWAP4 SWAP3 POP POP POP JUMP JUMPDEST PUSH0 DUP3 PUSH1 0x1F DUP4 ADD SLT PUSH2 0x15B9 JUMPI PUSH2 0x15B8 PUSH2 0x1496 JUMP JUMPDEST JUMPDEST DUP2 CALLDATALOAD PUSH2 0x15C9 DUP5 DUP3 PUSH1 0x20 DUP7 ADD PUSH2 0x1564 JUMP JUMPDEST SWAP2 POP POP SWAP3 SWAP2 POP POP JUMP JUMPDEST PUSH0 DUP1 PUSH0 DUP1 PUSH1 0x80 DUP6 DUP8 SUB SLT ISZERO PUSH2 0x15EA JUMPI PUSH2 0x15E9 PUSH2 0x11B2 JUMP JUMPDEST JUMPDEST PUSH0 PUSH2 0x15F7 DUP8 DUP3 DUP9 ADD PUSH2 0x1339 JUMP JUMPDEST SWAP5 POP POP PUSH1 0x20 PUSH2 0x1608 DUP8 DUP3 DUP9 ADD PUSH2 0x1339 JUMP JUMPDEST SWAP4 POP POP PUSH1 0x40 PUSH2 0x1619 DUP8 DUP3 DUP9 ADD PUSH2 0x128C JUMP JUMPDEST SWAP3 POP POP PUSH1 0x60 DUP6 ADD CALLDATALOAD PUSH8 0xFFFFFFFFFFFFFFFF DUP2 GT ISZERO PUSH2 0x163A JUMPI PUSH2 0x1639 PUSH2 0x11B6 JUMP JUMPDEST JUMPDEST PUSH2 0x1646 DUP8 DUP3 DUP9 ADD PUSH2 0x15A5 JUMP JUMPDEST SWAP2 POP POP SWAP3 SWAP6 SWAP2 SWAP5 POP SWAP3 POP JUMP JUMPDEST PUSH0 DUP1 PUSH1 0x40 DUP4 DUP6 SUB SLT ISZERO PUSH2 0x1668 JUMPI PUSH2 0x1667 PUSH2 0x11B2 JUMP JUMPDEST JUMPDEST PUSH0 PUSH2 0x1675 DUP6 DUP3 DUP7 ADD PUSH2 0x1339 JUMP JUMPDEST SWAP3 POP POP PUSH1 0x20 PUSH2 0x1686 DUP6 DUP3 DUP7 ADD PUSH2 0x1339 JUMP JUMPDEST SWAP2 POP POP SWAP3 POP SWAP3 SWAP1 POP JUMP JUMPDEST PUSH0 DUP3 DUP3 MSTORE PUSH1 0x20 DUP3 ADD SWAP1 POP SWAP3 SWAP2 POP POP JUMP JUMPDEST PUSH32 0x746F6B656E20646F65736E277420657869737400000000000000000000000000 PUSH0 DUP3 ADD MSTORE POP JUMP JUMPDEST PUSH0 PUSH2 0x16D4 PUSH1 0x13 DUP4 PUSH2 0x1690 JUMP JUMPDEST SWAP2 POP PUSH2 0x16DF DUP3 PUSH2 0x16A0 JUMP JUMPDEST PUSH1 0x20 DUP3 ADD SWAP1 POP SWAP2 SWAP1 POP JUMP JUMPDEST PUSH0 PUSH1 0x20 DUP3 ADD SWAP1 POP DUP2 DUP2 SUB PUSH0 DUP4 ADD MSTORE PUSH2 0x1701 DUP2 PUSH2 0x16C8 JUMP JUMPDEST SWAP1 POP SWAP2 SWAP1 POP JUMP JUMPDEST PUSH32 0x6E6F74206F776E6572206E6F7220617070726F76656420666F7220616C6C0000 PUSH0 DUP3 ADD MSTORE POP JUMP JUMPDEST PUSH0 PUSH2 0x173C PUSH1 0x1E DUP4 PUSH2 0x1690 JUMP JUMPDEST SWAP2 POP PUSH2 0x1747 DUP3 PUSH2 0x1708 JUMP JUMPDEST PUSH1 0x20 DUP3 ADD SWAP1 POP SWAP2 SWAP1 POP JUMP JUMPDEST PUSH0 PUSH1 0x20 DUP3 ADD SWAP1 POP DUP2 DUP2 SUB PUSH0 DUP4 ADD MSTORE PUSH2 0x1769 DUP2 PUSH2 0x1730 JUMP JUMPDEST SWAP1 POP SWAP2 SWAP1 POP JUMP JUMPDEST PUSH32 0x6E6F74206F776E6572206E6F7220617070726F76656400000000000000000000 PUSH0 DUP3 ADD MSTORE POP JUMP JUMPDEST PUSH0 PUSH2 0x17A4 PUSH1 0x16 DUP4 PUSH2 0x1690 JUMP JUMPDEST SWAP2 POP PUSH2 0x17AF DUP3 PUSH2 0x1770 JUMP JUMPDEST PUSH1 0x20 DUP3 ADD SWAP1 POP SWAP2 SWAP1 POP JUMP JUMPDEST PUSH0 PUSH1 0x20 DUP3 ADD SWAP1 POP DUP2 DUP2 SUB PUSH0 DUP4 ADD MSTORE PUSH2 0x17D1 DUP2 PUSH2 0x1798 JUMP JUMPDEST SWAP1 POP SWAP2 SWAP1 POP JUMP JUMPDEST PUSH32 0x6D696E7420746F207A65726F2061646472657373000000000000000000000000 PUSH0 DUP3 ADD MSTORE POP JUMP JUMPDEST PUSH0 PUSH2 0x180C PUSH1 0x14 DUP4 PUSH2 0x1690 JUMP JUMPDEST SWAP2 POP PUSH2 0x1817 DUP3 PUSH2 0x17D8 JUMP JUMPDEST PUSH1 0x20 DUP3 ADD SWAP1 POP SWAP2 SWAP1 POP JUMP JUMPDEST PUSH0 PUSH1 0x20 DUP3 ADD SWAP1 POP DUP2 DUP2 SUB PUSH0 DUP4 ADD MSTORE PUSH2 0x1839 DUP2 PUSH2 0x1800 JUMP JUMPDEST SWAP1 POP SWAP2 SWAP1 POP JUMP JUMPDEST PUSH32 0x746F6B656E20616C7265616479206D696E746564000000000000000000000000 PUSH0 DUP3 ADD MSTORE POP JUMP JUMPDEST PUSH0 PUSH2 0x1874 PUSH1 0x14 DUP4 PUSH2 0x1690 JUMP JUMPDEST SWAP2 POP PUSH2 0x187F DUP3 PUSH2 0x1840 JUMP JUMPDEST PUSH1 0x20 DUP3 ADD SWAP1 POP SWAP2 SWAP1 POP JUMP JUMPDEST PUSH0 PUSH1 0x20 DUP3 ADD SWAP1 POP DUP2 DUP2 SUB PUSH0 DUP4 ADD MSTORE PUSH2 0x18A1 DUP2 PUSH2 0x1868 JUMP JUMPDEST SWAP1 POP SWAP2 SWAP1 POP JUMP JUMPDEST PUSH32 0x4E487B7100000000000000000000000000000000000000000000000000000000 PUSH0 MSTORE PUSH1 0x11 PUSH1 0x4 MSTORE PUSH1 0x24 PUSH0 REVERT JUMPDEST PUSH0 PUSH2 0x18DF DUP3 PUSH2 0x126D JUMP JUMPDEST SWAP2 POP PUSH2 0x18EA DUP4 PUSH2 0x126D JUMP JUMPDEST SWAP3 POP DUP3 DUP3 ADD SWAP1 POP DUP1 DUP3 GT ISZERO PUSH2 0x1902 JUMPI PUSH2 0x1901 PUSH2 0x18A8 JUMP JUMPDEST JUMPDEST SWAP3 SWAP2 POP POP JUMP JUMPDEST PUSH0 PUSH2 0x1912 DUP3 PUSH2 0x126D JUMP JUMPDEST SWAP2 POP PUSH2 0x191D DUP4 PUSH2 0x126D JUMP JUMPDEST SWAP3 POP DUP3 DUP3 SUB SWAP1 POP DUP2 DUP2 GT ISZERO PUSH2 0x1935 JUMPI PUSH2 0x1934 PUSH2 0x18A8 JUMP JUMPDEST JUMPDEST SWAP3 SWAP2 POP POP JUMP JUMPDEST PUSH32 0x6F776E6572203D207A65726F2061646472657373000000000000000000000000 PUSH0 DUP3 ADD MSTORE POP JUMP JUMPDEST PUSH0 PUSH2 0x196F PUSH1 0x14 DUP4 PUSH2 0x1690 JUMP JUMPDEST SWAP2 POP PUSH2 0x197A DUP3 PUSH2 0x193B JUMP JUMPDEST PUSH1 0x20 DUP3 ADD SWAP1 POP SWAP2 SWAP1 POP JUMP JUMPDEST PUSH0 PUSH1 0x20 DUP3 ADD SWAP1 POP DUP2 DUP2 SUB PUSH0 DUP4 ADD MSTORE PUSH2 0x199C DUP2 PUSH2 0x1963 JUMP JUMPDEST SWAP1 POP SWAP2 SWAP1 POP JUMP JUMPDEST PUSH32 0x6E6F74206F776E65720000000000000000000000000000000000000000000000 PUSH0 DUP3 ADD MSTORE POP JUMP JUMPDEST PUSH0 PUSH2 0x19D7 PUSH1 0x9 DUP4 PUSH2 0x1690 JUMP JUMPDEST SWAP2 POP PUSH2 0x19E2 DUP3 PUSH2 0x19A3 JUMP JUMPDEST PUSH1 0x20 DUP3 ADD SWAP1 POP SWAP2 SWAP1 POP JUMP JUMPDEST PUSH0 PUSH1 0x20 DUP3 ADD SWAP1 POP DUP2 DUP2 SUB PUSH0 DUP4 ADD MSTORE PUSH2 0x1A04 DUP2 PUSH2 0x19CB JUMP JUMPDEST SWAP1 POP SWAP2 SWAP1 POP JUMP JUMPDEST PUSH32 0x7472616E7366657220746F20746865207A65726F206164647265737300000000 PUSH0 DUP3 ADD MSTORE POP JUMP JUMPDEST PUSH0 PUSH2 0x1A3F PUSH1 0x1C DUP4 PUSH2 0x1690 JUMP JUMPDEST SWAP2 POP PUSH2 0x1A4A DUP3 PUSH2 0x1A0B JUMP JUMPDEST PUSH1 0x20 DUP3 ADD SWAP1 POP SWAP2 SWAP1 POP JUMP JUMPDEST PUSH0 PUSH1 0x20 DUP3 ADD SWAP1 POP DUP2 DUP2 SUB PUSH0 DUP4 ADD MSTORE PUSH2 0x1A6C DUP2 PUSH2 0x1A33 JUMP JUMPDEST SWAP1 POP SWAP2 SWAP1 POP JUMP JUMPDEST PUSH32 0x6E6F742045524337323152656365697665720000000000000000000000000000 PUSH0 DUP3 ADD MSTORE POP JUMP JUMPDEST PUSH0 PUSH2 0x1AA7 PUSH1 0x12 DUP4 PUSH2 0x1690 JUMP JUMPDEST SWAP2 POP PUSH2 0x1AB2 DUP3 PUSH2 0x1A73 JUMP JUMPDEST PUSH1 0x20 DUP3 ADD SWAP1 POP SWAP2 SWAP1 POP JUMP JUMPDEST PUSH0 PUSH1 0x20 DUP3 ADD SWAP1 POP DUP2 DUP2 SUB PUSH0 DUP4 ADD MSTORE PUSH2 0x1AD4 DUP2 PUSH2 0x1A9B JUMP JUMPDEST SWAP1 POP SWAP2 SWAP1 POP JUMP JUMPDEST PUSH0 DUP2 MLOAD SWAP1 POP SWAP2 SWAP1 POP JUMP JUMPDEST PUSH0 DUP3 DUP3 MSTORE PUSH1 0x20 DUP3 ADD SWAP1 POP SWAP3 SWAP2 POP POP JUMP JUMPDEST DUP3 DUP2 DUP4 MCOPY PUSH0 DUP4 DUP4 ADD MSTORE POP POP POP JUMP JUMPDEST PUSH0 PUSH2 0x1B0D DUP3 PUSH2 0x1ADB JUMP JUMPDEST PUSH2 0x1B17 DUP2 DUP6 PUSH2 0x1AE5 JUMP JUMPDEST SWAP4 POP PUSH2 0x1B27 DUP2 DUP6 PUSH1 0x20 DUP7 ADD PUSH2 0x1AF5 JUMP JUMPDEST PUSH2 0x1B30 DUP2 PUSH2 0x149E JUMP JUMPDEST DUP5 ADD SWAP2 POP POP SWAP3 SWAP2 POP POP JUMP JUMPDEST PUSH0 PUSH1 0x80 DUP3 ADD SWAP1 POP PUSH2 0x1B4E PUSH0 DUP4 ADD DUP8 PUSH2 0x12FB JUMP JUMPDEST PUSH2 0x1B5B PUSH1 0x20 DUP4 ADD DUP7 PUSH2 0x12FB JUMP JUMPDEST PUSH2 0x1B68 PUSH1 0x40 DUP4 ADD DUP6 PUSH2 0x1406 JUMP JUMPDEST DUP2 DUP2 SUB PUSH1 0x60 DUP4 ADD MSTORE PUSH2 0x1B7A DUP2 DUP5 PUSH2 0x1B03 JUMP JUMPDEST SWAP1 POP SWAP6 SWAP5 POP POP POP POP POP JUMP JUMPDEST PUSH0 DUP2 MLOAD SWAP1 POP PUSH2 0x1B93 DUP2 PUSH2 0x11E5 JUMP JUMPDEST SWAP3 SWAP2 POP POP JUMP JUMPDEST PUSH0 PUSH1 0x20 DUP3 DUP5 SUB SLT ISZERO PUSH2 0x1BAE JUMPI PUSH2 0x1BAD PUSH2 0x11B2 JUMP JUMPDEST JUMPDEST PUSH0 PUSH2 0x1BBB DUP5 DUP3 DUP6 ADD PUSH2 0x1B85 JUMP JUMPDEST SWAP2 POP POP SWAP3 SWAP2 POP POP JUMP INVALID LOG2 PUSH5 0x6970667358 0x22 SLT KECCAK256 0x1F 0x29 RETURNDATASIZE 0xB0 SAR PUSH17 0x31C2575797AED2FBB83E7E336E8554195B DUP11 CALLDATASIZE ORIGIN 0xC4 BASEFEE LOG4 SWAP3 SWAP15 PUSH4 0x64736F6C PUSH4 0x4300081A STOP CALLER "
				},
				"gasEstimates": {
					"creation": {
						"codeDepositCost": "1432400",
						"executionCost": "1491",
						"totalCost": "1433891"
					},
					"external": {
						"approve(address,uint256)": "31558",
						"balanceOf(address)": "2908",
						"burn(uint256)": "infinite",
						"getApproved(uint256)": "5121",
						"isApprovedForAll(address,address)": "infinite",
						"mint(address,uint256)": "infinite",
						"ownerOf(uint256)": "2960",
						"safeTransferFrom(address,address,uint256)": "infinite",
						"safeTransferFrom(address,address,uint256,bytes)": "infinite",
						"setApprovalForAll(address,bool)": "infinite",
						"supportsInterface(bytes4)": "676",
						"transferFrom(address,address,uint256)": "infinite"
					},
					"internal": {
						"_approve(address,address,uint256)": "26289",
						"_checkOnERC721Received(address,address,uint256,bytes memory)": "infinite",
						"_isApprovedOrOwner(address,address,uint256)": "4639",
						"_safeTransfer(address,address,address,uint256,bytes memory)": "infinite",
						"_transfer(address,address,address,uint256)": "infinite"
					}
				},
				"methodIdentifiers": {
					"approve(address,uint256)": "095ea7b3",
					"balanceOf(address)": "70a08231",
					"burn(uint256)": "42966c68",
					"getApproved(uint256)": "081812fc",
					"isApprovedForAll(address,address)": "e985e9c5",
					"mint(address,uint256)": "40c10f19",
					"ownerOf(uint256)": "6352211e",
					"safeTransferFrom(address,address,uint256)": "42842e0e",
					"safeTransferFrom(address,address,uint256,bytes)": "b88d4fde",
					"setApprovalForAll(address,bool)": "a22cb465",
					"supportsInterface(bytes4)": "01ffc9a7",
					"transferFrom(address,address,uint256)": "23b872dd"
				}
			},
			"storageLayout": {
				"storage": [
					{
						"astId": 132,
						"contract": "tests/rcclevel1/erc721.sol:ERC721",
						"label": "_owners",
						"offset": 0,
						"slot": "0",
						"type": "t_mapping(t_uint256,t_address)"
					},
					{
						"astId": 136,
						"contract": "tests/rcclevel1/erc721.sol:ERC721",
						"label": "_balances",
						"offset": 0,
						"slot": "1",
						"type": "t_mapping(t_address,t_uint256)"
					},
					{
						"astId": 140,
						"contract": "tests/rcclevel1/erc721.sol:ERC721",
						"label": "_tokenApprovals",
						"offset": 0,
						"slot": "2",
						"type": "t_mapping(t_uint256,t_address)"
					},
					{
						"astId": 146,
						"contract": "tests/rcclevel1/erc721.sol:ERC721",
						"label": "_operatorApprovals",
						"offset": 0,
						"slot": "3",
						"type": "t_mapping(t_address,t_mapping(t_address,t_bool))"
					}
				],
				"types": {
					"t_address": {
						"encoding": "inplace",
						"label": "address",
						"numberOfBytes": "20"
					},
					"t_bool": {
						"encoding": "inplace",
						"label": "bool",
						"numberOfBytes": "1"
					},
					"t_mapping(t_address,t_bool)": {
						"encoding": "mapping",
						"key": "t_address",
						"label": "mapping(address => bool)",
						"numberOfBytes": "32",
						"value": "t_bool"
					},
					"t_mapping(t_address,t_mapping(t_address,t_bool))": {
						"encoding": "mapping",
						"key": "t_address",
						"label": "mapping(address => mapping(address => bool))",
						"numberOfBytes": "32",
						"value": "t_mapping(t_address,t_bool)"
					},
					"t_mapping(t_address,t_uint256)": {
						"encoding": "mapping",
						"key": "t_address",
						"label": "mapping(address => uint256)",
						"numberOfBytes": "32",
						"value": "t_uint256"
					},
					"t_mapping(t_uint256,t_address)": {
						"encoding": "mapping",
						"key": "t_uint256",
						"label": "mapping(uint256 => address)",
						"numberOfBytes": "32",
						"value": "t_address"
					},
					"t_uint256": {
						"encoding": "inplace",
						"label": "uint256",
						"numberOfBytes": "32"
					}
				}
			},
			"userdoc": {
				"kind": "user",
				"methods": {},
				"version": 1
			}
		}
	}
}