{
	"data": {
		"bytecode": {
			"linkReferences": {},
			"object": "6080604052348015600e575f80fd5b506102818061001c5f395ff3fe608060405234801561000f575f80fd5b5060043610610060575f3560e01c8063278ecde1146100645780632c63f14614610080578063379607f51461009c57806340e58ee5146100b8578063711853ab146100d4578063fde327be146100f0575b5f80fd5b61007e60048036038101906100799190610159565b61010c565b005b61009a600480360381019061009591906101bd565b61010f565b005b6100b660048036038101906100b19190610159565b610114565b005b6100d260048036038101906100cd9190610159565b610117565b005b6100ee60048036038101906100e9919061020d565b61011a565b005b61010a6004803603810190610105919061020d565b61011e565b005b50565b505050565b50565b50565b5050565b5050565b5f80fd5b5f819050919050565b61013881610126565b8114610142575f80fd5b50565b5f813590506101538161012f565b92915050565b5f6020828403121561016e5761016d610122565b5b5f61017b84828501610145565b91505092915050565b5f63ffffffff82169050919050565b61019c81610184565b81146101a6575f80fd5b50565b5f813590506101b781610193565b92915050565b5f805f606084860312156101d4576101d3610122565b5b5f6101e186828701610145565b93505060206101f2868287016101a9565b9250506040610203868287016101a9565b9150509250925092565b5f806040838503121561022357610222610122565b5b5f61023085828601610145565b925050602061024185828601610145565b915050925092905056fea264697066735822122010ffe66063631b27132f627274557ae49a89abd492e396e4179e17fc0db8783864736f6c634300081a0033",
			"opcodes": "PUSH1 0x80 PUSH1 0x40 MSTORE CALLVALUE DUP1 ISZERO PUSH1 0xE JUMPI PUSH0 DUP1 REVERT JUMPDEST POP PUSH2 0x281 DUP1 PUSH2 0x1C PUSH0 CODECOPY PUSH0 RETURN INVALID PUSH1 0x80 PUSH1 0x40 MSTORE CALLVALUE DUP1 ISZERO PUSH2 0xF JUMPI PUSH0 DUP1 REVERT JUMPDEST POP PUSH1 0x4 CALLDATASIZE LT PUSH2 0x60 JUMPI PUSH0 CALLDATALOAD PUSH1 0xE0 SHR DUP1 PUSH4 0x278ECDE1 EQ PUSH2 0x64 JUMPI DUP1 PUSH4 0x2C63F146 EQ PUSH2 0x80 JUMPI DUP1 PUSH4 0x379607F5 EQ PUSH2 0x9C JUMPI DUP1 PUSH4 0x40E58EE5 EQ PUSH2 0xB8 JUMPI DUP1 PUSH4 0x711853AB EQ PUSH2 0xD4 JUMPI DUP1 PUSH4 0xFDE327BE EQ PUSH2 0xF0 JUMPI JUMPDEST PUSH0 DUP1 REVERT JUMPDEST PUSH2 0x7E PUSH1 0x4 DUP1 CALLDATASIZE SUB DUP2 ADD SWAP1 PUSH2 0x79 SWAP2 SWAP1 PUSH2 0x159 JUMP JUMPDEST PUSH2 0x10C JUMP JUMPDEST STOP JUMPDEST PUSH2 0x9A PUSH1 0x4 DUP1 CALLDATASIZE SUB DUP2 ADD SWAP1 PUSH2 0x95 SWAP2 SWAP1 PUSH2 0x1BD JUMP JUMPDEST PUSH2 0x10F JUMP JUMPDEST STOP JUMPDEST PUSH2 0xB6 PUSH1 0x4 DUP1 CALLDATASIZE SUB DUP2 ADD SWAP1 PUSH2 0xB1 SWAP2 SWAP1 PUSH2 0x159 JUMP JUMPDEST PUSH2 0x114 JUMP JUMPDEST STOP JUMPDEST PUSH2 0xD2 PUSH1 0x4 DUP1 CALLDATASIZE SUB DUP2 ADD SWAP1 PUSH2 0xCD SWAP2 SWAP1 PUSH2 0x159 JUMP JUMPDEST PUSH2 0x117 JUMP JUMPDEST STOP JUMPDEST PUSH2 0xEE PUSH1 0x4 DUP1 CALLDATASIZE SUB DUP2 ADD SWAP1 PUSH2 0xE9 SWAP2 SWAP1 PUSH2 0x20D JUMP JUMPDEST PUSH2 0x11A JUMP JUMPDEST STOP JUMPDEST PUSH2 0x10A PUSH1 0x4 DUP1 CALLDATASIZE SUB DUP2 ADD SWAP1 PUSH2 0x105 SWAP2 SWAP1 PUSH2 0x20D JUMP JUMPDEST PUSH2 0x11E JUMP JUMPDEST STOP JUMPDEST POP JUMP JUMPDEST POP POP POP JUMP JUMPDEST POP JUMP JUMPDEST POP JUMP JUMPDEST POP POP JUMP JUMPDEST POP POP JUMP JUMPDEST PUSH0 DUP1 REVERT JUMPDEST PUSH0 DUP2 SWAP1 POP SWAP2 SWAP1 POP JUMP JUMPDEST PUSH2 0x138 DUP2 PUSH2 0x126 JUMP JUMPDEST DUP2 EQ PUSH2 0x142 JUMPI PUSH0 DUP1 REVERT JUMPDEST POP JUMP JUMPDEST PUSH0 DUP2 CALLDATALOAD SWAP1 POP PUSH2 0x153 DUP2 PUSH2 0x12F JUMP JUMPDEST SWAP3 SWAP2 POP POP JUMP JUMPDEST PUSH0 PUSH1 0x20 DUP3 DUP5 SUB SLT ISZERO PUSH2 0x16E JUMPI PUSH2 0x16D PUSH2 0x122 JUMP JUMPDEST JUMPDEST PUSH0 PUSH2 0x17B DUP5 DUP3 DUP6 ADD PUSH2 0x145 JUMP JUMPDEST SWAP2 POP POP SWAP3 SWAP2 POP POP JUMP JUMPDEST PUSH0 PUSH4 0xFFFFFFFF DUP3 AND SWAP1 POP SWAP2 SWAP1 POP JUMP JUMPDEST PUSH2 0x19C DUP2 PUSH2 0x184 JUMP JUMPDEST DUP2 EQ PUSH2 0x1A6 JUMPI PUSH0 DUP1 REVERT JUMPDEST POP JUMP JUMPDEST PUSH0 DUP2 CALLDATALOAD SWAP1 POP PUSH2 0x1B7 DUP2 PUSH2 0x193 JUMP JUMPDEST SWAP3 SWAP2 POP POP JUMP JUMPDEST PUSH0 DUP1 PUSH0 PUSH1 0x60 DUP5 DUP7 SUB SLT ISZERO PUSH2 0x1D4 JUMPI PUSH2 0x1D3 PUSH2 0x122 JUMP JUMPDEST JUMPDEST PUSH0 PUSH2 0x1E1 DUP7 DUP3 DUP8 ADD PUSH2 0x145 JUMP JUMPDEST SWAP4 POP POP PUSH1 0x20 PUSH2 0x1F2 DUP7 DUP3 DUP8 ADD PUSH2 0x1A9 JUMP JUMPDEST SWAP3 POP POP PUSH1 0x40 PUSH2 0x203 DUP7 DUP3 DUP8 ADD PUSH2 0x1A9 JUMP JUMPDEST SWAP2 POP POP SWAP3 POP SWAP3 POP SWAP3 JUMP JUMPDEST PUSH0 DUP1 PUSH1 0x40 DUP4 DUP6 SUB SLT ISZERO PUSH2 0x223 JUMPI PUSH2 0x222 PUSH2 0x122 JUMP JUMPDEST JUMPDEST PUSH0 PUSH2 0x230 DUP6 DUP3 DUP7 ADD PUSH2 0x145 JUMP JUMPDEST SWAP3 POP POP PUSH1 0x20 PUSH2 0x241 DUP6 DUP3 DUP7 ADD PUSH2 0x145 JUMP JUMPDEST SWAP2 POP POP SWAP3 POP SWAP3 SWAP1 POP JUMP INVALID LOG2 PUSH5 0x6970667358 0x22 SLT KECCAK256 LT SELFDESTRUCT 0xE6 PUSH1 0x63 PUSH4 0x1B27132F PUSH3 0x727455 PUSH27 0xE49A89ABD492E396E4179E17FC0DB8783864736F6C634300081A00 CALLER "
		},
		"gasEstimates": {
			"creation": {
				"codeDepositCost": "128200",
				"executionCost": "175",
				"totalCost": "128375"
			},
			"external": {
				"cancel(uint256)": "445",
				"claim(uint256)": "423",
				"launch(uint256,uint32,uint32)": "infinite",
				"pledge(uint256,uint256)": "infinite",
				"refund(uint256)": "379",
				"unpledge(uint256,uint256)": "infinite"
			}
		},
		"methodIdentifiers": {
			"cancel(uint256)": "40e58ee5",
			"claim(uint256)": "379607f5",
			"launch(uint256,uint32,uint32)": "2c63f146",
			"pledge(uint256,uint256)": "fde327be",
			"refund(uint256)": "278ecde1",
			"unpledge(uint256,uint256)": "711853ab"
		}
	},
	"abi": [
		{
			"inputs": [
				{
					"internalType": "uint256",
					"name": "_id",
					"type": "uint256"
				}
			],
			"name": "cancel",
			"outputs": [],
			"stateMutability": "nonpayable",
			"type": "function"
		},
		{
			"inputs": [
				{
					"internalType": "uint256",
					"name": "_id",
					"type": "uint256"
				}
			],
			"name": "claim",
			"outputs": [],
			"stateMutability": "nonpayable",
			"type": "function"
		},
		{
			"inputs": [
				{
					"internalType": "uint256",
					"name": "_goal",
					"type": "uint256"
				},
				{
					"internalType": "uint32",
					"name": "_startAt",
					"type": "uint32"
				},
				{
					"internalType": "uint32",
					"name": "_endAt",
					"type": "uint32"
				}
			],
			"name": "launch",
			"outputs": [],
			"stateMutability": "nonpayable",
			"type": "function"
		},
		{
			"inputs": [
				{
					"internalType": "uint256",
					"name": "_id",
					"type": "uint256"
				},
				{
					"internalType": "uint256",
					"name": "amount",
					"type": "uint256"
				}
			],
			"name": "pledge",
			"outputs": [],
			"stateMutability": "nonpayable",
			"type": "function"
		},
		{
			"inputs": [
				{
					"internalType": "uint256",
					"name": "_id",
					"type": "uint256"
				}
			],
			"name": "refund",
			"outputs": [],
			"stateMutability": "nonpayable",
			"type": "function"
		},
		{
			"inputs": [
				{
					"internalType": "uint256",
					"name": "_id",
					"type": "uint256"
				},
				{
					"internalType": "uint256",
					"name": "amount",
					"type": "uint256"
				}
			],
			"name": "unpledge",
			"outputs": [],
			"stateMutability": "nonpayable",
			"type": "function"
		}
	]
}